{
	"data": {
		"bytecode": {
			"linkReferences": {},
			"object": "608060405234801561001057600080fd5b50610193806100206000396000f3fe608060405234801561001057600080fd5b506004361061004c5760003560e01c806334b1a50c1461005157806349b0db141461009957806354fd4d50146100be5780637afa1eed146100e0575b600080fd5b6100836040518060400160405280601381526020017268747470733a2f2f746a746f6b656e2e6f726760681b81525081565b604051610090919061010f565b60405180910390f35b61008360405180604001604052806006815260200165076312e302e360d41b81525081565b604080518082019091526006815265076312e302e360d41b6020820152610083565b60408051808201909152601381527268747470733a2f2f746a746f6b656e2e6f726760681b6020820152610083565b600060208083528351808285015260005b8181101561013c57858101830151858201604001528201610120565b506000604082860101526040601f19601f830116850101925050509291505056fea26469706673582212203dc64060f18dec2c6b5d3640ffebec5926fa368b9d5d78ae79115311187220fe64736f6c63430008120033",
			"opcodes": "PUSH1 0x80 PUSH1 0x40 MSTORE CALLVALUE DUP1 ISZERO PUSH2 0x10 JUMPI PUSH1 0x0 DUP1 REVERT JUMPDEST POP PUSH2 0x193 DUP1 PUSH2 0x20 PUSH1 0x0 CODECOPY PUSH1 0x0 RETURN INVALID PUSH1 0x80 PUSH1 0x40 MSTORE CALLVALUE DUP1 ISZERO PUSH2 0x10 JUMPI PUSH1 0x0 DUP1 REVERT JUMPDEST POP PUSH1 0x4 CALLDATASIZE LT PUSH2 0x4C JUMPI PUSH1 0x0 CALLDATALOAD PUSH1 0xE0 SHR DUP1 PUSH4 0x34B1A50C EQ PUSH2 0x51 JUMPI DUP1 PUSH4 0x49B0DB14 EQ PUSH2 0x99 JUMPI DUP1 PUSH4 0x54FD4D50 EQ PUSH2 0xBE JUMPI DUP1 PUSH4 0x7AFA1EED EQ PUSH2 0xE0 JUMPI JUMPDEST PUSH1 0x0 DUP1 REVERT JUMPDEST PUSH2 0x83 PUSH1 0x40 MLOAD DUP1 PUSH1 0x40 ADD PUSH1 0x40 MSTORE DUP1 PUSH1 0x13 DUP2 MSTORE PUSH1 0x20 ADD PUSH19 0x68747470733A2F2F746A746F6B656E2E6F7267 PUSH1 0x68 SHL DUP2 MSTORE POP DUP2 JUMP JUMPDEST PUSH1 0x40 MLOAD PUSH2 0x90 SWAP2 SWAP1 PUSH2 0x10F JUMP JUMPDEST PUSH1 0x40 MLOAD DUP1 SWAP2 SUB SWAP1 RETURN JUMPDEST PUSH2 0x83 PUSH1 0x40 MLOAD DUP1 PUSH1 0x40 ADD PUSH1 0x40 MSTORE DUP1 PUSH1 0x6 DUP2 MSTORE PUSH1 0x20 ADD PUSH6 0x76312E302E3 PUSH1 0xD4 SHL DUP2 MSTORE POP DUP2 JUMP JUMPDEST PUSH1 0x40 DUP1 MLOAD DUP1 DUP3 ADD SWAP1 SWAP2 MSTORE PUSH1 0x6 DUP2 MSTORE PUSH6 0x76312E302E3 PUSH1 0xD4 SHL PUSH1 0x20 DUP3 ADD MSTORE PUSH2 0x83 JUMP JUMPDEST PUSH1 0x40 DUP1 MLOAD DUP1 DUP3 ADD SWAP1 SWAP2 MSTORE PUSH1 0x13 DUP2 MSTORE PUSH19 0x68747470733A2F2F746A746F6B656E2E6F7267 PUSH1 0x68 SHL PUSH1 0x20 DUP3 ADD MSTORE PUSH2 0x83 JUMP JUMPDEST PUSH1 0x0 PUSH1 0x20 DUP1 DUP4 MSTORE DUP4 MLOAD DUP1 DUP3 DUP6 ADD MSTORE PUSH1 0x0 JUMPDEST DUP2 DUP2 LT ISZERO PUSH2 0x13C JUMPI DUP6 DUP2 ADD DUP4 ADD MLOAD DUP6 DUP3 ADD PUSH1 0x40 ADD MSTORE DUP3 ADD PUSH2 0x120 JUMP JUMPDEST POP PUSH1 0x0 PUSH1 0x40 DUP3 DUP7 ADD ADD MSTORE PUSH1 0x40 PUSH1 0x1F NOT PUSH1 0x1F DUP4 ADD AND DUP6 ADD ADD SWAP3 POP POP POP SWAP3 SWAP2 POP POP JUMP INVALID LOG2 PUSH5 0x6970667358 0x22 SLT KECCAK256 RETURNDATASIZE 0xC6 BLOCKHASH PUSH1 0xF1 DUP14 0xEC 0x2C PUSH12 0x5D3640FFEBEC5926FA368B9D 0x5D PUSH25 0xAE79115311187220FE64736F6C634300081200330000000000 "
		},
		"gasEstimates": {
			"creation": {
				"codeDepositCost": "80600",
				"executionCost": "129",
				"totalCost": "80729"
			},
			"external": {
				"_GENERATOR()": "infinite",
				"_VERSION()": "infinite",
				"generator()": "infinite",
				"version()": "infinite"
			}
		},
		"methodIdentifiers": {
			"_GENERATOR()": "34b1a50c",
			"_VERSION()": "49b0db14",
			"generator()": "7afa1eed",
			"version()": "54fd4d50"
		}
	},
	"abi": [
		{
			"inputs": [],
			"name": "_GENERATOR",
			"outputs": [
				{
					"internalType": "string",
					"name": "",
					"type": "string"
				}
			],
			"stateMutability": "view",
			"type": "function"
		},
		{
			"inputs": [],
			"name": "_VERSION",
			"outputs": [
				{
					"internalType": "string",
					"name": "",
					"type": "string"
				}
			],
			"stateMutability": "view",
			"type": "function"
		},
		{
			"inputs": [],
			"name": "generator",
			"outputs": [
				{
					"internalType": "string",
					"name": "",
					"type": "string"
				}
			],
			"stateMutability": "pure",
			"type": "function"
		},
		{
			"inputs": [],
			"name": "version",
			"outputs": [
				{
					"internalType": "string",
					"name": "",
					"type": "string"
				}
			],
			"stateMutability": "pure",
			"type": "function"
		}
	]
}