{
	"data": {
		"bytecode": {
			"linkReferences": {},
			"object": "60c060408190526003805461dead6001600160a01b0319909116179055600480546001600160d81b0319166580850505050560a11b1790556010805463ffffffff60381b1966ffffffff0000001962ffffff19831660ff610100601261ffff19909616861704811662010000029190911790931790811661ffff60281b19630100000063ff00000019841604851664010000000002908116919091176501000000000065ffffff0000001990931660ff60281b1992909216919091179190910483166601000000000000021790811661ffff60481b1967010000000000000060ff60381b198416048416680100000000000000000290811691909117690100000000000000000062ffffff60381b1990931660ff60481b199290921691909117919091049091166a0100000000000000000000021790556011805460ff19166001179055670de0b6b3a76400006013556200430b388190039081908339810160408190526200016e9162000705565b604080518082018252600b81526a1512951bdad95b97d5129160aa1b6020820152600080546001600160a01b031916339081178255925191928e92909182917f8be0079c531659141344cd1fd0a4f28419497f9722a3daafe3b4186f6b6457e0908290a350600180546001600160a01b0319166001600160a01b0383161790556002620001fc8382620008a7565b506040516001600160a01b038216903480156108fc02916000818181858888f1935050505015801562000233573d6000803e3d6000fd5b50600e91506200024690508b82620008a7565b50600f620002558a82620008a7565b506010805460ff191660ff8a169081179091556200027590600a62000a86565b62000281908862000a94565b600b819055620002949060001962000ac4565b620002a29060001962000adb565b600c55600b5433600090815260066020908152604090912091909155620002f49061271090620002e0908a90600190620019ee620005ec821b17901c565b6200060360201b620019fa1790919060201c565b601355600c543360008181526005602090815260409091209290925560108054600160581b600160f81b0319166b01000000000000000000000090920291909117905562000359906103e890620002e0908a90600190620005ec811b620019ee17901c565b6012819055506000869050806001600160a01b031663c45a01556040518163ffffffff1660e01b8152600401602060405180830381865afa158015620003a3573d6000803e3d6000fd5b505050506040513d601f19601f82011682018060405250810190620003c9919062000af1565b6001600160a01b031663c9c6539630836001600160a01b031663ad5c46486040518163ffffffff1660e01b8152600401602060405180830381865afa15801562000417573d6000803e3d6000fd5b505050506040513d601f19601f820116820180604052508101906200043d919062000af1565b6040516001600160e01b031960e085901b1681526001600160a01b039283166004820152911660248201526044016020604051808303816000875af11580156200048b573d6000803e3d6000fd5b505050506040513d601f19601f82011682018060405250810190620004b1919062000af1565b6001600160a01b0390811660a0528116608052600160086000336001600160a01b0316815260208082019290925260409081016000908120805460ff1990811695151595909517905530815260089092529020805490911660011790556010805463ff00ff00191661010060ff8981169190910263ff0000001916919091176301000000868316021764ff000000ff60281b1916650100000000008783160260ff60481b1916176901000000000000000000858316021760ff60381b1916670100000000000000918816919091021790556200058a3390565b6001600160a01b031660006001600160a01b03167fddf252ad1be2c89b69c2b068fc378daa952ba7f163c4a11628f55a4df523b3ef600b54604051620005d291815260200190565b60405180910390a350505050505050505050505062000b26565b6000620005fa828462000a94565b90505b92915050565b6000620005fa828462000b0f565b80516001600160a01b03811681146200062957600080fd5b919050565b634e487b7160e01b600052604160045260246000fd5b600082601f8301126200065657600080fd5b81516001600160401b03808211156200067357620006736200062e565b604051601f8301601f19908116603f011681019082821181831017156200069e576200069e6200062e565b81604052838152602092508683858801011115620006bb57600080fd5b600091505b83821015620006df5785820183015181830184015290820190620006c0565b600093810190920192909252949350505050565b805160ff811681146200062957600080fd5b60008060008060008060008060008060006101608c8e0312156200072857600080fd5b620007338c62000611565b60208d0151909b506001600160401b038111156200075057600080fd5b6200075e8e828f0162000644565b60408e0151909b5090506001600160401b038111156200077d57600080fd5b6200078b8e828f0162000644565b9950506200079c60608d01620006f3565b975060808c01519650620007b360a08d0162000611565b9550620007c360c08d01620006f3565b9450620007d360e08d01620006f3565b9350620007e46101008d01620006f3565b9250620007f56101208d01620006f3565b9150620008066101408d01620006f3565b90509295989b509295989b9093969950565b600181811c908216806200082d57607f821691505b6020821081036200084e57634e487b7160e01b600052602260045260246000fd5b50919050565b601f821115620008a257600081815260208120601f850160051c810160208610156200087d5750805b601f850160051c820191505b818110156200089e5782815560010162000889565b5050505b505050565b81516001600160401b03811115620008c357620008c36200062e565b620008db81620008d4845462000818565b8462000854565b602080601f831160018114620009135760008415620008fa5750858301515b600019600386901b1c1916600185901b1785556200089e565b600085815260208120601f198616915b82811015620009445788860151825594840194600190910190840162000923565b5085821015620009635787850151600019600388901b60f8161c191681555b5050505050600190811b01905550565b634e487b7160e01b600052601160045260246000fd5b600181815b80851115620009ca578160001904821115620009ae57620009ae62000973565b80851615620009bc57918102915b93841c93908002906200098e565b509250929050565b600082620009e357506001620005fd565b81620009f257506000620005fd565b816001811462000a0b576002811462000a165762000a36565b6001915050620005fd565b60ff84111562000a2a5762000a2a62000973565b50506001821b620005fd565b5060208310610133831016604e8410600b841016171562000a5b575081810a620005fd565b62000a67838362000989565b806000190482111562000a7e5762000a7e62000973565b029392505050565b6000620005fa8383620009d2565b8082028115828204841417620005fd57620005fd62000973565b634e487b7160e01b600052601260045260246000fd5b60008262000ad65762000ad662000aae565b500690565b81810381811115620005fd57620005fd62000973565b60006020828403121562000b0457600080fd5b620005fa8262000611565b60008262000b215762000b2162000aae565b500490565b60805160a05161378762000b846000396000818161071a0152611c510152600081816104a60152818161285e0152818161291701528181612946015281816129d801528181612a0a01528181612aff0152612be101526137876000f3fe6080604052600436106103855760003560e01c80636bc87c3a116101d1578063af465a2711610102578063c7992f9a116100a0578063ea2f0b371161006f578063ea2f0b3714610b00578063f25f4b5614610b20578063f2fde38b14610b47578063f6a3c9a914610b6757600080fd5b8063c7992f9a14610a6e578063d12a768814610a8f578063d28d885214610aa5578063dd62ed3e14610aba57600080fd5b8063bdc653ef116100dc578063bdc653ef14610a04578063c0b0fda214610a19578063c2e7d95c14610a3a578063c49b9a8014610a4e57600080fd5b8063af465a27146109b9578063b09f1266146109cf578063b29a8140146109e457600080fd5b80638da5cb5b1161016f578063a0712d6811610149578063a0712d6814610944578063a457c2d714610964578063a9059cbb14610984578063aa23e03d146109a457600080fd5b80638da5cb5b146108f157806390d49b9d1461090f57806395d89b411461092f57600080fd5b8063715018a6116101ab578063715018a6146108475780637afa1eed1461085c57806382d2a4bb1461089857806388f82020146108b857600080fd5b80636bc87c3a146107e557806370690b111461080657806370a082311461082757600080fd5b80633b124fe7116102b657806349b0db141161025457806352390c021161022357806352390c021461073c5780635342acb41461075c57806354ce65781461079557806354fd4d50146107b657600080fd5b806349b0db141461069b5780634a74bb02146106cd57806351330a19146106e7578063521432901461070857600080fd5b806342966c681161029057806342966c681461061a578063430ca0901461063a578063437823ec1461065b5780634549b0391461067b57600080fd5b80633b124fe7146105ba5780633bd5d173146105d95780633c81385c146105f957600080fd5b80632d6abf8711610323578063324f8dbf116102fd578063324f8dbf1461051857806334b1a50c146105395780633685d41914610578578063395093511461059a57600080fd5b80632d6abf87146104945780632d838119146104e0578063313ce5671461050057600080fd5b806315fa749a1161035f57806315fa749a1461040b57806318160ddd1461043e57806319de79ab1461045357806323b872dd1461047457600080fd5b806306fdde0314610391578063095ea7b3146103bc57806313114a9d146103ec57600080fd5b3661038c57005b600080fd5b34801561039d57600080fd5b506103a6610b87565b6040516103b3919061314f565b60405180910390f35b3480156103c857600080fd5b506103dc6103d73660046131b2565b610c19565b60405190151581526020016103b3565b3480156103f857600080fd5b50600d545b6040519081526020016103b3565b34801561041757600080fd5b5060045461042c90600160c01b900460ff1681565b60405160ff90911681526020016103b3565b34801561044a57600080fd5b50600b546103fd565b34801561045f57600080fd5b5060105461042c90600160481b900460ff1681565b34801561048057600080fd5b506103dc61048f3660046131de565b610c30565b3480156104a057600080fd5b506104c87f000000000000000000000000000000000000000000000000000000000000000081565b6040516001600160a01b0390911681526020016103b3565b3480156104ec57600080fd5b506103fd6104fb36600461321f565b610c99565b34801561050c57600080fd5b5060105460ff1661042c565b34801561052457600080fd5b5060045461042c90600160c81b900460ff1681565b34801561054557600080fd5b506103a66040518060400160405280601381526020017268747470733a2f2f746a746f6b656e2e6f726760681b81525081565b34801561058457600080fd5b50610598610593366004613238565b610d0f565b005b3480156105a657600080fd5b506103dc6105b53660046131b2565b610eb8565b3480156105c657600080fd5b5060105461042c90610100900460ff1681565b3480156105e557600080fd5b506105986105f436600461321f565b610eee565b34801561060557600080fd5b5060045461042c90600160b01b900460ff1681565b34801561062657600080fd5b506103dc61063536600461321f565b610fd8565b34801561064657600080fd5b5060045461042c90600160a01b900460ff1681565b34801561066757600080fd5b50610598610676366004613238565b611016565b34801561068757600080fd5b506103fd610696366004613263565b611064565b3480156106a757600080fd5b506103a660405180604001604052806006815260200165076312e302e360d41b81525081565b3480156106d957600080fd5b506011546103dc9060ff1681565b3480156106f357600080fd5b5060045461042c90600160b81b900460ff1681565b34801561071457600080fd5b506104c87f000000000000000000000000000000000000000000000000000000000000000081565b34801561074857600080fd5b50610598610757366004613238565b6110f1565b34801561076857600080fd5b506103dc610777366004613238565b6001600160a01b031660009081526008602052604090205460ff1690565b3480156107a157600080fd5b5060105461042c90600160381b900460ff1681565b3480156107c257600080fd5b50604080518082019091526006815265076312e302e360d41b60208201526103a6565b3480156107f157600080fd5b5060105461042c906301000000900460ff1681565b34801561081257600080fd5b5060045461042c90600160d01b900460ff1681565b34801561083357600080fd5b506103fd610842366004613238565b6111fe565b34801561085357600080fd5b5061059861125d565b34801561086857600080fd5b5060408051808201909152601381527268747470733a2f2f746a746f6b656e2e6f726760681b60208201526103a6565b3480156108a457600080fd5b506105986108b336600461321f565b6112d1565b3480156108c457600080fd5b506103dc6108d3366004613238565b6001600160a01b031660009081526009602052604090205460ff1690565b3480156108fd57600080fd5b506000546001600160a01b03166104c8565b34801561091b57600080fd5b5061059861092a366004613238565b61131c565b34801561093b57600080fd5b506103a66113d5565b34801561095057600080fd5b506103dc61095f36600461321f565b6113e4565b34801561097057600080fd5b506103dc61097f3660046131b2565b611419565b34801561099057600080fd5b506103dc61099f3660046131b2565b611468565b3480156109b057600080fd5b506103a6611475565b3480156109c557600080fd5b506103fd600b5481565b3480156109db57600080fd5b506103a6611484565b3480156109f057600080fd5b506105986109ff3660046131b2565b611512565b348015610a1057600080fd5b506013546103fd565b348015610a2557600080fd5b5060105461042c90600160281b900460ff1681565b348015610a4657600080fd5b5060016103dc565b348015610a5a57600080fd5b50610598610a69366004613293565b61161b565b348015610a7a57600080fd5b5060045461042c90600160a81b900460ff1681565b348015610a9b57600080fd5b506103fd60125481565b348015610ab157600080fd5b506103a661168c565b348015610ac657600080fd5b506103fd610ad53660046132b0565b6001600160a01b03918216600090815260076020908152604080832093909416825291909152205490565b348015610b0c57600080fd5b50610598610b1b366004613238565b611699565b348015610b2c57600080fd5b506010546104c890600160581b90046001600160a01b031681565b348015610b5357600080fd5b50610598610b62366004613238565b6116e4565b348015610b7357600080fd5b50610598610b823660046132ef565b6117d3565b6060600e8054610b9690613354565b80601f0160208091040260200160405190810160405280929190818152602001828054610bc290613354565b8015610c0f5780601f10610be457610100808354040283529160200191610c0f565b820191906000526020600020905b815481529060010190602001808311610bf257829003601f168201915b5050505050905090565b6000610c26338484611a06565b5060015b92915050565b6000610c3d848484611b14565b610c8f8433610c8a856040518060600160405280602881526020016136c3602891396001600160a01b038a1660009081526007602090815260408083203384529091529020549190611d72565b611a06565b5060019392505050565b6000600c54821115610cf25760405162461bcd60e51b815260206004820152601e60248201527f416d74206d757374206265206c657373207468616e20746f74207265666c000060448201526064015b60405180910390fd5b6000610cfc611d9e565b9050610d0883826119fa565b9392505050565b6000546001600160a01b03163314610d395760405162461bcd60e51b8152600401610ce99061338e565b6001600160a01b03811660009081526009602052604090205460ff16610d945760405162461bcd60e51b815260206004820152601060248201526f105b1c9958591e48195e18db1d59195960821b6044820152606401610ce9565b60005b600a54811015610eb457816001600160a01b0316600a8281548110610dbe57610dbe6133d3565b6000918252602090912001546001600160a01b031603610ea257600a8054610de8906001906133ff565b81548110610df857610df86133d3565b600091825260209091200154600a80546001600160a01b039092169183908110610e2457610e246133d3565b600091825260208083209190910180546001600160a01b0319166001600160a01b039485161790559184168152600682526040808220829055600990925220805460ff19169055600a805480610e7c57610e7c613412565b600082815260209020810160001990810180546001600160a01b03191690550190555050565b80610eac81613428565b915050610d97565b5050565b3360008181526007602090815260408083206001600160a01b03871684529091528120549091610c26918590610c8a9086611dc1565b3360008181526009602052604090205460ff1615610f635760405162461bcd60e51b815260206004820152602c60248201527f4578636c75646564206164647265737365732063616e6e6f742063616c6c207460448201526b3434b990333ab731ba34b7b760a11b6064820152608401610ce9565b6000610f6e83611dcd565b505050506001600160a01b038416600090815260056020526040902054919250610f9a91905082611e1c565b6001600160a01b038316600090815260056020526040902055600c54610fc09082611e1c565b600c55600d54610fd09084611dc1565b600d55505050565b600080546001600160a01b031633146110035760405162461bcd60e51b8152600401610ce99061338e565b61100d3383611e28565b5060015b919050565b6000546001600160a01b031633146110405760405162461bcd60e51b8152600401610ce99061338e565b6001600160a01b03166000908152600860205260409020805460ff19166001179055565b6000600b548311156110b85760405162461bcd60e51b815260206004820152601c60248201527f416d74206d757374206265206c657373207468616e20737570706c79000000006044820152606401610ce9565b816110d75760006110c884611dcd565b50939550610c2a945050505050565b60006110e284611dcd565b50929550610c2a945050505050565b6000546001600160a01b0316331461111b5760405162461bcd60e51b8152600401610ce99061338e565b6001600160a01b03811660009081526009602052604090205460ff166111fb576001600160a01b03811660009081526005602052604090205415611195576001600160a01b03811660009081526005602052604090205461117b90610c99565b6001600160a01b0382166000908152600660205260409020555b6001600160a01b0381166000818152600960205260408120805460ff19166001908117909155600a805491820181559091527fc65a7bb8d6351c1cf70c95a316cc6a92839c986682d98bc35f958f4883f9d2a80180546001600160a01b03191690911790555b50565b6001600160a01b03811660009081526009602052604081205460ff161561123b57506001600160a01b031660009081526006602052604090205490565b6001600160a01b038216600090815260056020526040902054610c2a90610c99565b6000546001600160a01b031633146112875760405162461bcd60e51b8152600401610ce99061338e565b600080546040516001600160a01b03909116907f8be0079c531659141344cd1fd0a4f28419497f9722a3daafe3b4186f6b6457e0908390a3600080546001600160a01b0319169055565b6000546001600160a01b031633146112fb5760405162461bcd60e51b8152600401610ce99061338e565b60105461130c9060ff16600a613525565b6113169082613534565b60135550565b6000546001600160a01b031633146113465760405162461bcd60e51b8152600401610ce99061338e565b6001600160a01b03811661138b5760405162461bcd60e51b815260206004820152600c60248201526b5a45524f204144445245535360a01b6044820152606401610ce9565b611394816110f1565b601080546001600160a01b03909216600160581b027fff0000000000000000000000000000000000000000ffffffffffffffffffffff909216919091179055565b6060600f8054610b9690613354565b600080546001600160a01b0316331461140f5760405162461bcd60e51b8152600401610ce99061338e565b61100d3383611f3a565b6000610c263384610c8a8560405180606001604052806025815260200161372d602591393360009081526007602090815260408083206001600160a01b038d1684529091529020549190611d72565b6000610c26338484611b14565b606060028054610b9690613354565b600f805461149190613354565b80601f01602080910402602001604051908101604052809291908181526020018280546114bd90613354565b801561150a5780601f106114df5761010080835404028352916020019161150a565b820191906000526020600020905b8154815290600101906020018083116114ed57829003601f168201915b505050505081565b6000546001600160a01b0316331461153c5760405162461bcd60e51b8152600401610ce99061338e565b306001600160a01b038316036115845760405162461bcd60e51b815260206004820152600d60248201526c53656c6620776974686472617760981b6044820152606401610ce9565b816001600160a01b031663a9059cbb6115a56000546001600160a01b031690565b6040516001600160e01b031960e084901b1681526001600160a01b039091166004820152602481018490526044016020604051808303816000875af11580156115f2573d6000803e3d6000fd5b505050506040513d601f19601f82011682018060405250810190611616919061354b565b505050565b6000546001600160a01b031633146116455760405162461bcd60e51b8152600401610ce99061338e565b6011805460ff19168215159081179091556040519081527f53726dfcaf90650aa7eb35524f4d3220f07413c8d6cb404cc8c18bf5591bc1599060200160405180910390a150565b600e805461149190613354565b6000546001600160a01b031633146116c35760405162461bcd60e51b8152600401610ce99061338e565b6001600160a01b03166000908152600860205260409020805460ff19169055565b6000546001600160a01b0316331461170e5760405162461bcd60e51b8152600401610ce99061338e565b6001600160a01b0381166117785760405162461bcd60e51b815260206004820152602b60248201527f45524332304f776e61626c653a206e6577206f776e657220697320746865207a60448201526a65726f206164647265737360a81b6064820152608401610ce9565b600080546040516001600160a01b03808516939216917f8be0079c531659141344cd1fd0a4f28419497f9722a3daafe3b4186f6b6457e091a3600080546001600160a01b0319166001600160a01b0392909216919091179055565b6000546001600160a01b031633146117fd5760405162461bcd60e51b8152600401610ce99061338e565b60045460ff600160a81b909104811690861611156118485760405162461bcd60e51b81526020600482015260086024820152672a231032b93937b960c11b6044820152606401610ce9565b60045460ff600160a01b909104811690851611156118935760405162461bcd60e51b815260206004820152600860248201526726231032b93937b960c11b6044820152606401610ce9565b60045460ff600160b01b909104811690841611156118de5760405162461bcd60e51b815260206004820152600860248201526721231032b93937b960c11b6044820152606401610ce9565b60045460ff600160b81b909104811690831611156119295760405162461bcd60e51b81526020600482015260086024820152672ba31032b93937b960c11b6044820152606401610ce9565b60045460ff600160c01b909104811690821611156119755760405162461bcd60e51b81526020600482015260096024820152682121231032b93937b960b91b6044820152606401610ce9565b6010805463ff00ff00191661010060ff9788160263ff0000001916176301000000958716959095029490941769ff000000ff00000000001916600160281b9386169390930260ff60481b191692909217600160481b928516929092029190911760ff60381b1916600160381b9190931602919091179055565b6000610d088284613534565b6000610d088284613568565b6001600160a01b038316611a5c5760405162461bcd60e51b815260206004820181905260248201527f45524332303a20617070726f76652066726f6d207a65726f20616464726573736044820152606401610ce9565b6001600160a01b038216611ab25760405162461bcd60e51b815260206004820152601e60248201527f45524332303a20617070726f766520746f207a65726f206164647265737300006044820152606401610ce9565b6001600160a01b0383811660008181526007602090815260408083209487168084529482529182902085905590518481527f8c5be1e5ebec7d5bd14f71427d1e84f3dd0314c0f7b2291e5b200ac8c7c3b92591015b60405180910390a3505050565b6001600160a01b038316611b745760405162461bcd60e51b815260206004820152602160248201527f45524332303a207472616e736665722066726f6d207a65726f206164647265736044820152607360f81b6064820152608401610ce9565b6001600160a01b038216611bca5760405162461bcd60e51b815260206004820152601f60248201527f45524332303a207472616e7366657220746f207a65726f2061646472657373006044820152606401610ce9565b60008111611c2c5760405162461bcd60e51b815260206004820152602960248201527f5472616e7366657220616d6f756e74206d7573742062652067726561746572206044820152687468616e207a65726f60b81b6064820152608401610ce9565b6000611c37306111fe565b601054909150600160f81b900460ff16158015611c8557507f00000000000000000000000000000000000000000000000000000000000000006001600160a01b0316836001600160a01b0316145b8015611c93575060115460ff165b15611d14576012548110611cae5750601254611cae81612023565b601054600160481b900460ff1615611d14576010544790611cd39060ff16600a613525565b611cde906001613534565b811115611d1257601354811115611cf457506013545b611d12611d0d6064611d078460326119ee565b906119fa565b612248565b505b6001600160a01b03841660009081526008602052604090205460019060ff1680611d5657506001600160a01b03841660009081526008602052604090205460ff165b15611d5f575060005b611d6b8585858461227e565b5050505050565b60008184841115611d965760405162461bcd60e51b8152600401610ce9919061314f565b505050900390565b6000806000611dab61249f565b9092509050611dba82826119fa565b9250505090565b6000610d08828461358a565b6000806000806000806000806000611de48a612621565b9250925092506000806000611e028d8686611dfd611d9e565b612663565b919f909e50909c50959a5093985091965092945050505050565b6000610d0882846133ff565b6001600160a01b038216611e885760405162461bcd60e51b815260206004820152602160248201527f42455032303a206275726e2066726f6d20746865207a65726f206164647265736044820152607360f81b6064820152608401610ce9565b601054600090611e9c9060ff16600a61359d565b611ea69083613534565b9050611ee58160405180606001604052806022815260200161370b602291396001600160a01b0386166000908152600660205260409020549190611d72565b6001600160a01b038416600090815260066020526040902055600b54611f0b9082611e1c565b600b556040518181526000906001600160a01b038516906000805160206136eb83398151915290602001611b07565b6001600160a01b038216611f905760405162461bcd60e51b815260206004820152601f60248201527f42455032303a206d696e7420746f20746865207a65726f2061646472657373006044820152606401610ce9565b601054600090611fa49060ff16600a61359d565b611fae9083613534565b600b54909150611fbe9082611dc1565b600b556001600160a01b038316600090815260066020526040902054611fe49082611dc1565b6001600160a01b0384166000818152600660205260408082209390935591519091906000805160206136eb83398151915290611b079085815260200190565b601080546001600160f81b0316600160f81b1790819055600090600160481b810460ff908116916301000000810482169161207091600160381b8104821691600160281b909104166135a9565b61207a91906135a9565b61208491906135a9565b6010549091506000908190600160281b900460ff16156120e3576010546120c59060ff600160281b9091048116906120bf90879087166119fa565b906119ee565b6003549092506120e09030906001600160a01b0316846126b3565b50805b601054600160381b900460ff1615612145576010546121169060ff600160381b9091048116906120bf90879087166119fa565b9150612138306010600b9054906101000a90046001600160a01b0316846126b3565b612142828261358a565b90505b601054600160481b900460ff1615612190576010546121789060ff600160481b9091048116906120bf90879087166119fa565b915061218382612807565b61218d828261358a565b90505b6010546301000000900460ff1615612233576121ac8482611e1c565b935060006121bb8560026119fa565b905060006121c98683611e1c565b9050476121d583612807565b60006121e14783611e1c565b90506121ed83826129d2565b60408051858152602081018390529081018490527f17bbfb9a6069321b6ded73bd96327c9e6b7212a5cd51ff219cd61370acafb5619060600160405180910390a1505050505b5050601080546001600160f81b031690555050565b601080546001600160f81b0316600160f81b179055801561226c5761226c81612adc565b50601080546001600160f81b03169055565b8061228b5761228b612c72565b6001600160a01b03841660009081526009602052604090205460ff1680156122cc57506001600160a01b03831660009081526009602052604090205460ff16155b156122e1576122dc848484612dae565b6123df565b6001600160a01b03841660009081526009602052604090205460ff1615801561232257506001600160a01b03831660009081526009602052604090205460ff165b15612332576122dc848484612ec2565b6001600160a01b03841660009081526009602052604090205460ff1615801561237457506001600160a01b03831660009081526009602052604090205460ff16155b15612384576122dc848484612f6b565b6001600160a01b03841660009081526009602052604090205460ff1680156123c457506001600160a01b03831660009081526009602052604090205460ff165b156123d4576122dc848484612faf565b6123df848484612f6b565b80612499576010805460ff60481b1967ff00ff00000000001963ff00ff0019831663ff0000001961010062010000860460ff908116919091029182169290921764010000000061ff00199096169091179490940481166301000000029390931790811660ff60381b19660100000000000083048516600160281b0290811691909117600160401b65ff000000000019909316909117919091048316600160381b0217908116600160501b909104909116600160481b021790555b50505050565b600c54600b546000918291825b600a548110156125f1578260056000600a84815481106124ce576124ce6133d3565b60009182526020808320909101546001600160a01b03168352820192909252604001902054118061253957508160066000600a8481548110612512576125126133d3565b60009182526020808320909101546001600160a01b03168352820192909252604001902054115b1561254f57600c54600b54945094505050509091565b61259560056000600a8481548110612569576125696133d3565b60009182526020808320909101546001600160a01b031683528201929092526040019020548490611e1c565b92506125dd60066000600a84815481106125b1576125b16133d3565b60009182526020808320909101546001600160a01b031683528201929092526040019020548390611e1c565b9150806125e981613428565b9150506124ac565b50600b54600c54612601916119fa565b82101561261857600c54600b549350935050509091565b90939092509050565b60008060008061263085613022565b9050600061263d86613042565b905060006126558261264f8986611e1c565b90611e1c565b979296509094509092505050565b600080808061267288866119ee565b9050600061268088876119ee565b9050600061268e88886119ee565b905060006126a08261264f8686611e1c565b939b939a50919850919650505050505050565b6001600160a01b0383166000908152600560205260409020546126d69082611e1c565b6001600160a01b0380851660009081526005602052604080822093909355908416815220546127059082611dc1565b6001600160a01b0380841660009081526005602090815260408083209490945591861681526009909152205460ff1615612776576001600160a01b03831660009081526006602052604090205461275c9082611e1c565b6001600160a01b0384166000908152600660205260409020555b6001600160a01b03821660009081526009602052604090205460ff16156127d4576001600160a01b0382166000908152600660205260409020546127ba9082611dc1565b6001600160a01b0383166000908152600660205260409020555b816001600160a01b0316836001600160a01b03166000805160206136eb83398151915283604051611b0791815260200190565b604080516002808252606082018352600092602083019080368337019050509050308160008151811061283c5761283c6133d3565b60200260200101906001600160a01b031690816001600160a01b0316815250507f00000000000000000000000000000000000000000000000000000000000000006001600160a01b031663ad5c46486040518163ffffffff1660e01b8152600401602060405180830381865afa1580156128ba573d6000803e3d6000fd5b505050506040513d601f19601f820116820180604052508101906128de91906135c2565b816001815181106128f1576128f16133d3565b60200260200101906001600160a01b031690816001600160a01b03168152505061293c307f000000000000000000000000000000000000000000000000000000000000000084611a06565b6001600160a01b037f00000000000000000000000000000000000000000000000000000000000000001663791ac947836000843061297c4261012c611dc1565b6040518663ffffffff1660e01b815260040161299c959493929190613623565b600060405180830381600087803b1580156129b657600080fd5b505af11580156129ca573d6000803e3d6000fd5b505050505050565b6129fd307f000000000000000000000000000000000000000000000000000000000000000084611a06565b6003546001600160a01b037f000000000000000000000000000000000000000000000000000000000000000081169163f305d71991849130918791600091829116612a4a4261012c611dc1565b60405160e089901b6001600160e01b03191681526001600160a01b039687166004820152602481019590955260448501939093526064840191909152909216608482015260a481019190915260c40160606040518083038185885af1158015612ab7573d6000803e3d6000fd5b50505050506040513d601f19601f82011682018060405250810190611d6b919061365f565b6040805160028082526060820183526000926020830190803683370190505090507f00000000000000000000000000000000000000000000000000000000000000006001600160a01b031663ad5c46486040518163ffffffff1660e01b8152600401602060405180830381865afa158015612b5b573d6000803e3d6000fd5b505050506040513d601f19601f82011682018060405250810190612b7f91906135c2565b81600081518110612b9257612b926133d3565b60200260200101906001600160a01b031690816001600160a01b0316815250503081600181518110612bc657612bc66133d3565b6001600160a01b0392831660209182029290920101526003547f000000000000000000000000000000000000000000000000000000000000000082169163b6f9de95918591600091869116612c1d4261012c611dc1565b6040518663ffffffff1660e01b8152600401612c3c949392919061368d565b6000604051808303818588803b158015612c5557600080fd5b505af1158015612c69573d6000803e3d6000fd5b50505050505050565b601054610100900460ff16158015612c9457506010546301000000900460ff16155b8015612caa5750601054600160281b900460ff16155b8015612cc05750601054600160381b900460ff16155b8015612cd65750601054600160481b900460ff16155b15612cdd57565b601080546affff00ff00ff00ff00ff001968ff00ff0000000000001964ff00ff000019831664ff0000000019610100850460ff908116620100000291821692909217630100000062ff000019909616909117949094048116640100000000029390931790811668ff000000000000000019600160281b8304851666010000000000000290811691909117600160381b66ff00000000000019909316909117919091048316600160401b0217908116600160481b909104909116600160501b0269ff00ff00ff00ff00ff001916179055565b600080600080600080612dc087611dcd565b6001600160a01b038f16600090815260066020526040902054959b50939950919750955093509150612df29088611e1c565b6001600160a01b038a16600090815260066020908152604080832093909355600590522054612e219087611e1c565b6001600160a01b03808b1660009081526005602052604080822093909355908a1681522054612e509086611dc1565b6001600160a01b038916600090815260056020526040902055612e72816130a3565b612e7c848361312b565b876001600160a01b0316896001600160a01b03166000805160206136eb83398151915285604051612eaf91815260200190565b60405180910390a3505050505050505050565b600080600080600080612ed487611dcd565b6001600160a01b038f16600090815260056020526040902054959b50939950919750955093509150612f069087611e1c565b6001600160a01b03808b16600090815260056020908152604080832094909455918b16815260069091522054612f3c9084611dc1565b6001600160a01b038916600090815260066020908152604080832093909355600590522054612e509086611dc1565b600080600080600080612f7d87611dcd565b6001600160a01b038f16600090815260056020526040902054959b50939950919750955093509150612e219087611e1c565b600080600080600080612fc187611dcd565b6001600160a01b038f16600090815260066020526040902054959b50939950919750955093509150612ff39088611e1c565b6001600160a01b038a16600090815260066020908152604080832093909355600590522054612f069087611e1c565b601054600090610c2a90606490611d07908590610100900460ff166119ee565b601054600090610c2a90606490611d079060ff600160481b8204811691600160381b810482169161308591600160281b81048216916301000000909104166135a9565b61308f91906135a9565b61309991906135a9565b859060ff166119ee565b60006130ad611d9e565b905060006130bb83836119ee565b306000908152600560205260409020549091506130d89082611dc1565b3060009081526005602090815260408083209390935560099052205460ff161561161657306000908152600660205260409020546131169084611dc1565b30600090815260066020526040902055505050565b600c546131389083611e1c565b600c55600d546131489082611dc1565b600d555050565b600060208083528351808285015260005b8181101561317c57858101830151858201604001528201613160565b506000604082860101526040601f19601f8301168501019250505092915050565b6001600160a01b03811681146111fb57600080fd5b600080604083850312156131c557600080fd5b82356131d08161319d565b946020939093013593505050565b6000806000606084860312156131f357600080fd5b83356131fe8161319d565b9250602084013561320e8161319d565b929592945050506040919091013590565b60006020828403121561323157600080fd5b5035919050565b60006020828403121561324a57600080fd5b8135610d088161319d565b80151581146111fb57600080fd5b6000806040838503121561327657600080fd5b82359150602083013561328881613255565b809150509250929050565b6000602082840312156132a557600080fd5b8135610d0881613255565b600080604083850312156132c357600080fd5b82356132ce8161319d565b915060208301356132888161319d565b803560ff8116811461101157600080fd5b600080600080600060a0868803121561330757600080fd5b613310866132de565b945061331e602087016132de565b935061332c604087016132de565b925061333a606087016132de565b9150613348608087016132de565b90509295509295909350565b600181811c9082168061336857607f821691505b60208210810361338857634e487b7160e01b600052602260045260246000fd5b50919050565b60208082526025908201527f45524332304f776e61626c653a2063616c6c6572206973206e6f74207468652060408201526437bbb732b960d91b606082015260800190565b634e487b7160e01b600052603260045260246000fd5b634e487b7160e01b600052601160045260246000fd5b81810381811115610c2a57610c2a6133e9565b634e487b7160e01b600052603160045260246000fd5b60006001820161343a5761343a6133e9565b5060010190565b600181815b8085111561347c578160001904821115613462576134626133e9565b8085161561346f57918102915b93841c9390800290613446565b509250929050565b60008261349357506001610c2a565b816134a057506000610c2a565b81600181146134b657600281146134c0576134dc565b6001915050610c2a565b60ff8411156134d1576134d16133e9565b50506001821b610c2a565b5060208310610133831016604e8410600b84101617156134ff575081810a610c2a565b6135098383613441565b806000190482111561351d5761351d6133e9565b029392505050565b6000610d0860ff841683613484565b8082028115828204841417610c2a57610c2a6133e9565b60006020828403121561355d57600080fd5b8151610d0881613255565b60008261358557634e487b7160e01b600052601260045260246000fd5b500490565b80820180821115610c2a57610c2a6133e9565b6000610d088383613484565b60ff8181168382160190811115610c2a57610c2a6133e9565b6000602082840312156135d457600080fd5b8151610d088161319d565b600081518084526020808501945080840160005b838110156136185781516001600160a01b0316875295820195908201906001016135f3565b509495945050505050565b85815284602082015260a06040820152600061364260a08301866135df565b6001600160a01b0394909416606083015250608001529392505050565b60008060006060848603121561367457600080fd5b8351925060208401519150604084015190509250925092565b8481526080602082015260006136a660808301866135df565b6001600160a01b0394909416604083015250606001529291505056fe45524332303a207472616e7366657220616d6f756e74206578636565647320616c6c6f77616e6365ddf252ad1be2c89b69c2b068fc378daa952ba7f163c4a11628f55a4df523b3ef42455032303a206275726e20616d6f756e7420657863656564732062616c616e636545524332303a2064656372656173656420616c6c6f77616e63652062656c6f77207a65726fa26469706673582212200e07d8040a08df0fe33968b8cb57eec06fb0a380a858dd3e2b938f83a501091564736f6c63430008120033",
			"opcodes": "PUSH1 0xC0 PUSH1 0x40 DUP2 SWAP1 MSTORE PUSH1 0x3 DUP1 SLOAD PUSH2 0xDEAD PUSH1 0x1 PUSH1 0x1 PUSH1 0xA0 SHL SUB NOT SWAP1 SWAP2 AND OR SWAP1 SSTORE PUSH1 0x4 DUP1 SLOAD PUSH1 0x1 PUSH1 0x1 PUSH1 0xD8 SHL SUB NOT AND PUSH6 0x808505050505 PUSH1 0xA1 SHL OR SWAP1 SSTORE PUSH1 0x10 DUP1 SLOAD PUSH4 0xFFFFFFFF PUSH1 0x38 SHL NOT PUSH7 0xFFFFFFFF000000 NOT PUSH3 0xFFFFFF NOT DUP4 AND PUSH1 0xFF PUSH2 0x100 PUSH1 0x12 PUSH2 0xFFFF NOT SWAP1 SWAP7 AND DUP7 OR DIV DUP2 AND PUSH3 0x10000 MUL SWAP2 SWAP1 SWAP2 OR SWAP1 SWAP4 OR SWAP1 DUP2 AND PUSH2 0xFFFF PUSH1 0x28 SHL NOT PUSH4 0x1000000 PUSH4 0xFF000000 NOT DUP5 AND DIV DUP6 AND PUSH5 0x100000000 MUL SWAP1 DUP2 AND SWAP2 SWAP1 SWAP2 OR PUSH6 0x10000000000 PUSH6 0xFFFFFF000000 NOT SWAP1 SWAP4 AND PUSH1 0xFF PUSH1 0x28 SHL NOT SWAP3 SWAP1 SWAP3 AND SWAP2 SWAP1 SWAP2 OR SWAP2 SWAP1 SWAP2 DIV DUP4 AND PUSH7 0x1000000000000 MUL OR SWAP1 DUP2 AND PUSH2 0xFFFF PUSH1 0x48 SHL NOT PUSH8 0x100000000000000 PUSH1 0xFF PUSH1 0x38 SHL NOT DUP5 AND DIV DUP5 AND PUSH9 0x10000000000000000 MUL SWAP1 DUP2 AND SWAP2 SWAP1 SWAP2 OR PUSH10 0x1000000000000000000 PUSH3 0xFFFFFF PUSH1 0x38 SHL NOT SWAP1 SWAP4 AND PUSH1 0xFF PUSH1 0x48 SHL NOT SWAP3 SWAP1 SWAP3 AND SWAP2 SWAP1 SWAP2 OR SWAP2 SWAP1 SWAP2 DIV SWAP1 SWAP2 AND PUSH11 0x100000000000000000000 MUL OR SWAP1 SSTORE PUSH1 0x11 DUP1 SLOAD PUSH1 0xFF NOT AND PUSH1 0x1 OR SWAP1 SSTORE PUSH8 0xDE0B6B3A7640000 PUSH1 0x13 SSTORE PUSH3 0x430B CODESIZE DUP2 SWAP1 SUB SWAP1 DUP2 SWAP1 DUP4 CODECOPY DUP2 ADD PUSH1 0x40 DUP2 SWAP1 MSTORE PUSH3 0x16E SWAP2 PUSH3 0x705 JUMP JUMPDEST PUSH1 0x40 DUP1 MLOAD DUP1 DUP3 ADD DUP3 MSTORE PUSH1 0xB DUP2 MSTORE PUSH11 0x1512951BDAD95B97D51291 PUSH1 0xAA SHL PUSH1 0x20 DUP3 ADD MSTORE PUSH1 0x0 DUP1 SLOAD PUSH1 0x1 PUSH1 0x1 PUSH1 0xA0 SHL SUB NOT AND CALLER SWAP1 DUP2 OR DUP3 SSTORE SWAP3 MLOAD SWAP2 SWAP3 DUP15 SWAP3 SWAP1 SWAP2 DUP3 SWAP2 PUSH32 0x8BE0079C531659141344CD1FD0A4F28419497F9722A3DAAFE3B4186F6B6457E0 SWAP1 DUP3 SWAP1 LOG3 POP PUSH1 0x1 DUP1 SLOAD PUSH1 0x1 PUSH1 0x1 PUSH1 0xA0 SHL SUB NOT AND PUSH1 0x1 PUSH1 0x1 PUSH1 0xA0 SHL SUB DUP4 AND OR SWAP1 SSTORE PUSH1 0x2 PUSH3 0x1FC DUP4 DUP3 PUSH3 0x8A7 JUMP JUMPDEST POP PUSH1 0x40 MLOAD PUSH1 0x1 PUSH1 0x1 PUSH1 0xA0 SHL SUB DUP3 AND SWAP1 CALLVALUE DUP1 ISZERO PUSH2 0x8FC MUL SWAP2 PUSH1 0x0 DUP2 DUP2 DUP2 DUP6 DUP9 DUP9 CALL SWAP4 POP POP POP POP ISZERO DUP1 ISZERO PUSH3 0x233 JUMPI RETURNDATASIZE PUSH1 0x0 DUP1 RETURNDATACOPY RETURNDATASIZE PUSH1 0x0 REVERT JUMPDEST POP PUSH1 0xE SWAP2 POP PUSH3 0x246 SWAP1 POP DUP12 DUP3 PUSH3 0x8A7 JUMP JUMPDEST POP PUSH1 0xF PUSH3 0x255 DUP11 DUP3 PUSH3 0x8A7 JUMP JUMPDEST POP PUSH1 0x10 DUP1 SLOAD PUSH1 0xFF NOT AND PUSH1 0xFF DUP11 AND SWAP1 DUP2 OR SWAP1 SWAP2 SSTORE PUSH3 0x275 SWAP1 PUSH1 0xA PUSH3 0xA86 JUMP JUMPDEST PUSH3 0x281 SWAP1 DUP9 PUSH3 0xA94 JUMP JUMPDEST PUSH1 0xB DUP2 SWAP1 SSTORE PUSH3 0x294 SWAP1 PUSH1 0x0 NOT PUSH3 0xAC4 JUMP JUMPDEST PUSH3 0x2A2 SWAP1 PUSH1 0x0 NOT PUSH3 0xADB JUMP JUMPDEST PUSH1 0xC SSTORE PUSH1 0xB SLOAD CALLER PUSH1 0x0 SWAP1 DUP2 MSTORE PUSH1 0x6 PUSH1 0x20 SWAP1 DUP2 MSTORE PUSH1 0x40 SWAP1 SWAP2 KECCAK256 SWAP2 SWAP1 SWAP2 SSTORE PUSH3 0x2F4 SWAP1 PUSH2 0x2710 SWAP1 PUSH3 0x2E0 SWAP1 DUP11 SWAP1 PUSH1 0x1 SWAP1 PUSH3 0x19EE PUSH3 0x5EC DUP3 SHL OR SWAP1 SHR JUMP JUMPDEST PUSH3 0x603 PUSH1 0x20 SHL PUSH3 0x19FA OR SWAP1 SWAP2 SWAP1 PUSH1 0x20 SHR JUMP JUMPDEST PUSH1 0x13 SSTORE PUSH1 0xC SLOAD CALLER PUSH1 0x0 DUP2 DUP2 MSTORE PUSH1 0x5 PUSH1 0x20 SWAP1 DUP2 MSTORE PUSH1 0x40 SWAP1 SWAP2 KECCAK256 SWAP3 SWAP1 SWAP3 SSTORE PUSH1 0x10 DUP1 SLOAD PUSH1 0x1 PUSH1 0x58 SHL PUSH1 0x1 PUSH1 0xF8 SHL SUB NOT AND PUSH12 0x10000000000000000000000 SWAP1 SWAP3 MUL SWAP2 SWAP1 SWAP2 OR SWAP1 SSTORE PUSH3 0x359 SWAP1 PUSH2 0x3E8 SWAP1 PUSH3 0x2E0 SWAP1 DUP11 SWAP1 PUSH1 0x1 SWAP1 PUSH3 0x5EC DUP2 SHL PUSH3 0x19EE OR SWAP1 SHR JUMP JUMPDEST PUSH1 0x12 DUP2 SWAP1 SSTORE POP PUSH1 0x0 DUP7 SWAP1 POP DUP1 PUSH1 0x1 PUSH1 0x1 PUSH1 0xA0 SHL SUB AND PUSH4 0xC45A0155 PUSH1 0x40 MLOAD DUP2 PUSH4 0xFFFFFFFF AND PUSH1 0xE0 SHL DUP2 MSTORE PUSH1 0x4 ADD PUSH1 0x20 PUSH1 0x40 MLOAD DUP1 DUP4 SUB DUP2 DUP7 GAS STATICCALL ISZERO DUP1 ISZERO PUSH3 0x3A3 JUMPI RETURNDATASIZE PUSH1 0x0 DUP1 RETURNDATACOPY RETURNDATASIZE PUSH1 0x0 REVERT JUMPDEST POP POP POP POP PUSH1 0x40 MLOAD RETURNDATASIZE PUSH1 0x1F NOT PUSH1 0x1F DUP3 ADD AND DUP3 ADD DUP1 PUSH1 0x40 MSTORE POP DUP2 ADD SWAP1 PUSH3 0x3C9 SWAP2 SWAP1 PUSH3 0xAF1 JUMP JUMPDEST PUSH1 0x1 PUSH1 0x1 PUSH1 0xA0 SHL SUB AND PUSH4 0xC9C65396 ADDRESS DUP4 PUSH1 0x1 PUSH1 0x1 PUSH1 0xA0 SHL SUB AND PUSH4 0xAD5C4648 PUSH1 0x40 MLOAD DUP2 PUSH4 0xFFFFFFFF AND PUSH1 0xE0 SHL DUP2 MSTORE PUSH1 0x4 ADD PUSH1 0x20 PUSH1 0x40 MLOAD DUP1 DUP4 SUB DUP2 DUP7 GAS STATICCALL ISZERO DUP1 ISZERO PUSH3 0x417 JUMPI RETURNDATASIZE PUSH1 0x0 DUP1 RETURNDATACOPY RETURNDATASIZE PUSH1 0x0 REVERT JUMPDEST POP POP POP POP PUSH1 0x40 MLOAD RETURNDATASIZE PUSH1 0x1F NOT PUSH1 0x1F DUP3 ADD AND DUP3 ADD DUP1 PUSH1 0x40 MSTORE POP DUP2 ADD SWAP1 PUSH3 0x43D SWAP2 SWAP1 PUSH3 0xAF1 JUMP JUMPDEST PUSH1 0x40 MLOAD PUSH1 0x1 PUSH1 0x1 PUSH1 0xE0 SHL SUB NOT PUSH1 0xE0 DUP6 SWAP1 SHL AND DUP2 MSTORE PUSH1 0x1 PUSH1 0x1 PUSH1 0xA0 SHL SUB SWAP3 DUP4 AND PUSH1 0x4 DUP3 ADD MSTORE SWAP2 AND PUSH1 0x24 DUP3 ADD MSTORE PUSH1 0x44 ADD PUSH1 0x20 PUSH1 0x40 MLOAD DUP1 DUP4 SUB DUP2 PUSH1 0x0 DUP8 GAS CALL ISZERO DUP1 ISZERO PUSH3 0x48B JUMPI RETURNDATASIZE PUSH1 0x0 DUP1 RETURNDATACOPY RETURNDATASIZE PUSH1 0x0 REVERT JUMPDEST POP POP POP POP PUSH1 0x40 MLOAD RETURNDATASIZE PUSH1 0x1F NOT PUSH1 0x1F DUP3 ADD AND DUP3 ADD DUP1 PUSH1 0x40 MSTORE POP DUP2 ADD SWAP1 PUSH3 0x4B1 SWAP2 SWAP1 PUSH3 0xAF1 JUMP JUMPDEST PUSH1 0x1 PUSH1 0x1 PUSH1 0xA0 SHL SUB SWAP1 DUP2 AND PUSH1 0xA0 MSTORE DUP2 AND PUSH1 0x80 MSTORE PUSH1 0x1 PUSH1 0x8 PUSH1 0x0 CALLER PUSH1 0x1 PUSH1 0x1 PUSH1 0xA0 SHL SUB AND DUP2 MSTORE PUSH1 0x20 DUP1 DUP3 ADD SWAP3 SWAP1 SWAP3 MSTORE PUSH1 0x40 SWAP1 DUP2 ADD PUSH1 0x0 SWAP1 DUP2 KECCAK256 DUP1 SLOAD PUSH1 0xFF NOT SWAP1 DUP2 AND SWAP6 ISZERO ISZERO SWAP6 SWAP1 SWAP6 OR SWAP1 SSTORE ADDRESS DUP2 MSTORE PUSH1 0x8 SWAP1 SWAP3 MSTORE SWAP1 KECCAK256 DUP1 SLOAD SWAP1 SWAP2 AND PUSH1 0x1 OR SWAP1 SSTORE PUSH1 0x10 DUP1 SLOAD PUSH4 0xFF00FF00 NOT AND PUSH2 0x100 PUSH1 0xFF DUP10 DUP2 AND SWAP2 SWAP1 SWAP2 MUL PUSH4 0xFF000000 NOT AND SWAP2 SWAP1 SWAP2 OR PUSH4 0x1000000 DUP7 DUP4 AND MUL OR PUSH5 0xFF000000FF PUSH1 0x28 SHL NOT AND PUSH6 0x10000000000 DUP8 DUP4 AND MUL PUSH1 0xFF PUSH1 0x48 SHL NOT AND OR PUSH10 0x1000000000000000000 DUP6 DUP4 AND MUL OR PUSH1 0xFF PUSH1 0x38 SHL NOT AND PUSH8 0x100000000000000 SWAP2 DUP9 AND SWAP2 SWAP1 SWAP2 MUL OR SWAP1 SSTORE PUSH3 0x58A CALLER SWAP1 JUMP JUMPDEST PUSH1 0x1 PUSH1 0x1 PUSH1 0xA0 SHL SUB AND PUSH1 0x0 PUSH1 0x1 PUSH1 0x1 PUSH1 0xA0 SHL SUB AND PUSH32 0xDDF252AD1BE2C89B69C2B068FC378DAA952BA7F163C4A11628F55A4DF523B3EF PUSH1 0xB SLOAD PUSH1 0x40 MLOAD PUSH3 0x5D2 SWAP2 DUP2 MSTORE PUSH1 0x20 ADD SWAP1 JUMP JUMPDEST PUSH1 0x40 MLOAD DUP1 SWAP2 SUB SWAP1 LOG3 POP POP POP POP POP POP POP POP POP POP POP POP PUSH3 0xB26 JUMP JUMPDEST PUSH1 0x0 PUSH3 0x5FA DUP3 DUP5 PUSH3 0xA94 JUMP JUMPDEST SWAP1 POP JUMPDEST SWAP3 SWAP2 POP POP JUMP JUMPDEST PUSH1 0x0 PUSH3 0x5FA DUP3 DUP5 PUSH3 0xB0F JUMP JUMPDEST DUP1 MLOAD PUSH1 0x1 PUSH1 0x1 PUSH1 0xA0 SHL SUB DUP2 AND DUP2 EQ PUSH3 0x629 JUMPI PUSH1 0x0 DUP1 REVERT JUMPDEST SWAP2 SWAP1 POP JUMP JUMPDEST PUSH4 0x4E487B71 PUSH1 0xE0 SHL PUSH1 0x0 MSTORE PUSH1 0x41 PUSH1 0x4 MSTORE PUSH1 0x24 PUSH1 0x0 REVERT JUMPDEST PUSH1 0x0 DUP3 PUSH1 0x1F DUP4 ADD SLT PUSH3 0x656 JUMPI PUSH1 0x0 DUP1 REVERT JUMPDEST DUP2 MLOAD PUSH1 0x1 PUSH1 0x1 PUSH1 0x40 SHL SUB DUP1 DUP3 GT ISZERO PUSH3 0x673 JUMPI PUSH3 0x673 PUSH3 0x62E JUMP JUMPDEST PUSH1 0x40 MLOAD PUSH1 0x1F DUP4 ADD PUSH1 0x1F NOT SWAP1 DUP2 AND PUSH1 0x3F ADD AND DUP2 ADD SWAP1 DUP3 DUP3 GT DUP2 DUP4 LT OR ISZERO PUSH3 0x69E JUMPI PUSH3 0x69E PUSH3 0x62E JUMP JUMPDEST DUP2 PUSH1 0x40 MSTORE DUP4 DUP2 MSTORE PUSH1 0x20 SWAP3 POP DUP7 DUP4 DUP6 DUP9 ADD ADD GT ISZERO PUSH3 0x6BB JUMPI PUSH1 0x0 DUP1 REVERT JUMPDEST PUSH1 0x0 SWAP2 POP JUMPDEST DUP4 DUP3 LT ISZERO PUSH3 0x6DF JUMPI DUP6 DUP3 ADD DUP4 ADD MLOAD DUP2 DUP4 ADD DUP5 ADD MSTORE SWAP1 DUP3 ADD SWAP1 PUSH3 0x6C0 JUMP JUMPDEST PUSH1 0x0 SWAP4 DUP2 ADD SWAP1 SWAP3 ADD SWAP3 SWAP1 SWAP3 MSTORE SWAP5 SWAP4 POP POP POP POP JUMP JUMPDEST DUP1 MLOAD PUSH1 0xFF DUP2 AND DUP2 EQ PUSH3 0x629 JUMPI PUSH1 0x0 DUP1 REVERT JUMPDEST PUSH1 0x0 DUP1 PUSH1 0x0 DUP1 PUSH1 0x0 DUP1 PUSH1 0x0 DUP1 PUSH1 0x0 DUP1 PUSH1 0x0 PUSH2 0x160 DUP13 DUP15 SUB SLT ISZERO PUSH3 0x728 JUMPI PUSH1 0x0 DUP1 REVERT JUMPDEST PUSH3 0x733 DUP13 PUSH3 0x611 JUMP JUMPDEST PUSH1 0x20 DUP14 ADD MLOAD SWAP1 SWAP12 POP PUSH1 0x1 PUSH1 0x1 PUSH1 0x40 SHL SUB DUP2 GT ISZERO PUSH3 0x750 JUMPI PUSH1 0x0 DUP1 REVERT JUMPDEST PUSH3 0x75E DUP15 DUP3 DUP16 ADD PUSH3 0x644 JUMP JUMPDEST PUSH1 0x40 DUP15 ADD MLOAD SWAP1 SWAP12 POP SWAP1 POP PUSH1 0x1 PUSH1 0x1 PUSH1 0x40 SHL SUB DUP2 GT ISZERO PUSH3 0x77D JUMPI PUSH1 0x0 DUP1 REVERT JUMPDEST PUSH3 0x78B DUP15 DUP3 DUP16 ADD PUSH3 0x644 JUMP JUMPDEST SWAP10 POP POP PUSH3 0x79C PUSH1 0x60 DUP14 ADD PUSH3 0x6F3 JUMP JUMPDEST SWAP8 POP PUSH1 0x80 DUP13 ADD MLOAD SWAP7 POP PUSH3 0x7B3 PUSH1 0xA0 DUP14 ADD PUSH3 0x611 JUMP JUMPDEST SWAP6 POP PUSH3 0x7C3 PUSH1 0xC0 DUP14 ADD PUSH3 0x6F3 JUMP JUMPDEST SWAP5 POP PUSH3 0x7D3 PUSH1 0xE0 DUP14 ADD PUSH3 0x6F3 JUMP JUMPDEST SWAP4 POP PUSH3 0x7E4 PUSH2 0x100 DUP14 ADD PUSH3 0x6F3 JUMP JUMPDEST SWAP3 POP PUSH3 0x7F5 PUSH2 0x120 DUP14 ADD PUSH3 0x6F3 JUMP JUMPDEST SWAP2 POP PUSH3 0x806 PUSH2 0x140 DUP14 ADD PUSH3 0x6F3 JUMP JUMPDEST SWAP1 POP SWAP3 SWAP6 SWAP9 SWAP12 POP SWAP3 SWAP6 SWAP9 SWAP12 SWAP1 SWAP4 SWAP7 SWAP10 POP JUMP JUMPDEST PUSH1 0x1 DUP2 DUP2 SHR SWAP1 DUP3 AND DUP1 PUSH3 0x82D JUMPI PUSH1 0x7F DUP3 AND SWAP2 POP JUMPDEST PUSH1 0x20 DUP3 LT DUP2 SUB PUSH3 0x84E JUMPI PUSH4 0x4E487B71 PUSH1 0xE0 SHL PUSH1 0x0 MSTORE PUSH1 0x22 PUSH1 0x4 MSTORE PUSH1 0x24 PUSH1 0x0 REVERT JUMPDEST POP SWAP2 SWAP1 POP JUMP JUMPDEST PUSH1 0x1F DUP3 GT ISZERO PUSH3 0x8A2 JUMPI PUSH1 0x0 DUP2 DUP2 MSTORE PUSH1 0x20 DUP2 KECCAK256 PUSH1 0x1F DUP6 ADD PUSH1 0x5 SHR DUP2 ADD PUSH1 0x20 DUP7 LT ISZERO PUSH3 0x87D JUMPI POP DUP1 JUMPDEST PUSH1 0x1F DUP6 ADD PUSH1 0x5 SHR DUP3 ADD SWAP2 POP JUMPDEST DUP2 DUP2 LT ISZERO PUSH3 0x89E JUMPI DUP3 DUP2 SSTORE PUSH1 0x1 ADD PUSH3 0x889 JUMP JUMPDEST POP POP POP JUMPDEST POP POP POP JUMP JUMPDEST DUP2 MLOAD PUSH1 0x1 PUSH1 0x1 PUSH1 0x40 SHL SUB DUP2 GT ISZERO PUSH3 0x8C3 JUMPI PUSH3 0x8C3 PUSH3 0x62E JUMP JUMPDEST PUSH3 0x8DB DUP2 PUSH3 0x8D4 DUP5 SLOAD PUSH3 0x818 JUMP JUMPDEST DUP5 PUSH3 0x854 JUMP JUMPDEST PUSH1 0x20 DUP1 PUSH1 0x1F DUP4 GT PUSH1 0x1 DUP2 EQ PUSH3 0x913 JUMPI PUSH1 0x0 DUP5 ISZERO PUSH3 0x8FA JUMPI POP DUP6 DUP4 ADD MLOAD JUMPDEST PUSH1 0x0 NOT PUSH1 0x3 DUP7 SWAP1 SHL SHR NOT AND PUSH1 0x1 DUP6 SWAP1 SHL OR DUP6 SSTORE PUSH3 0x89E JUMP JUMPDEST PUSH1 0x0 DUP6 DUP2 MSTORE PUSH1 0x20 DUP2 KECCAK256 PUSH1 0x1F NOT DUP7 AND SWAP2 JUMPDEST DUP3 DUP2 LT ISZERO PUSH3 0x944 JUMPI DUP9 DUP7 ADD MLOAD DUP3 SSTORE SWAP5 DUP5 ADD SWAP5 PUSH1 0x1 SWAP1 SWAP2 ADD SWAP1 DUP5 ADD PUSH3 0x923 JUMP JUMPDEST POP DUP6 DUP3 LT ISZERO PUSH3 0x963 JUMPI DUP8 DUP6 ADD MLOAD PUSH1 0x0 NOT PUSH1 0x3 DUP9 SWAP1 SHL PUSH1 0xF8 AND SHR NOT AND DUP2 SSTORE JUMPDEST POP POP POP POP POP PUSH1 0x1 SWAP1 DUP2 SHL ADD SWAP1 SSTORE POP JUMP JUMPDEST PUSH4 0x4E487B71 PUSH1 0xE0 SHL PUSH1 0x0 MSTORE PUSH1 0x11 PUSH1 0x4 MSTORE PUSH1 0x24 PUSH1 0x0 REVERT JUMPDEST PUSH1 0x1 DUP2 DUP2 JUMPDEST DUP1 DUP6 GT ISZERO PUSH3 0x9CA JUMPI DUP2 PUSH1 0x0 NOT DIV DUP3 GT ISZERO PUSH3 0x9AE JUMPI PUSH3 0x9AE PUSH3 0x973 JUMP JUMPDEST DUP1 DUP6 AND ISZERO PUSH3 0x9BC JUMPI SWAP2 DUP2 MUL SWAP2 JUMPDEST SWAP4 DUP5 SHR SWAP4 SWAP1 DUP1 MUL SWAP1 PUSH3 0x98E JUMP JUMPDEST POP SWAP3 POP SWAP3 SWAP1 POP JUMP JUMPDEST PUSH1 0x0 DUP3 PUSH3 0x9E3 JUMPI POP PUSH1 0x1 PUSH3 0x5FD JUMP JUMPDEST DUP2 PUSH3 0x9F2 JUMPI POP PUSH1 0x0 PUSH3 0x5FD JUMP JUMPDEST DUP2 PUSH1 0x1 DUP2 EQ PUSH3 0xA0B JUMPI PUSH1 0x2 DUP2 EQ PUSH3 0xA16 JUMPI PUSH3 0xA36 JUMP JUMPDEST PUSH1 0x1 SWAP2 POP POP PUSH3 0x5FD JUMP JUMPDEST PUSH1 0xFF DUP5 GT ISZERO PUSH3 0xA2A JUMPI PUSH3 0xA2A PUSH3 0x973 JUMP JUMPDEST POP POP PUSH1 0x1 DUP3 SHL PUSH3 0x5FD JUMP JUMPDEST POP PUSH1 0x20 DUP4 LT PUSH2 0x133 DUP4 LT AND PUSH1 0x4E DUP5 LT PUSH1 0xB DUP5 LT AND OR ISZERO PUSH3 0xA5B JUMPI POP DUP2 DUP2 EXP PUSH3 0x5FD JUMP JUMPDEST PUSH3 0xA67 DUP4 DUP4 PUSH3 0x989 JUMP JUMPDEST DUP1 PUSH1 0x0 NOT DIV DUP3 GT ISZERO PUSH3 0xA7E JUMPI PUSH3 0xA7E PUSH3 0x973 JUMP JUMPDEST MUL SWAP4 SWAP3 POP POP POP JUMP JUMPDEST PUSH1 0x0 PUSH3 0x5FA DUP4 DUP4 PUSH3 0x9D2 JUMP JUMPDEST DUP1 DUP3 MUL DUP2 ISZERO DUP3 DUP3 DIV DUP5 EQ OR PUSH3 0x5FD JUMPI PUSH3 0x5FD PUSH3 0x973 JUMP JUMPDEST PUSH4 0x4E487B71 PUSH1 0xE0 SHL PUSH1 0x0 MSTORE PUSH1 0x12 PUSH1 0x4 MSTORE PUSH1 0x24 PUSH1 0x0 REVERT JUMPDEST PUSH1 0x0 DUP3 PUSH3 0xAD6 JUMPI PUSH3 0xAD6 PUSH3 0xAAE JUMP JUMPDEST POP MOD SWAP1 JUMP JUMPDEST DUP2 DUP2 SUB DUP2 DUP2 GT ISZERO PUSH3 0x5FD JUMPI PUSH3 0x5FD PUSH3 0x973 JUMP JUMPDEST PUSH1 0x0 PUSH1 0x20 DUP3 DUP5 SUB SLT ISZERO PUSH3 0xB04 JUMPI PUSH1 0x0 DUP1 REVERT JUMPDEST PUSH3 0x5FA DUP3 PUSH3 0x611 JUMP JUMPDEST PUSH1 0x0 DUP3 PUSH3 0xB21 JUMPI PUSH3 0xB21 PUSH3 0xAAE JUMP JUMPDEST POP DIV SWAP1 JUMP JUMPDEST PUSH1 0x80 MLOAD PUSH1 0xA0 MLOAD PUSH2 0x3787 PUSH3 0xB84 PUSH1 0x0 CODECOPY PUSH1 0x0 DUP2 DUP2 PUSH2 0x71A ADD MSTORE PUSH2 0x1C51 ADD MSTORE PUSH1 0x0 DUP2 DUP2 PUSH2 0x4A6 ADD MSTORE DUP2 DUP2 PUSH2 0x285E ADD MSTORE DUP2 DUP2 PUSH2 0x2917 ADD MSTORE DUP2 DUP2 PUSH2 0x2946 ADD MSTORE DUP2 DUP2 PUSH2 0x29D8 ADD MSTORE DUP2 DUP2 PUSH2 0x2A0A ADD MSTORE DUP2 DUP2 PUSH2 0x2AFF ADD MSTORE PUSH2 0x2BE1 ADD MSTORE PUSH2 0x3787 PUSH1 0x0 RETURN INVALID PUSH1 0x80 PUSH1 0x40 MSTORE PUSH1 0x4 CALLDATASIZE LT PUSH2 0x385 JUMPI PUSH1 0x0 CALLDATALOAD PUSH1 0xE0 SHR DUP1 PUSH4 0x6BC87C3A GT PUSH2 0x1D1 JUMPI DUP1 PUSH4 0xAF465A27 GT PUSH2 0x102 JUMPI DUP1 PUSH4 0xC7992F9A GT PUSH2 0xA0 JUMPI DUP1 PUSH4 0xEA2F0B37 GT PUSH2 0x6F JUMPI DUP1 PUSH4 0xEA2F0B37 EQ PUSH2 0xB00 JUMPI DUP1 PUSH4 0xF25F4B56 EQ PUSH2 0xB20 JUMPI DUP1 PUSH4 0xF2FDE38B EQ PUSH2 0xB47 JUMPI DUP1 PUSH4 0xF6A3C9A9 EQ PUSH2 0xB67 JUMPI PUSH1 0x0 DUP1 REVERT JUMPDEST DUP1 PUSH4 0xC7992F9A EQ PUSH2 0xA6E JUMPI DUP1 PUSH4 0xD12A7688 EQ PUSH2 0xA8F JUMPI DUP1 PUSH4 0xD28D8852 EQ PUSH2 0xAA5 JUMPI DUP1 PUSH4 0xDD62ED3E EQ PUSH2 0xABA JUMPI PUSH1 0x0 DUP1 REVERT JUMPDEST DUP1 PUSH4 0xBDC653EF GT PUSH2 0xDC JUMPI DUP1 PUSH4 0xBDC653EF EQ PUSH2 0xA04 JUMPI DUP1 PUSH4 0xC0B0FDA2 EQ PUSH2 0xA19 JUMPI DUP1 PUSH4 0xC2E7D95C EQ PUSH2 0xA3A JUMPI DUP1 PUSH4 0xC49B9A80 EQ PUSH2 0xA4E JUMPI PUSH1 0x0 DUP1 REVERT JUMPDEST DUP1 PUSH4 0xAF465A27 EQ PUSH2 0x9B9 JUMPI DUP1 PUSH4 0xB09F1266 EQ PUSH2 0x9CF JUMPI DUP1 PUSH4 0xB29A8140 EQ PUSH2 0x9E4 JUMPI PUSH1 0x0 DUP1 REVERT JUMPDEST DUP1 PUSH4 0x8DA5CB5B GT PUSH2 0x16F JUMPI DUP1 PUSH4 0xA0712D68 GT PUSH2 0x149 JUMPI DUP1 PUSH4 0xA0712D68 EQ PUSH2 0x944 JUMPI DUP1 PUSH4 0xA457C2D7 EQ PUSH2 0x964 JUMPI DUP1 PUSH4 0xA9059CBB EQ PUSH2 0x984 JUMPI DUP1 PUSH4 0xAA23E03D EQ PUSH2 0x9A4 JUMPI PUSH1 0x0 DUP1 REVERT JUMPDEST DUP1 PUSH4 0x8DA5CB5B EQ PUSH2 0x8F1 JUMPI DUP1 PUSH4 0x90D49B9D EQ PUSH2 0x90F JUMPI DUP1 PUSH4 0x95D89B41 EQ PUSH2 0x92F JUMPI PUSH1 0x0 DUP1 REVERT JUMPDEST DUP1 PUSH4 0x715018A6 GT PUSH2 0x1AB JUMPI DUP1 PUSH4 0x715018A6 EQ PUSH2 0x847 JUMPI DUP1 PUSH4 0x7AFA1EED EQ PUSH2 0x85C JUMPI DUP1 PUSH4 0x82D2A4BB EQ PUSH2 0x898 JUMPI DUP1 PUSH4 0x88F82020 EQ PUSH2 0x8B8 JUMPI PUSH1 0x0 DUP1 REVERT JUMPDEST DUP1 PUSH4 0x6BC87C3A EQ PUSH2 0x7E5 JUMPI DUP1 PUSH4 0x70690B11 EQ PUSH2 0x806 JUMPI DUP1 PUSH4 0x70A08231 EQ PUSH2 0x827 JUMPI PUSH1 0x0 DUP1 REVERT JUMPDEST DUP1 PUSH4 0x3B124FE7 GT PUSH2 0x2B6 JUMPI DUP1 PUSH4 0x49B0DB14 GT PUSH2 0x254 JUMPI DUP1 PUSH4 0x52390C02 GT PUSH2 0x223 JUMPI DUP1 PUSH4 0x52390C02 EQ PUSH2 0x73C JUMPI DUP1 PUSH4 0x5342ACB4 EQ PUSH2 0x75C JUMPI DUP1 PUSH4 0x54CE6578 EQ PUSH2 0x795 JUMPI DUP1 PUSH4 0x54FD4D50 EQ PUSH2 0x7B6 JUMPI PUSH1 0x0 DUP1 REVERT JUMPDEST DUP1 PUSH4 0x49B0DB14 EQ PUSH2 0x69B JUMPI DUP1 PUSH4 0x4A74BB02 EQ PUSH2 0x6CD JUMPI DUP1 PUSH4 0x51330A19 EQ PUSH2 0x6E7 JUMPI DUP1 PUSH4 0x52143290 EQ PUSH2 0x708 JUMPI PUSH1 0x0 DUP1 REVERT JUMPDEST DUP1 PUSH4 0x42966C68 GT PUSH2 0x290 JUMPI DUP1 PUSH4 0x42966C68 EQ PUSH2 0x61A JUMPI DUP1 PUSH4 0x430CA090 EQ PUSH2 0x63A JUMPI DUP1 PUSH4 0x437823EC EQ PUSH2 0x65B JUMPI DUP1 PUSH4 0x4549B039 EQ PUSH2 0x67B JUMPI PUSH1 0x0 DUP1 REVERT JUMPDEST DUP1 PUSH4 0x3B124FE7 EQ PUSH2 0x5BA JUMPI DUP1 PUSH4 0x3BD5D173 EQ PUSH2 0x5D9 JUMPI DUP1 PUSH4 0x3C81385C EQ PUSH2 0x5F9 JUMPI PUSH1 0x0 DUP1 REVERT JUMPDEST DUP1 PUSH4 0x2D6ABF87 GT PUSH2 0x323 JUMPI DUP1 PUSH4 0x324F8DBF GT PUSH2 0x2FD JUMPI DUP1 PUSH4 0x324F8DBF EQ PUSH2 0x518 JUMPI DUP1 PUSH4 0x34B1A50C EQ PUSH2 0x539 JUMPI DUP1 PUSH4 0x3685D419 EQ PUSH2 0x578 JUMPI DUP1 PUSH4 0x39509351 EQ PUSH2 0x59A JUMPI PUSH1 0x0 DUP1 REVERT JUMPDEST DUP1 PUSH4 0x2D6ABF87 EQ PUSH2 0x494 JUMPI DUP1 PUSH4 0x2D838119 EQ PUSH2 0x4E0 JUMPI DUP1 PUSH4 0x313CE567 EQ PUSH2 0x500 JUMPI PUSH1 0x0 DUP1 REVERT JUMPDEST DUP1 PUSH4 0x15FA749A GT PUSH2 0x35F JUMPI DUP1 PUSH4 0x15FA749A EQ PUSH2 0x40B JUMPI DUP1 PUSH4 0x18160DDD EQ PUSH2 0x43E JUMPI DUP1 PUSH4 0x19DE79AB EQ PUSH2 0x453 JUMPI DUP1 PUSH4 0x23B872DD EQ PUSH2 0x474 JUMPI PUSH1 0x0 DUP1 REVERT JUMPDEST DUP1 PUSH4 0x6FDDE03 EQ PUSH2 0x391 JUMPI DUP1 PUSH4 0x95EA7B3 EQ PUSH2 0x3BC JUMPI DUP1 PUSH4 0x13114A9D EQ PUSH2 0x3EC JUMPI PUSH1 0x0 DUP1 REVERT JUMPDEST CALLDATASIZE PUSH2 0x38C JUMPI STOP JUMPDEST PUSH1 0x0 DUP1 REVERT JUMPDEST CALLVALUE DUP1 ISZERO PUSH2 0x39D JUMPI PUSH1 0x0 DUP1 REVERT JUMPDEST POP PUSH2 0x3A6 PUSH2 0xB87 JUMP JUMPDEST PUSH1 0x40 MLOAD PUSH2 0x3B3 SWAP2 SWAP1 PUSH2 0x314F JUMP JUMPDEST PUSH1 0x40 MLOAD DUP1 SWAP2 SUB SWAP1 RETURN JUMPDEST CALLVALUE DUP1 ISZERO PUSH2 0x3C8 JUMPI PUSH1 0x0 DUP1 REVERT JUMPDEST POP PUSH2 0x3DC PUSH2 0x3D7 CALLDATASIZE PUSH1 0x4 PUSH2 0x31B2 JUMP JUMPDEST PUSH2 0xC19 JUMP JUMPDEST PUSH1 0x40 MLOAD SWAP1 ISZERO ISZERO DUP2 MSTORE PUSH1 0x20 ADD PUSH2 0x3B3 JUMP JUMPDEST CALLVALUE DUP1 ISZERO PUSH2 0x3F8 JUMPI PUSH1 0x0 DUP1 REVERT JUMPDEST POP PUSH1 0xD SLOAD JUMPDEST PUSH1 0x40 MLOAD SWAP1 DUP2 MSTORE PUSH1 0x20 ADD PUSH2 0x3B3 JUMP JUMPDEST CALLVALUE DUP1 ISZERO PUSH2 0x417 JUMPI PUSH1 0x0 DUP1 REVERT JUMPDEST POP PUSH1 0x4 SLOAD PUSH2 0x42C SWAP1 PUSH1 0x1 PUSH1 0xC0 SHL SWAP1 DIV PUSH1 0xFF AND DUP2 JUMP JUMPDEST PUSH1 0x40 MLOAD PUSH1 0xFF SWAP1 SWAP2 AND DUP2 MSTORE PUSH1 0x20 ADD PUSH2 0x3B3 JUMP JUMPDEST CALLVALUE DUP1 ISZERO PUSH2 0x44A JUMPI PUSH1 0x0 DUP1 REVERT JUMPDEST POP PUSH1 0xB SLOAD PUSH2 0x3FD JUMP JUMPDEST CALLVALUE DUP1 ISZERO PUSH2 0x45F JUMPI PUSH1 0x0 DUP1 REVERT JUMPDEST POP PUSH1 0x10 SLOAD PUSH2 0x42C SWAP1 PUSH1 0x1 PUSH1 0x48 SHL SWAP1 DIV PUSH1 0xFF AND DUP2 JUMP JUMPDEST CALLVALUE DUP1 ISZERO PUSH2 0x480 JUMPI PUSH1 0x0 DUP1 REVERT JUMPDEST POP PUSH2 0x3DC PUSH2 0x48F CALLDATASIZE PUSH1 0x4 PUSH2 0x31DE JUMP JUMPDEST PUSH2 0xC30 JUMP JUMPDEST CALLVALUE DUP1 ISZERO PUSH2 0x4A0 JUMPI PUSH1 0x0 DUP1 REVERT JUMPDEST POP PUSH2 0x4C8 PUSH32 0x0 DUP2 JUMP JUMPDEST PUSH1 0x40 MLOAD PUSH1 0x1 PUSH1 0x1 PUSH1 0xA0 SHL SUB SWAP1 SWAP2 AND DUP2 MSTORE PUSH1 0x20 ADD PUSH2 0x3B3 JUMP JUMPDEST CALLVALUE DUP1 ISZERO PUSH2 0x4EC JUMPI PUSH1 0x0 DUP1 REVERT JUMPDEST POP PUSH2 0x3FD PUSH2 0x4FB CALLDATASIZE PUSH1 0x4 PUSH2 0x321F JUMP JUMPDEST PUSH2 0xC99 JUMP JUMPDEST CALLVALUE DUP1 ISZERO PUSH2 0x50C JUMPI PUSH1 0x0 DUP1 REVERT JUMPDEST POP PUSH1 0x10 SLOAD PUSH1 0xFF AND PUSH2 0x42C JUMP JUMPDEST CALLVALUE DUP1 ISZERO PUSH2 0x524 JUMPI PUSH1 0x0 DUP1 REVERT JUMPDEST POP PUSH1 0x4 SLOAD PUSH2 0x42C SWAP1 PUSH1 0x1 PUSH1 0xC8 SHL SWAP1 DIV PUSH1 0xFF AND DUP2 JUMP JUMPDEST CALLVALUE DUP1 ISZERO PUSH2 0x545 JUMPI PUSH1 0x0 DUP1 REVERT JUMPDEST POP PUSH2 0x3A6 PUSH1 0x40 MLOAD DUP1 PUSH1 0x40 ADD PUSH1 0x40 MSTORE DUP1 PUSH1 0x13 DUP2 MSTORE PUSH1 0x20 ADD PUSH19 0x68747470733A2F2F746A746F6B656E2E6F7267 PUSH1 0x68 SHL DUP2 MSTORE POP DUP2 JUMP JUMPDEST CALLVALUE DUP1 ISZERO PUSH2 0x584 JUMPI PUSH1 0x0 DUP1 REVERT JUMPDEST POP PUSH2 0x598 PUSH2 0x593 CALLDATASIZE PUSH1 0x4 PUSH2 0x3238 JUMP JUMPDEST PUSH2 0xD0F JUMP JUMPDEST STOP JUMPDEST CALLVALUE DUP1 ISZERO PUSH2 0x5A6 JUMPI PUSH1 0x0 DUP1 REVERT JUMPDEST POP PUSH2 0x3DC PUSH2 0x5B5 CALLDATASIZE PUSH1 0x4 PUSH2 0x31B2 JUMP JUMPDEST PUSH2 0xEB8 JUMP JUMPDEST CALLVALUE DUP1 ISZERO PUSH2 0x5C6 JUMPI PUSH1 0x0 DUP1 REVERT JUMPDEST POP PUSH1 0x10 SLOAD PUSH2 0x42C SWAP1 PUSH2 0x100 SWAP1 DIV PUSH1 0xFF AND DUP2 JUMP JUMPDEST CALLVALUE DUP1 ISZERO PUSH2 0x5E5 JUMPI PUSH1 0x0 DUP1 REVERT JUMPDEST POP PUSH2 0x598 PUSH2 0x5F4 CALLDATASIZE PUSH1 0x4 PUSH2 0x321F JUMP JUMPDEST PUSH2 0xEEE JUMP JUMPDEST CALLVALUE DUP1 ISZERO PUSH2 0x605 JUMPI PUSH1 0x0 DUP1 REVERT JUMPDEST POP PUSH1 0x4 SLOAD PUSH2 0x42C SWAP1 PUSH1 0x1 PUSH1 0xB0 SHL SWAP1 DIV PUSH1 0xFF AND DUP2 JUMP JUMPDEST CALLVALUE DUP1 ISZERO PUSH2 0x626 JUMPI PUSH1 0x0 DUP1 REVERT JUMPDEST POP PUSH2 0x3DC PUSH2 0x635 CALLDATASIZE PUSH1 0x4 PUSH2 0x321F JUMP JUMPDEST PUSH2 0xFD8 JUMP JUMPDEST CALLVALUE DUP1 ISZERO PUSH2 0x646 JUMPI PUSH1 0x0 DUP1 REVERT JUMPDEST POP PUSH1 0x4 SLOAD PUSH2 0x42C SWAP1 PUSH1 0x1 PUSH1 0xA0 SHL SWAP1 DIV PUSH1 0xFF AND DUP2 JUMP JUMPDEST CALLVALUE DUP1 ISZERO PUSH2 0x667 JUMPI PUSH1 0x0 DUP1 REVERT JUMPDEST POP PUSH2 0x598 PUSH2 0x676 CALLDATASIZE PUSH1 0x4 PUSH2 0x3238 JUMP JUMPDEST PUSH2 0x1016 JUMP JUMPDEST CALLVALUE DUP1 ISZERO PUSH2 0x687 JUMPI PUSH1 0x0 DUP1 REVERT JUMPDEST POP PUSH2 0x3FD PUSH2 0x696 CALLDATASIZE PUSH1 0x4 PUSH2 0x3263 JUMP JUMPDEST PUSH2 0x1064 JUMP JUMPDEST CALLVALUE DUP1 ISZERO PUSH2 0x6A7 JUMPI PUSH1 0x0 DUP1 REVERT JUMPDEST POP PUSH2 0x3A6 PUSH1 0x40 MLOAD DUP1 PUSH1 0x40 ADD PUSH1 0x40 MSTORE DUP1 PUSH1 0x6 DUP2 MSTORE PUSH1 0x20 ADD PUSH6 0x76312E302E3 PUSH1 0xD4 SHL DUP2 MSTORE POP DUP2 JUMP JUMPDEST CALLVALUE DUP1 ISZERO PUSH2 0x6D9 JUMPI PUSH1 0x0 DUP1 REVERT JUMPDEST POP PUSH1 0x11 SLOAD PUSH2 0x3DC SWAP1 PUSH1 0xFF AND DUP2 JUMP JUMPDEST CALLVALUE DUP1 ISZERO PUSH2 0x6F3 JUMPI PUSH1 0x0 DUP1 REVERT JUMPDEST POP PUSH1 0x4 SLOAD PUSH2 0x42C SWAP1 PUSH1 0x1 PUSH1 0xB8 SHL SWAP1 DIV PUSH1 0xFF AND DUP2 JUMP JUMPDEST CALLVALUE DUP1 ISZERO PUSH2 0x714 JUMPI PUSH1 0x0 DUP1 REVERT JUMPDEST POP PUSH2 0x4C8 PUSH32 0x0 DUP2 JUMP JUMPDEST CALLVALUE DUP1 ISZERO PUSH2 0x748 JUMPI PUSH1 0x0 DUP1 REVERT JUMPDEST POP PUSH2 0x598 PUSH2 0x757 CALLDATASIZE PUSH1 0x4 PUSH2 0x3238 JUMP JUMPDEST PUSH2 0x10F1 JUMP JUMPDEST CALLVALUE DUP1 ISZERO PUSH2 0x768 JUMPI PUSH1 0x0 DUP1 REVERT JUMPDEST POP PUSH2 0x3DC PUSH2 0x777 CALLDATASIZE PUSH1 0x4 PUSH2 0x3238 JUMP JUMPDEST PUSH1 0x1 PUSH1 0x1 PUSH1 0xA0 SHL SUB AND PUSH1 0x0 SWAP1 DUP2 MSTORE PUSH1 0x8 PUSH1 0x20 MSTORE PUSH1 0x40 SWAP1 KECCAK256 SLOAD PUSH1 0xFF AND SWAP1 JUMP JUMPDEST CALLVALUE DUP1 ISZERO PUSH2 0x7A1 JUMPI PUSH1 0x0 DUP1 REVERT JUMPDEST POP PUSH1 0x10 SLOAD PUSH2 0x42C SWAP1 PUSH1 0x1 PUSH1 0x38 SHL SWAP1 DIV PUSH1 0xFF AND DUP2 JUMP JUMPDEST CALLVALUE DUP1 ISZERO PUSH2 0x7C2 JUMPI PUSH1 0x0 DUP1 REVERT JUMPDEST POP PUSH1 0x40 DUP1 MLOAD DUP1 DUP3 ADD SWAP1 SWAP2 MSTORE PUSH1 0x6 DUP2 MSTORE PUSH6 0x76312E302E3 PUSH1 0xD4 SHL PUSH1 0x20 DUP3 ADD MSTORE PUSH2 0x3A6 JUMP JUMPDEST CALLVALUE DUP1 ISZERO PUSH2 0x7F1 JUMPI PUSH1 0x0 DUP1 REVERT JUMPDEST POP PUSH1 0x10 SLOAD PUSH2 0x42C SWAP1 PUSH4 0x1000000 SWAP1 DIV PUSH1 0xFF AND DUP2 JUMP JUMPDEST CALLVALUE DUP1 ISZERO PUSH2 0x812 JUMPI PUSH1 0x0 DUP1 REVERT JUMPDEST POP PUSH1 0x4 SLOAD PUSH2 0x42C SWAP1 PUSH1 0x1 PUSH1 0xD0 SHL SWAP1 DIV PUSH1 0xFF AND DUP2 JUMP JUMPDEST CALLVALUE DUP1 ISZERO PUSH2 0x833 JUMPI PUSH1 0x0 DUP1 REVERT JUMPDEST POP PUSH2 0x3FD PUSH2 0x842 CALLDATASIZE PUSH1 0x4 PUSH2 0x3238 JUMP JUMPDEST PUSH2 0x11FE JUMP JUMPDEST CALLVALUE DUP1 ISZERO PUSH2 0x853 JUMPI PUSH1 0x0 DUP1 REVERT JUMPDEST POP PUSH2 0x598 PUSH2 0x125D JUMP JUMPDEST CALLVALUE DUP1 ISZERO PUSH2 0x868 JUMPI PUSH1 0x0 DUP1 REVERT JUMPDEST POP PUSH1 0x40 DUP1 MLOAD DUP1 DUP3 ADD SWAP1 SWAP2 MSTORE PUSH1 0x13 DUP2 MSTORE PUSH19 0x68747470733A2F2F746A746F6B656E2E6F7267 PUSH1 0x68 SHL PUSH1 0x20 DUP3 ADD MSTORE PUSH2 0x3A6 JUMP JUMPDEST CALLVALUE DUP1 ISZERO PUSH2 0x8A4 JUMPI PUSH1 0x0 DUP1 REVERT JUMPDEST POP PUSH2 0x598 PUSH2 0x8B3 CALLDATASIZE PUSH1 0x4 PUSH2 0x321F JUMP JUMPDEST PUSH2 0x12D1 JUMP JUMPDEST CALLVALUE DUP1 ISZERO PUSH2 0x8C4 JUMPI PUSH1 0x0 DUP1 REVERT JUMPDEST POP PUSH2 0x3DC PUSH2 0x8D3 CALLDATASIZE PUSH1 0x4 PUSH2 0x3238 JUMP JUMPDEST PUSH1 0x1 PUSH1 0x1 PUSH1 0xA0 SHL SUB AND PUSH1 0x0 SWAP1 DUP2 MSTORE PUSH1 0x9 PUSH1 0x20 MSTORE PUSH1 0x40 SWAP1 KECCAK256 SLOAD PUSH1 0xFF AND SWAP1 JUMP JUMPDEST CALLVALUE DUP1 ISZERO PUSH2 0x8FD JUMPI PUSH1 0x0 DUP1 REVERT JUMPDEST POP PUSH1 0x0 SLOAD PUSH1 0x1 PUSH1 0x1 PUSH1 0xA0 SHL SUB AND PUSH2 0x4C8 JUMP JUMPDEST CALLVALUE DUP1 ISZERO PUSH2 0x91B JUMPI PUSH1 0x0 DUP1 REVERT JUMPDEST POP PUSH2 0x598 PUSH2 0x92A CALLDATASIZE PUSH1 0x4 PUSH2 0x3238 JUMP JUMPDEST PUSH2 0x131C JUMP JUMPDEST CALLVALUE DUP1 ISZERO PUSH2 0x93B JUMPI PUSH1 0x0 DUP1 REVERT JUMPDEST POP PUSH2 0x3A6 PUSH2 0x13D5 JUMP JUMPDEST CALLVALUE DUP1 ISZERO PUSH2 0x950 JUMPI PUSH1 0x0 DUP1 REVERT JUMPDEST POP PUSH2 0x3DC PUSH2 0x95F CALLDATASIZE PUSH1 0x4 PUSH2 0x321F JUMP JUMPDEST PUSH2 0x13E4 JUMP JUMPDEST CALLVALUE DUP1 ISZERO PUSH2 0x970 JUMPI PUSH1 0x0 DUP1 REVERT JUMPDEST POP PUSH2 0x3DC PUSH2 0x97F CALLDATASIZE PUSH1 0x4 PUSH2 0x31B2 JUMP JUMPDEST PUSH2 0x1419 JUMP JUMPDEST CALLVALUE DUP1 ISZERO PUSH2 0x990 JUMPI PUSH1 0x0 DUP1 REVERT JUMPDEST POP PUSH2 0x3DC PUSH2 0x99F CALLDATASIZE PUSH1 0x4 PUSH2 0x31B2 JUMP JUMPDEST PUSH2 0x1468 JUMP JUMPDEST CALLVALUE DUP1 ISZERO PUSH2 0x9B0 JUMPI PUSH1 0x0 DUP1 REVERT JUMPDEST POP PUSH2 0x3A6 PUSH2 0x1475 JUMP JUMPDEST CALLVALUE DUP1 ISZERO PUSH2 0x9C5 JUMPI PUSH1 0x0 DUP1 REVERT JUMPDEST POP PUSH2 0x3FD PUSH1 0xB SLOAD DUP2 JUMP JUMPDEST CALLVALUE DUP1 ISZERO PUSH2 0x9DB JUMPI PUSH1 0x0 DUP1 REVERT JUMPDEST POP PUSH2 0x3A6 PUSH2 0x1484 JUMP JUMPDEST CALLVALUE DUP1 ISZERO PUSH2 0x9F0 JUMPI PUSH1 0x0 DUP1 REVERT JUMPDEST POP PUSH2 0x598 PUSH2 0x9FF CALLDATASIZE PUSH1 0x4 PUSH2 0x31B2 JUMP JUMPDEST PUSH2 0x1512 JUMP JUMPDEST CALLVALUE DUP1 ISZERO PUSH2 0xA10 JUMPI PUSH1 0x0 DUP1 REVERT JUMPDEST POP PUSH1 0x13 SLOAD PUSH2 0x3FD JUMP JUMPDEST CALLVALUE DUP1 ISZERO PUSH2 0xA25 JUMPI PUSH1 0x0 DUP1 REVERT JUMPDEST POP PUSH1 0x10 SLOAD PUSH2 0x42C SWAP1 PUSH1 0x1 PUSH1 0x28 SHL SWAP1 DIV PUSH1 0xFF AND DUP2 JUMP JUMPDEST CALLVALUE DUP1 ISZERO PUSH2 0xA46 JUMPI PUSH1 0x0 DUP1 REVERT JUMPDEST POP PUSH1 0x1 PUSH2 0x3DC JUMP JUMPDEST CALLVALUE DUP1 ISZERO PUSH2 0xA5A JUMPI PUSH1 0x0 DUP1 REVERT JUMPDEST POP PUSH2 0x598 PUSH2 0xA69 CALLDATASIZE PUSH1 0x4 PUSH2 0x3293 JUMP JUMPDEST PUSH2 0x161B JUMP JUMPDEST CALLVALUE DUP1 ISZERO PUSH2 0xA7A JUMPI PUSH1 0x0 DUP1 REVERT JUMPDEST POP PUSH1 0x4 SLOAD PUSH2 0x42C SWAP1 PUSH1 0x1 PUSH1 0xA8 SHL SWAP1 DIV PUSH1 0xFF AND DUP2 JUMP JUMPDEST CALLVALUE DUP1 ISZERO PUSH2 0xA9B JUMPI PUSH1 0x0 DUP1 REVERT JUMPDEST POP PUSH2 0x3FD PUSH1 0x12 SLOAD DUP2 JUMP JUMPDEST CALLVALUE DUP1 ISZERO PUSH2 0xAB1 JUMPI PUSH1 0x0 DUP1 REVERT JUMPDEST POP PUSH2 0x3A6 PUSH2 0x168C JUMP JUMPDEST CALLVALUE DUP1 ISZERO PUSH2 0xAC6 JUMPI PUSH1 0x0 DUP1 REVERT JUMPDEST POP PUSH2 0x3FD PUSH2 0xAD5 CALLDATASIZE PUSH1 0x4 PUSH2 0x32B0 JUMP JUMPDEST PUSH1 0x1 PUSH1 0x1 PUSH1 0xA0 SHL SUB SWAP2 DUP3 AND PUSH1 0x0 SWAP1 DUP2 MSTORE PUSH1 0x7 PUSH1 0x20 SWAP1 DUP2 MSTORE PUSH1 0x40 DUP1 DUP4 KECCAK256 SWAP4 SWAP1 SWAP5 AND DUP3 MSTORE SWAP2 SWAP1 SWAP2 MSTORE KECCAK256 SLOAD SWAP1 JUMP JUMPDEST CALLVALUE DUP1 ISZERO PUSH2 0xB0C JUMPI PUSH1 0x0 DUP1 REVERT JUMPDEST POP PUSH2 0x598 PUSH2 0xB1B CALLDATASIZE PUSH1 0x4 PUSH2 0x3238 JUMP JUMPDEST PUSH2 0x1699 JUMP JUMPDEST CALLVALUE DUP1 ISZERO PUSH2 0xB2C JUMPI PUSH1 0x0 DUP1 REVERT JUMPDEST POP PUSH1 0x10 SLOAD PUSH2 0x4C8 SWAP1 PUSH1 0x1 PUSH1 0x58 SHL SWAP1 DIV PUSH1 0x1 PUSH1 0x1 PUSH1 0xA0 SHL SUB AND DUP2 JUMP JUMPDEST CALLVALUE DUP1 ISZERO PUSH2 0xB53 JUMPI PUSH1 0x0 DUP1 REVERT JUMPDEST POP PUSH2 0x598 PUSH2 0xB62 CALLDATASIZE PUSH1 0x4 PUSH2 0x3238 JUMP JUMPDEST PUSH2 0x16E4 JUMP JUMPDEST CALLVALUE DUP1 ISZERO PUSH2 0xB73 JUMPI PUSH1 0x0 DUP1 REVERT JUMPDEST POP PUSH2 0x598 PUSH2 0xB82 CALLDATASIZE PUSH1 0x4 PUSH2 0x32EF JUMP JUMPDEST PUSH2 0x17D3 JUMP JUMPDEST PUSH1 0x60 PUSH1 0xE DUP1 SLOAD PUSH2 0xB96 SWAP1 PUSH2 0x3354 JUMP JUMPDEST DUP1 PUSH1 0x1F ADD PUSH1 0x20 DUP1 SWAP2 DIV MUL PUSH1 0x20 ADD PUSH1 0x40 MLOAD SWAP1 DUP2 ADD PUSH1 0x40 MSTORE DUP1 SWAP3 SWAP2 SWAP1 DUP2 DUP2 MSTORE PUSH1 0x20 ADD DUP3 DUP1 SLOAD PUSH2 0xBC2 SWAP1 PUSH2 0x3354 JUMP JUMPDEST DUP1 ISZERO PUSH2 0xC0F JUMPI DUP1 PUSH1 0x1F LT PUSH2 0xBE4 JUMPI PUSH2 0x100 DUP1 DUP4 SLOAD DIV MUL DUP4 MSTORE SWAP2 PUSH1 0x20 ADD SWAP2 PUSH2 0xC0F JUMP JUMPDEST DUP3 ADD SWAP2 SWAP1 PUSH1 0x0 MSTORE PUSH1 0x20 PUSH1 0x0 KECCAK256 SWAP1 JUMPDEST DUP2 SLOAD DUP2 MSTORE SWAP1 PUSH1 0x1 ADD SWAP1 PUSH1 0x20 ADD DUP1 DUP4 GT PUSH2 0xBF2 JUMPI DUP3 SWAP1 SUB PUSH1 0x1F AND DUP3 ADD SWAP2 JUMPDEST POP POP POP POP POP SWAP1 POP SWAP1 JUMP JUMPDEST PUSH1 0x0 PUSH2 0xC26 CALLER DUP5 DUP5 PUSH2 0x1A06 JUMP JUMPDEST POP PUSH1 0x1 JUMPDEST SWAP3 SWAP2 POP POP JUMP JUMPDEST PUSH1 0x0 PUSH2 0xC3D DUP5 DUP5 DUP5 PUSH2 0x1B14 JUMP JUMPDEST PUSH2 0xC8F DUP5 CALLER PUSH2 0xC8A DUP6 PUSH1 0x40 MLOAD DUP1 PUSH1 0x60 ADD PUSH1 0x40 MSTORE DUP1 PUSH1 0x28 DUP2 MSTORE PUSH1 0x20 ADD PUSH2 0x36C3 PUSH1 0x28 SWAP2 CODECOPY PUSH1 0x1 PUSH1 0x1 PUSH1 0xA0 SHL SUB DUP11 AND PUSH1 0x0 SWAP1 DUP2 MSTORE PUSH1 0x7 PUSH1 0x20 SWAP1 DUP2 MSTORE PUSH1 0x40 DUP1 DUP4 KECCAK256 CALLER DUP5 MSTORE SWAP1 SWAP2 MSTORE SWAP1 KECCAK256 SLOAD SWAP2 SWAP1 PUSH2 0x1D72 JUMP JUMPDEST PUSH2 0x1A06 JUMP JUMPDEST POP PUSH1 0x1 SWAP4 SWAP3 POP POP POP JUMP JUMPDEST PUSH1 0x0 PUSH1 0xC SLOAD DUP3 GT ISZERO PUSH2 0xCF2 JUMPI PUSH1 0x40 MLOAD PUSH3 0x461BCD PUSH1 0xE5 SHL DUP2 MSTORE PUSH1 0x20 PUSH1 0x4 DUP3 ADD MSTORE PUSH1 0x1E PUSH1 0x24 DUP3 ADD MSTORE PUSH32 0x416D74206D757374206265206C657373207468616E20746F74207265666C0000 PUSH1 0x44 DUP3 ADD MSTORE PUSH1 0x64 ADD JUMPDEST PUSH1 0x40 MLOAD DUP1 SWAP2 SUB SWAP1 REVERT JUMPDEST PUSH1 0x0 PUSH2 0xCFC PUSH2 0x1D9E JUMP JUMPDEST SWAP1 POP PUSH2 0xD08 DUP4 DUP3 PUSH2 0x19FA JUMP JUMPDEST SWAP4 SWAP3 POP POP POP JUMP JUMPDEST PUSH1 0x0 SLOAD PUSH1 0x1 PUSH1 0x1 PUSH1 0xA0 SHL SUB AND CALLER EQ PUSH2 0xD39 JUMPI PUSH1 0x40 MLOAD PUSH3 0x461BCD PUSH1 0xE5 SHL DUP2 MSTORE PUSH1 0x4 ADD PUSH2 0xCE9 SWAP1 PUSH2 0x338E JUMP JUMPDEST PUSH1 0x1 PUSH1 0x1 PUSH1 0xA0 SHL SUB DUP2 AND PUSH1 0x0 SWAP1 DUP2 MSTORE PUSH1 0x9 PUSH1 0x20 MSTORE PUSH1 0x40 SWAP1 KECCAK256 SLOAD PUSH1 0xFF AND PUSH2 0xD94 JUMPI PUSH1 0x40 MLOAD PUSH3 0x461BCD PUSH1 0xE5 SHL DUP2 MSTORE PUSH1 0x20 PUSH1 0x4 DUP3 ADD MSTORE PUSH1 0x10 PUSH1 0x24 DUP3 ADD MSTORE PUSH16 0x105B1C9958591E48195E18DB1D591959 PUSH1 0x82 SHL PUSH1 0x44 DUP3 ADD MSTORE PUSH1 0x64 ADD PUSH2 0xCE9 JUMP JUMPDEST PUSH1 0x0 JUMPDEST PUSH1 0xA SLOAD DUP2 LT ISZERO PUSH2 0xEB4 JUMPI DUP2 PUSH1 0x1 PUSH1 0x1 PUSH1 0xA0 SHL SUB AND PUSH1 0xA DUP3 DUP2 SLOAD DUP2 LT PUSH2 0xDBE JUMPI PUSH2 0xDBE PUSH2 0x33D3 JUMP JUMPDEST PUSH1 0x0 SWAP2 DUP3 MSTORE PUSH1 0x20 SWAP1 SWAP2 KECCAK256 ADD SLOAD PUSH1 0x1 PUSH1 0x1 PUSH1 0xA0 SHL SUB AND SUB PUSH2 0xEA2 JUMPI PUSH1 0xA DUP1 SLOAD PUSH2 0xDE8 SWAP1 PUSH1 0x1 SWAP1 PUSH2 0x33FF JUMP JUMPDEST DUP2 SLOAD DUP2 LT PUSH2 0xDF8 JUMPI PUSH2 0xDF8 PUSH2 0x33D3 JUMP JUMPDEST PUSH1 0x0 SWAP2 DUP3 MSTORE PUSH1 0x20 SWAP1 SWAP2 KECCAK256 ADD SLOAD PUSH1 0xA DUP1 SLOAD PUSH1 0x1 PUSH1 0x1 PUSH1 0xA0 SHL SUB SWAP1 SWAP3 AND SWAP2 DUP4 SWAP1 DUP2 LT PUSH2 0xE24 JUMPI PUSH2 0xE24 PUSH2 0x33D3 JUMP JUMPDEST PUSH1 0x0 SWAP2 DUP3 MSTORE PUSH1 0x20 DUP1 DUP4 KECCAK256 SWAP2 SWAP1 SWAP2 ADD DUP1 SLOAD PUSH1 0x1 PUSH1 0x1 PUSH1 0xA0 SHL SUB NOT AND PUSH1 0x1 PUSH1 0x1 PUSH1 0xA0 SHL SUB SWAP5 DUP6 AND OR SWAP1 SSTORE SWAP2 DUP5 AND DUP2 MSTORE PUSH1 0x6 DUP3 MSTORE PUSH1 0x40 DUP1 DUP3 KECCAK256 DUP3 SWAP1 SSTORE PUSH1 0x9 SWAP1 SWAP3 MSTORE KECCAK256 DUP1 SLOAD PUSH1 0xFF NOT AND SWAP1 SSTORE PUSH1 0xA DUP1 SLOAD DUP1 PUSH2 0xE7C JUMPI PUSH2 0xE7C PUSH2 0x3412 JUMP JUMPDEST PUSH1 0x0 DUP3 DUP2 MSTORE PUSH1 0x20 SWAP1 KECCAK256 DUP2 ADD PUSH1 0x0 NOT SWAP1 DUP2 ADD DUP1 SLOAD PUSH1 0x1 PUSH1 0x1 PUSH1 0xA0 SHL SUB NOT AND SWAP1 SSTORE ADD SWAP1 SSTORE POP POP JUMP JUMPDEST DUP1 PUSH2 0xEAC DUP2 PUSH2 0x3428 JUMP JUMPDEST SWAP2 POP POP PUSH2 0xD97 JUMP JUMPDEST POP POP JUMP JUMPDEST CALLER PUSH1 0x0 DUP2 DUP2 MSTORE PUSH1 0x7 PUSH1 0x20 SWAP1 DUP2 MSTORE PUSH1 0x40 DUP1 DUP4 KECCAK256 PUSH1 0x1 PUSH1 0x1 PUSH1 0xA0 SHL SUB DUP8 AND DUP5 MSTORE SWAP1 SWAP2 MSTORE DUP2 KECCAK256 SLOAD SWAP1 SWAP2 PUSH2 0xC26 SWAP2 DUP6 SWAP1 PUSH2 0xC8A SWAP1 DUP7 PUSH2 0x1DC1 JUMP JUMPDEST CALLER PUSH1 0x0 DUP2 DUP2 MSTORE PUSH1 0x9 PUSH1 0x20 MSTORE PUSH1 0x40 SWAP1 KECCAK256 SLOAD PUSH1 0xFF AND ISZERO PUSH2 0xF63 JUMPI PUSH1 0x40 MLOAD PUSH3 0x461BCD PUSH1 0xE5 SHL DUP2 MSTORE PUSH1 0x20 PUSH1 0x4 DUP3 ADD MSTORE PUSH1 0x2C PUSH1 0x24 DUP3 ADD MSTORE PUSH32 0x4578636C75646564206164647265737365732063616E6E6F742063616C6C2074 PUSH1 0x44 DUP3 ADD MSTORE PUSH12 0x3434B990333AB731BA34B7B7 PUSH1 0xA1 SHL PUSH1 0x64 DUP3 ADD MSTORE PUSH1 0x84 ADD PUSH2 0xCE9 JUMP JUMPDEST PUSH1 0x0 PUSH2 0xF6E DUP4 PUSH2 0x1DCD JUMP JUMPDEST POP POP POP POP PUSH1 0x1 PUSH1 0x1 PUSH1 0xA0 SHL SUB DUP5 AND PUSH1 0x0 SWAP1 DUP2 MSTORE PUSH1 0x5 PUSH1 0x20 MSTORE PUSH1 0x40 SWAP1 KECCAK256 SLOAD SWAP2 SWAP3 POP PUSH2 0xF9A SWAP2 SWAP1 POP DUP3 PUSH2 0x1E1C JUMP JUMPDEST PUSH1 0x1 PUSH1 0x1 PUSH1 0xA0 SHL SUB DUP4 AND PUSH1 0x0 SWAP1 DUP2 MSTORE PUSH1 0x5 PUSH1 0x20 MSTORE PUSH1 0x40 SWAP1 KECCAK256 SSTORE PUSH1 0xC SLOAD PUSH2 0xFC0 SWAP1 DUP3 PUSH2 0x1E1C JUMP JUMPDEST PUSH1 0xC SSTORE PUSH1 0xD SLOAD PUSH2 0xFD0 SWAP1 DUP5 PUSH2 0x1DC1 JUMP JUMPDEST PUSH1 0xD SSTORE POP POP POP JUMP JUMPDEST PUSH1 0x0 DUP1 SLOAD PUSH1 0x1 PUSH1 0x1 PUSH1 0xA0 SHL SUB AND CALLER EQ PUSH2 0x1003 JUMPI PUSH1 0x40 MLOAD PUSH3 0x461BCD PUSH1 0xE5 SHL DUP2 MSTORE PUSH1 0x4 ADD PUSH2 0xCE9 SWAP1 PUSH2 0x338E JUMP JUMPDEST PUSH2 0x100D CALLER DUP4 PUSH2 0x1E28 JUMP JUMPDEST POP PUSH1 0x1 JUMPDEST SWAP2 SWAP1 POP JUMP JUMPDEST PUSH1 0x0 SLOAD PUSH1 0x1 PUSH1 0x1 PUSH1 0xA0 SHL SUB AND CALLER EQ PUSH2 0x1040 JUMPI PUSH1 0x40 MLOAD PUSH3 0x461BCD PUSH1 0xE5 SHL DUP2 MSTORE PUSH1 0x4 ADD PUSH2 0xCE9 SWAP1 PUSH2 0x338E JUMP JUMPDEST PUSH1 0x1 PUSH1 0x1 PUSH1 0xA0 SHL SUB AND PUSH1 0x0 SWAP1 DUP2 MSTORE PUSH1 0x8 PUSH1 0x20 MSTORE PUSH1 0x40 SWAP1 KECCAK256 DUP1 SLOAD PUSH1 0xFF NOT AND PUSH1 0x1 OR SWAP1 SSTORE JUMP JUMPDEST PUSH1 0x0 PUSH1 0xB SLOAD DUP4 GT ISZERO PUSH2 0x10B8 JUMPI PUSH1 0x40 MLOAD PUSH3 0x461BCD PUSH1 0xE5 SHL DUP2 MSTORE PUSH1 0x20 PUSH1 0x4 DUP3 ADD MSTORE PUSH1 0x1C PUSH1 0x24 DUP3 ADD MSTORE PUSH32 0x416D74206D757374206265206C657373207468616E20737570706C7900000000 PUSH1 0x44 DUP3 ADD MSTORE PUSH1 0x64 ADD PUSH2 0xCE9 JUMP JUMPDEST DUP2 PUSH2 0x10D7 JUMPI PUSH1 0x0 PUSH2 0x10C8 DUP5 PUSH2 0x1DCD JUMP JUMPDEST POP SWAP4 SWAP6 POP PUSH2 0xC2A SWAP5 POP POP POP POP POP JUMP JUMPDEST PUSH1 0x0 PUSH2 0x10E2 DUP5 PUSH2 0x1DCD JUMP JUMPDEST POP SWAP3 SWAP6 POP PUSH2 0xC2A SWAP5 POP POP POP POP POP JUMP JUMPDEST PUSH1 0x0 SLOAD PUSH1 0x1 PUSH1 0x1 PUSH1 0xA0 SHL SUB AND CALLER EQ PUSH2 0x111B JUMPI PUSH1 0x40 MLOAD PUSH3 0x461BCD PUSH1 0xE5 SHL DUP2 MSTORE PUSH1 0x4 ADD PUSH2 0xCE9 SWAP1 PUSH2 0x338E JUMP JUMPDEST PUSH1 0x1 PUSH1 0x1 PUSH1 0xA0 SHL SUB DUP2 AND PUSH1 0x0 SWAP1 DUP2 MSTORE PUSH1 0x9 PUSH1 0x20 MSTORE PUSH1 0x40 SWAP1 KECCAK256 SLOAD PUSH1 0xFF AND PUSH2 0x11FB JUMPI PUSH1 0x1 PUSH1 0x1 PUSH1 0xA0 SHL SUB DUP2 AND PUSH1 0x0 SWAP1 DUP2 MSTORE PUSH1 0x5 PUSH1 0x20 MSTORE PUSH1 0x40 SWAP1 KECCAK256 SLOAD ISZERO PUSH2 0x1195 JUMPI PUSH1 0x1 PUSH1 0x1 PUSH1 0xA0 SHL SUB DUP2 AND PUSH1 0x0 SWAP1 DUP2 MSTORE PUSH1 0x5 PUSH1 0x20 MSTORE PUSH1 0x40 SWAP1 KECCAK256 SLOAD PUSH2 0x117B SWAP1 PUSH2 0xC99 JUMP JUMPDEST PUSH1 0x1 PUSH1 0x1 PUSH1 0xA0 SHL SUB DUP3 AND PUSH1 0x0 SWAP1 DUP2 MSTORE PUSH1 0x6 PUSH1 0x20 MSTORE PUSH1 0x40 SWAP1 KECCAK256 SSTORE JUMPDEST PUSH1 0x1 PUSH1 0x1 PUSH1 0xA0 SHL SUB DUP2 AND PUSH1 0x0 DUP2 DUP2 MSTORE PUSH1 0x9 PUSH1 0x20 MSTORE PUSH1 0x40 DUP2 KECCAK256 DUP1 SLOAD PUSH1 0xFF NOT AND PUSH1 0x1 SWAP1 DUP2 OR SWAP1 SWAP2 SSTORE PUSH1 0xA DUP1 SLOAD SWAP2 DUP3 ADD DUP2 SSTORE SWAP1 SWAP2 MSTORE PUSH32 0xC65A7BB8D6351C1CF70C95A316CC6A92839C986682D98BC35F958F4883F9D2A8 ADD DUP1 SLOAD PUSH1 0x1 PUSH1 0x1 PUSH1 0xA0 SHL SUB NOT AND SWAP1 SWAP2 OR SWAP1 SSTORE JUMPDEST POP JUMP JUMPDEST PUSH1 0x1 PUSH1 0x1 PUSH1 0xA0 SHL SUB DUP2 AND PUSH1 0x0 SWAP1 DUP2 MSTORE PUSH1 0x9 PUSH1 0x20 MSTORE PUSH1 0x40 DUP2 KECCAK256 SLOAD PUSH1 0xFF AND ISZERO PUSH2 0x123B JUMPI POP PUSH1 0x1 PUSH1 0x1 PUSH1 0xA0 SHL SUB AND PUSH1 0x0 SWAP1 DUP2 MSTORE PUSH1 0x6 PUSH1 0x20 MSTORE PUSH1 0x40 SWAP1 KECCAK256 SLOAD SWAP1 JUMP JUMPDEST PUSH1 0x1 PUSH1 0x1 PUSH1 0xA0 SHL SUB DUP3 AND PUSH1 0x0 SWAP1 DUP2 MSTORE PUSH1 0x5 PUSH1 0x20 MSTORE PUSH1 0x40 SWAP1 KECCAK256 SLOAD PUSH2 0xC2A SWAP1 PUSH2 0xC99 JUMP JUMPDEST PUSH1 0x0 SLOAD PUSH1 0x1 PUSH1 0x1 PUSH1 0xA0 SHL SUB AND CALLER EQ PUSH2 0x1287 JUMPI PUSH1 0x40 MLOAD PUSH3 0x461BCD PUSH1 0xE5 SHL DUP2 MSTORE PUSH1 0x4 ADD PUSH2 0xCE9 SWAP1 PUSH2 0x338E JUMP JUMPDEST PUSH1 0x0 DUP1 SLOAD PUSH1 0x40 MLOAD PUSH1 0x1 PUSH1 0x1 PUSH1 0xA0 SHL SUB SWAP1 SWAP2 AND SWAP1 PUSH32 0x8BE0079C531659141344CD1FD0A4F28419497F9722A3DAAFE3B4186F6B6457E0 SWAP1 DUP4 SWAP1 LOG3 PUSH1 0x0 DUP1 SLOAD PUSH1 0x1 PUSH1 0x1 PUSH1 0xA0 SHL SUB NOT AND SWAP1 SSTORE JUMP JUMPDEST PUSH1 0x0 SLOAD PUSH1 0x1 PUSH1 0x1 PUSH1 0xA0 SHL SUB AND CALLER EQ PUSH2 0x12FB JUMPI PUSH1 0x40 MLOAD PUSH3 0x461BCD PUSH1 0xE5 SHL DUP2 MSTORE PUSH1 0x4 ADD PUSH2 0xCE9 SWAP1 PUSH2 0x338E JUMP JUMPDEST PUSH1 0x10 SLOAD PUSH2 0x130C SWAP1 PUSH1 0xFF AND PUSH1 0xA PUSH2 0x3525 JUMP JUMPDEST PUSH2 0x1316 SWAP1 DUP3 PUSH2 0x3534 JUMP JUMPDEST PUSH1 0x13 SSTORE POP JUMP JUMPDEST PUSH1 0x0 SLOAD PUSH1 0x1 PUSH1 0x1 PUSH1 0xA0 SHL SUB AND CALLER EQ PUSH2 0x1346 JUMPI PUSH1 0x40 MLOAD PUSH3 0x461BCD PUSH1 0xE5 SHL DUP2 MSTORE PUSH1 0x4 ADD PUSH2 0xCE9 SWAP1 PUSH2 0x338E JUMP JUMPDEST PUSH1 0x1 PUSH1 0x1 PUSH1 0xA0 SHL SUB DUP2 AND PUSH2 0x138B JUMPI PUSH1 0x40 MLOAD PUSH3 0x461BCD PUSH1 0xE5 SHL DUP2 MSTORE PUSH1 0x20 PUSH1 0x4 DUP3 ADD MSTORE PUSH1 0xC PUSH1 0x24 DUP3 ADD MSTORE PUSH12 0x5A45524F2041444452455353 PUSH1 0xA0 SHL PUSH1 0x44 DUP3 ADD MSTORE PUSH1 0x64 ADD PUSH2 0xCE9 JUMP JUMPDEST PUSH2 0x1394 DUP2 PUSH2 0x10F1 JUMP JUMPDEST PUSH1 0x10 DUP1 SLOAD PUSH1 0x1 PUSH1 0x1 PUSH1 0xA0 SHL SUB SWAP1 SWAP3 AND PUSH1 0x1 PUSH1 0x58 SHL MUL PUSH32 0xFF0000000000000000000000000000000000000000FFFFFFFFFFFFFFFFFFFFFF SWAP1 SWAP3 AND SWAP2 SWAP1 SWAP2 OR SWAP1 SSTORE JUMP JUMPDEST PUSH1 0x60 PUSH1 0xF DUP1 SLOAD PUSH2 0xB96 SWAP1 PUSH2 0x3354 JUMP JUMPDEST PUSH1 0x0 DUP1 SLOAD PUSH1 0x1 PUSH1 0x1 PUSH1 0xA0 SHL SUB AND CALLER EQ PUSH2 0x140F JUMPI PUSH1 0x40 MLOAD PUSH3 0x461BCD PUSH1 0xE5 SHL DUP2 MSTORE PUSH1 0x4 ADD PUSH2 0xCE9 SWAP1 PUSH2 0x338E JUMP JUMPDEST PUSH2 0x100D CALLER DUP4 PUSH2 0x1F3A JUMP JUMPDEST PUSH1 0x0 PUSH2 0xC26 CALLER DUP5 PUSH2 0xC8A DUP6 PUSH1 0x40 MLOAD DUP1 PUSH1 0x60 ADD PUSH1 0x40 MSTORE DUP1 PUSH1 0x25 DUP2 MSTORE PUSH1 0x20 ADD PUSH2 0x372D PUSH1 0x25 SWAP2 CODECOPY CALLER PUSH1 0x0 SWAP1 DUP2 MSTORE PUSH1 0x7 PUSH1 0x20 SWAP1 DUP2 MSTORE PUSH1 0x40 DUP1 DUP4 KECCAK256 PUSH1 0x1 PUSH1 0x1 PUSH1 0xA0 SHL SUB DUP14 AND DUP5 MSTORE SWAP1 SWAP2 MSTORE SWAP1 KECCAK256 SLOAD SWAP2 SWAP1 PUSH2 0x1D72 JUMP JUMPDEST PUSH1 0x0 PUSH2 0xC26 CALLER DUP5 DUP5 PUSH2 0x1B14 JUMP JUMPDEST PUSH1 0x60 PUSH1 0x2 DUP1 SLOAD PUSH2 0xB96 SWAP1 PUSH2 0x3354 JUMP JUMPDEST PUSH1 0xF DUP1 SLOAD PUSH2 0x1491 SWAP1 PUSH2 0x3354 JUMP JUMPDEST DUP1 PUSH1 0x1F ADD PUSH1 0x20 DUP1 SWAP2 DIV MUL PUSH1 0x20 ADD PUSH1 0x40 MLOAD SWAP1 DUP2 ADD PUSH1 0x40 MSTORE DUP1 SWAP3 SWAP2 SWAP1 DUP2 DUP2 MSTORE PUSH1 0x20 ADD DUP3 DUP1 SLOAD PUSH2 0x14BD SWAP1 PUSH2 0x3354 JUMP JUMPDEST DUP1 ISZERO PUSH2 0x150A JUMPI DUP1 PUSH1 0x1F LT PUSH2 0x14DF JUMPI PUSH2 0x100 DUP1 DUP4 SLOAD DIV MUL DUP4 MSTORE SWAP2 PUSH1 0x20 ADD SWAP2 PUSH2 0x150A JUMP JUMPDEST DUP3 ADD SWAP2 SWAP1 PUSH1 0x0 MSTORE PUSH1 0x20 PUSH1 0x0 KECCAK256 SWAP1 JUMPDEST DUP2 SLOAD DUP2 MSTORE SWAP1 PUSH1 0x1 ADD SWAP1 PUSH1 0x20 ADD DUP1 DUP4 GT PUSH2 0x14ED JUMPI DUP3 SWAP1 SUB PUSH1 0x1F AND DUP3 ADD SWAP2 JUMPDEST POP POP POP POP POP DUP2 JUMP JUMPDEST PUSH1 0x0 SLOAD PUSH1 0x1 PUSH1 0x1 PUSH1 0xA0 SHL SUB AND CALLER EQ PUSH2 0x153C JUMPI PUSH1 0x40 MLOAD PUSH3 0x461BCD PUSH1 0xE5 SHL DUP2 MSTORE PUSH1 0x4 ADD PUSH2 0xCE9 SWAP1 PUSH2 0x338E JUMP JUMPDEST ADDRESS PUSH1 0x1 PUSH1 0x1 PUSH1 0xA0 SHL SUB DUP4 AND SUB PUSH2 0x1584 JUMPI PUSH1 0x40 MLOAD PUSH3 0x461BCD PUSH1 0xE5 SHL DUP2 MSTORE PUSH1 0x20 PUSH1 0x4 DUP3 ADD MSTORE PUSH1 0xD PUSH1 0x24 DUP3 ADD MSTORE PUSH13 0x53656C66207769746864726177 PUSH1 0x98 SHL PUSH1 0x44 DUP3 ADD MSTORE PUSH1 0x64 ADD PUSH2 0xCE9 JUMP JUMPDEST DUP2 PUSH1 0x1 PUSH1 0x1 PUSH1 0xA0 SHL SUB AND PUSH4 0xA9059CBB PUSH2 0x15A5 PUSH1 0x0 SLOAD PUSH1 0x1 PUSH1 0x1 PUSH1 0xA0 SHL SUB AND SWAP1 JUMP JUMPDEST PUSH1 0x40 MLOAD PUSH1 0x1 PUSH1 0x1 PUSH1 0xE0 SHL SUB NOT PUSH1 0xE0 DUP5 SWAP1 SHL AND DUP2 MSTORE PUSH1 0x1 PUSH1 0x1 PUSH1 0xA0 SHL SUB SWAP1 SWAP2 AND PUSH1 0x4 DUP3 ADD MSTORE PUSH1 0x24 DUP2 ADD DUP5 SWAP1 MSTORE PUSH1 0x44 ADD PUSH1 0x20 PUSH1 0x40 MLOAD DUP1 DUP4 SUB DUP2 PUSH1 0x0 DUP8 GAS CALL ISZERO DUP1 ISZERO PUSH2 0x15F2 JUMPI RETURNDATASIZE PUSH1 0x0 DUP1 RETURNDATACOPY RETURNDATASIZE PUSH1 0x0 REVERT JUMPDEST POP POP POP POP PUSH1 0x40 MLOAD RETURNDATASIZE PUSH1 0x1F NOT PUSH1 0x1F DUP3 ADD AND DUP3 ADD DUP1 PUSH1 0x40 MSTORE POP DUP2 ADD SWAP1 PUSH2 0x1616 SWAP2 SWAP1 PUSH2 0x354B JUMP JUMPDEST POP POP POP JUMP JUMPDEST PUSH1 0x0 SLOAD PUSH1 0x1 PUSH1 0x1 PUSH1 0xA0 SHL SUB AND CALLER EQ PUSH2 0x1645 JUMPI PUSH1 0x40 MLOAD PUSH3 0x461BCD PUSH1 0xE5 SHL DUP2 MSTORE PUSH1 0x4 ADD PUSH2 0xCE9 SWAP1 PUSH2 0x338E JUMP JUMPDEST PUSH1 0x11 DUP1 SLOAD PUSH1 0xFF NOT AND DUP3 ISZERO ISZERO SWAP1 DUP2 OR SWAP1 SWAP2 SSTORE PUSH1 0x40 MLOAD SWAP1 DUP2 MSTORE PUSH32 0x53726DFCAF90650AA7EB35524F4D3220F07413C8D6CB404CC8C18BF5591BC159 SWAP1 PUSH1 0x20 ADD PUSH1 0x40 MLOAD DUP1 SWAP2 SUB SWAP1 LOG1 POP JUMP JUMPDEST PUSH1 0xE DUP1 SLOAD PUSH2 0x1491 SWAP1 PUSH2 0x3354 JUMP JUMPDEST PUSH1 0x0 SLOAD PUSH1 0x1 PUSH1 0x1 PUSH1 0xA0 SHL SUB AND CALLER EQ PUSH2 0x16C3 JUMPI PUSH1 0x40 MLOAD PUSH3 0x461BCD PUSH1 0xE5 SHL DUP2 MSTORE PUSH1 0x4 ADD PUSH2 0xCE9 SWAP1 PUSH2 0x338E JUMP JUMPDEST PUSH1 0x1 PUSH1 0x1 PUSH1 0xA0 SHL SUB AND PUSH1 0x0 SWAP1 DUP2 MSTORE PUSH1 0x8 PUSH1 0x20 MSTORE PUSH1 0x40 SWAP1 KECCAK256 DUP1 SLOAD PUSH1 0xFF NOT AND SWAP1 SSTORE JUMP JUMPDEST PUSH1 0x0 SLOAD PUSH1 0x1 PUSH1 0x1 PUSH1 0xA0 SHL SUB AND CALLER EQ PUSH2 0x170E JUMPI PUSH1 0x40 MLOAD PUSH3 0x461BCD PUSH1 0xE5 SHL DUP2 MSTORE PUSH1 0x4 ADD PUSH2 0xCE9 SWAP1 PUSH2 0x338E JUMP JUMPDEST PUSH1 0x1 PUSH1 0x1 PUSH1 0xA0 SHL SUB DUP2 AND PUSH2 0x1778 JUMPI PUSH1 0x40 MLOAD PUSH3 0x461BCD PUSH1 0xE5 SHL DUP2 MSTORE PUSH1 0x20 PUSH1 0x4 DUP3 ADD MSTORE PUSH1 0x2B PUSH1 0x24 DUP3 ADD MSTORE PUSH32 0x45524332304F776E61626C653A206E6577206F776E657220697320746865207A PUSH1 0x44 DUP3 ADD MSTORE PUSH11 0x65726F2061646472657373 PUSH1 0xA8 SHL PUSH1 0x64 DUP3 ADD MSTORE PUSH1 0x84 ADD PUSH2 0xCE9 JUMP JUMPDEST PUSH1 0x0 DUP1 SLOAD PUSH1 0x40 MLOAD PUSH1 0x1 PUSH1 0x1 PUSH1 0xA0 SHL SUB DUP1 DUP6 AND SWAP4 SWAP3 AND SWAP2 PUSH32 0x8BE0079C531659141344CD1FD0A4F28419497F9722A3DAAFE3B4186F6B6457E0 SWAP2 LOG3 PUSH1 0x0 DUP1 SLOAD PUSH1 0x1 PUSH1 0x1 PUSH1 0xA0 SHL SUB NOT AND PUSH1 0x1 PUSH1 0x1 PUSH1 0xA0 SHL SUB SWAP3 SWAP1 SWAP3 AND SWAP2 SWAP1 SWAP2 OR SWAP1 SSTORE JUMP JUMPDEST PUSH1 0x0 SLOAD PUSH1 0x1 PUSH1 0x1 PUSH1 0xA0 SHL SUB AND CALLER EQ PUSH2 0x17FD JUMPI PUSH1 0x40 MLOAD PUSH3 0x461BCD PUSH1 0xE5 SHL DUP2 MSTORE PUSH1 0x4 ADD PUSH2 0xCE9 SWAP1 PUSH2 0x338E JUMP JUMPDEST PUSH1 0x4 SLOAD PUSH1 0xFF PUSH1 0x1 PUSH1 0xA8 SHL SWAP1 SWAP2 DIV DUP2 AND SWAP1 DUP7 AND GT ISZERO PUSH2 0x1848 JUMPI PUSH1 0x40 MLOAD PUSH3 0x461BCD PUSH1 0xE5 SHL DUP2 MSTORE PUSH1 0x20 PUSH1 0x4 DUP3 ADD MSTORE PUSH1 0x8 PUSH1 0x24 DUP3 ADD MSTORE PUSH8 0x2A231032B93937B9 PUSH1 0xC1 SHL PUSH1 0x44 DUP3 ADD MSTORE PUSH1 0x64 ADD PUSH2 0xCE9 JUMP JUMPDEST PUSH1 0x4 SLOAD PUSH1 0xFF PUSH1 0x1 PUSH1 0xA0 SHL SWAP1 SWAP2 DIV DUP2 AND SWAP1 DUP6 AND GT ISZERO PUSH2 0x1893 JUMPI PUSH1 0x40 MLOAD PUSH3 0x461BCD PUSH1 0xE5 SHL DUP2 MSTORE PUSH1 0x20 PUSH1 0x4 DUP3 ADD MSTORE PUSH1 0x8 PUSH1 0x24 DUP3 ADD MSTORE PUSH8 0x26231032B93937B9 PUSH1 0xC1 SHL PUSH1 0x44 DUP3 ADD MSTORE PUSH1 0x64 ADD PUSH2 0xCE9 JUMP JUMPDEST PUSH1 0x4 SLOAD PUSH1 0xFF PUSH1 0x1 PUSH1 0xB0 SHL SWAP1 SWAP2 DIV DUP2 AND SWAP1 DUP5 AND GT ISZERO PUSH2 0x18DE JUMPI PUSH1 0x40 MLOAD PUSH3 0x461BCD PUSH1 0xE5 SHL DUP2 MSTORE PUSH1 0x20 PUSH1 0x4 DUP3 ADD MSTORE PUSH1 0x8 PUSH1 0x24 DUP3 ADD MSTORE PUSH8 0x21231032B93937B9 PUSH1 0xC1 SHL PUSH1 0x44 DUP3 ADD MSTORE PUSH1 0x64 ADD PUSH2 0xCE9 JUMP JUMPDEST PUSH1 0x4 SLOAD PUSH1 0xFF PUSH1 0x1 PUSH1 0xB8 SHL SWAP1 SWAP2 DIV DUP2 AND SWAP1 DUP4 AND GT ISZERO PUSH2 0x1929 JUMPI PUSH1 0x40 MLOAD PUSH3 0x461BCD PUSH1 0xE5 SHL DUP2 MSTORE PUSH1 0x20 PUSH1 0x4 DUP3 ADD MSTORE PUSH1 0x8 PUSH1 0x24 DUP3 ADD MSTORE PUSH8 0x2BA31032B93937B9 PUSH1 0xC1 SHL PUSH1 0x44 DUP3 ADD MSTORE PUSH1 0x64 ADD PUSH2 0xCE9 JUMP JUMPDEST PUSH1 0x4 SLOAD PUSH1 0xFF PUSH1 0x1 PUSH1 0xC0 SHL SWAP1 SWAP2 DIV DUP2 AND SWAP1 DUP3 AND GT ISZERO PUSH2 0x1975 JUMPI PUSH1 0x40 MLOAD PUSH3 0x461BCD PUSH1 0xE5 SHL DUP2 MSTORE PUSH1 0x20 PUSH1 0x4 DUP3 ADD MSTORE PUSH1 0x9 PUSH1 0x24 DUP3 ADD MSTORE PUSH9 0x2121231032B93937B9 PUSH1 0xB9 SHL PUSH1 0x44 DUP3 ADD MSTORE PUSH1 0x64 ADD PUSH2 0xCE9 JUMP JUMPDEST PUSH1 0x10 DUP1 SLOAD PUSH4 0xFF00FF00 NOT AND PUSH2 0x100 PUSH1 0xFF SWAP8 DUP9 AND MUL PUSH4 0xFF000000 NOT AND OR PUSH4 0x1000000 SWAP6 DUP8 AND SWAP6 SWAP1 SWAP6 MUL SWAP5 SWAP1 SWAP5 OR PUSH10 0xFF000000FF0000000000 NOT AND PUSH1 0x1 PUSH1 0x28 SHL SWAP4 DUP7 AND SWAP4 SWAP1 SWAP4 MUL PUSH1 0xFF PUSH1 0x48 SHL NOT AND SWAP3 SWAP1 SWAP3 OR PUSH1 0x1 PUSH1 0x48 SHL SWAP3 DUP6 AND SWAP3 SWAP1 SWAP3 MUL SWAP2 SWAP1 SWAP2 OR PUSH1 0xFF PUSH1 0x38 SHL NOT AND PUSH1 0x1 PUSH1 0x38 SHL SWAP2 SWAP1 SWAP4 AND MUL SWAP2 SWAP1 SWAP2 OR SWAP1 SSTORE JUMP JUMPDEST PUSH1 0x0 PUSH2 0xD08 DUP3 DUP5 PUSH2 0x3534 JUMP JUMPDEST PUSH1 0x0 PUSH2 0xD08 DUP3 DUP5 PUSH2 0x3568 JUMP JUMPDEST PUSH1 0x1 PUSH1 0x1 PUSH1 0xA0 SHL SUB DUP4 AND PUSH2 0x1A5C JUMPI PUSH1 0x40 MLOAD PUSH3 0x461BCD PUSH1 0xE5 SHL DUP2 MSTORE PUSH1 0x20 PUSH1 0x4 DUP3 ADD DUP2 SWAP1 MSTORE PUSH1 0x24 DUP3 ADD MSTORE PUSH32 0x45524332303A20617070726F76652066726F6D207A65726F2061646472657373 PUSH1 0x44 DUP3 ADD MSTORE PUSH1 0x64 ADD PUSH2 0xCE9 JUMP JUMPDEST PUSH1 0x1 PUSH1 0x1 PUSH1 0xA0 SHL SUB DUP3 AND PUSH2 0x1AB2 JUMPI PUSH1 0x40 MLOAD PUSH3 0x461BCD PUSH1 0xE5 SHL DUP2 MSTORE PUSH1 0x20 PUSH1 0x4 DUP3 ADD MSTORE PUSH1 0x1E PUSH1 0x24 DUP3 ADD MSTORE PUSH32 0x45524332303A20617070726F766520746F207A65726F20616464726573730000 PUSH1 0x44 DUP3 ADD MSTORE PUSH1 0x64 ADD PUSH2 0xCE9 JUMP JUMPDEST PUSH1 0x1 PUSH1 0x1 PUSH1 0xA0 SHL SUB DUP4 DUP2 AND PUSH1 0x0 DUP2 DUP2 MSTORE PUSH1 0x7 PUSH1 0x20 SWAP1 DUP2 MSTORE PUSH1 0x40 DUP1 DUP4 KECCAK256 SWAP5 DUP8 AND DUP1 DUP5 MSTORE SWAP5 DUP3 MSTORE SWAP2 DUP3 SWAP1 KECCAK256 DUP6 SWAP1 SSTORE SWAP1 MLOAD DUP5 DUP2 MSTORE PUSH32 0x8C5BE1E5EBEC7D5BD14F71427D1E84F3DD0314C0F7B2291E5B200AC8C7C3B925 SWAP2 ADD JUMPDEST PUSH1 0x40 MLOAD DUP1 SWAP2 SUB SWAP1 LOG3 POP POP POP JUMP JUMPDEST PUSH1 0x1 PUSH1 0x1 PUSH1 0xA0 SHL SUB DUP4 AND PUSH2 0x1B74 JUMPI PUSH1 0x40 MLOAD PUSH3 0x461BCD PUSH1 0xE5 SHL DUP2 MSTORE PUSH1 0x20 PUSH1 0x4 DUP3 ADD MSTORE PUSH1 0x21 PUSH1 0x24 DUP3 ADD MSTORE PUSH32 0x45524332303A207472616E736665722066726F6D207A65726F20616464726573 PUSH1 0x44 DUP3 ADD MSTORE PUSH1 0x73 PUSH1 0xF8 SHL PUSH1 0x64 DUP3 ADD MSTORE PUSH1 0x84 ADD PUSH2 0xCE9 JUMP JUMPDEST PUSH1 0x1 PUSH1 0x1 PUSH1 0xA0 SHL SUB DUP3 AND PUSH2 0x1BCA JUMPI PUSH1 0x40 MLOAD PUSH3 0x461BCD PUSH1 0xE5 SHL DUP2 MSTORE PUSH1 0x20 PUSH1 0x4 DUP3 ADD MSTORE PUSH1 0x1F PUSH1 0x24 DUP3 ADD MSTORE PUSH32 0x45524332303A207472616E7366657220746F207A65726F206164647265737300 PUSH1 0x44 DUP3 ADD MSTORE PUSH1 0x64 ADD PUSH2 0xCE9 JUMP JUMPDEST PUSH1 0x0 DUP2 GT PUSH2 0x1C2C JUMPI PUSH1 0x40 MLOAD PUSH3 0x461BCD PUSH1 0xE5 SHL DUP2 MSTORE PUSH1 0x20 PUSH1 0x4 DUP3 ADD MSTORE PUSH1 0x29 PUSH1 0x24 DUP3 ADD MSTORE PUSH32 0x5472616E7366657220616D6F756E74206D757374206265206772656174657220 PUSH1 0x44 DUP3 ADD MSTORE PUSH9 0x7468616E207A65726F PUSH1 0xB8 SHL PUSH1 0x64 DUP3 ADD MSTORE PUSH1 0x84 ADD PUSH2 0xCE9 JUMP JUMPDEST PUSH1 0x0 PUSH2 0x1C37 ADDRESS PUSH2 0x11FE JUMP JUMPDEST PUSH1 0x10 SLOAD SWAP1 SWAP2 POP PUSH1 0x1 PUSH1 0xF8 SHL SWAP1 DIV PUSH1 0xFF AND ISZERO DUP1 ISZERO PUSH2 0x1C85 JUMPI POP PUSH32 0x0 PUSH1 0x1 PUSH1 0x1 PUSH1 0xA0 SHL SUB AND DUP4 PUSH1 0x1 PUSH1 0x1 PUSH1 0xA0 SHL SUB AND EQ JUMPDEST DUP1 ISZERO PUSH2 0x1C93 JUMPI POP PUSH1 0x11 SLOAD PUSH1 0xFF AND JUMPDEST ISZERO PUSH2 0x1D14 JUMPI PUSH1 0x12 SLOAD DUP2 LT PUSH2 0x1CAE JUMPI POP PUSH1 0x12 SLOAD PUSH2 0x1CAE DUP2 PUSH2 0x2023 JUMP JUMPDEST PUSH1 0x10 SLOAD PUSH1 0x1 PUSH1 0x48 SHL SWAP1 DIV PUSH1 0xFF AND ISZERO PUSH2 0x1D14 JUMPI PUSH1 0x10 SLOAD SELFBALANCE SWAP1 PUSH2 0x1CD3 SWAP1 PUSH1 0xFF AND PUSH1 0xA PUSH2 0x3525 JUMP JUMPDEST PUSH2 0x1CDE SWAP1 PUSH1 0x1 PUSH2 0x3534 JUMP JUMPDEST DUP2 GT ISZERO PUSH2 0x1D12 JUMPI PUSH1 0x13 SLOAD DUP2 GT ISZERO PUSH2 0x1CF4 JUMPI POP PUSH1 0x13 SLOAD JUMPDEST PUSH2 0x1D12 PUSH2 0x1D0D PUSH1 0x64 PUSH2 0x1D07 DUP5 PUSH1 0x32 PUSH2 0x19EE JUMP JUMPDEST SWAP1 PUSH2 0x19FA JUMP JUMPDEST PUSH2 0x2248 JUMP JUMPDEST POP JUMPDEST PUSH1 0x1 PUSH1 0x1 PUSH1 0xA0 SHL SUB DUP5 AND PUSH1 0x0 SWAP1 DUP2 MSTORE PUSH1 0x8 PUSH1 0x20 MSTORE PUSH1 0x40 SWAP1 KECCAK256 SLOAD PUSH1 0x1 SWAP1 PUSH1 0xFF AND DUP1 PUSH2 0x1D56 JUMPI POP PUSH1 0x1 PUSH1 0x1 PUSH1 0xA0 SHL SUB DUP5 AND PUSH1 0x0 SWAP1 DUP2 MSTORE PUSH1 0x8 PUSH1 0x20 MSTORE PUSH1 0x40 SWAP1 KECCAK256 SLOAD PUSH1 0xFF AND JUMPDEST ISZERO PUSH2 0x1D5F JUMPI POP PUSH1 0x0 JUMPDEST PUSH2 0x1D6B DUP6 DUP6 DUP6 DUP5 PUSH2 0x227E JUMP JUMPDEST POP POP POP POP POP JUMP JUMPDEST PUSH1 0x0 DUP2 DUP5 DUP5 GT ISZERO PUSH2 0x1D96 JUMPI PUSH1 0x40 MLOAD PUSH3 0x461BCD PUSH1 0xE5 SHL DUP2 MSTORE PUSH1 0x4 ADD PUSH2 0xCE9 SWAP2 SWAP1 PUSH2 0x314F JUMP JUMPDEST POP POP POP SWAP1 SUB SWAP1 JUMP JUMPDEST PUSH1 0x0 DUP1 PUSH1 0x0 PUSH2 0x1DAB PUSH2 0x249F JUMP JUMPDEST SWAP1 SWAP3 POP SWAP1 POP PUSH2 0x1DBA DUP3 DUP3 PUSH2 0x19FA JUMP JUMPDEST SWAP3 POP POP POP SWAP1 JUMP JUMPDEST PUSH1 0x0 PUSH2 0xD08 DUP3 DUP5 PUSH2 0x358A JUMP JUMPDEST PUSH1 0x0 DUP1 PUSH1 0x0 DUP1 PUSH1 0x0 DUP1 PUSH1 0x0 DUP1 PUSH1 0x0 PUSH2 0x1DE4 DUP11 PUSH2 0x2621 JUMP JUMPDEST SWAP3 POP SWAP3 POP SWAP3 POP PUSH1 0x0 DUP1 PUSH1 0x0 PUSH2 0x1E02 DUP14 DUP7 DUP7 PUSH2 0x1DFD PUSH2 0x1D9E JUMP JUMPDEST PUSH2 0x2663 JUMP JUMPDEST SWAP2 SWAP16 SWAP1 SWAP15 POP SWAP1 SWAP13 POP SWAP6 SWAP11 POP SWAP4 SWAP9 POP SWAP2 SWAP7 POP SWAP3 SWAP5 POP POP POP POP POP JUMP JUMPDEST PUSH1 0x0 PUSH2 0xD08 DUP3 DUP5 PUSH2 0x33FF JUMP JUMPDEST PUSH1 0x1 PUSH1 0x1 PUSH1 0xA0 SHL SUB DUP3 AND PUSH2 0x1E88 JUMPI PUSH1 0x40 MLOAD PUSH3 0x461BCD PUSH1 0xE5 SHL DUP2 MSTORE PUSH1 0x20 PUSH1 0x4 DUP3 ADD MSTORE PUSH1 0x21 PUSH1 0x24 DUP3 ADD MSTORE PUSH32 0x42455032303A206275726E2066726F6D20746865207A65726F20616464726573 PUSH1 0x44 DUP3 ADD MSTORE PUSH1 0x73 PUSH1 0xF8 SHL PUSH1 0x64 DUP3 ADD MSTORE PUSH1 0x84 ADD PUSH2 0xCE9 JUMP JUMPDEST PUSH1 0x10 SLOAD PUSH1 0x0 SWAP1 PUSH2 0x1E9C SWAP1 PUSH1 0xFF AND PUSH1 0xA PUSH2 0x359D JUMP JUMPDEST PUSH2 0x1EA6 SWAP1 DUP4 PUSH2 0x3534 JUMP JUMPDEST SWAP1 POP PUSH2 0x1EE5 DUP2 PUSH1 0x40 MLOAD DUP1 PUSH1 0x60 ADD PUSH1 0x40 MSTORE DUP1 PUSH1 0x22 DUP2 MSTORE PUSH1 0x20 ADD PUSH2 0x370B PUSH1 0x22 SWAP2 CODECOPY PUSH1 0x1 PUSH1 0x1 PUSH1 0xA0 SHL SUB DUP7 AND PUSH1 0x0 SWAP1 DUP2 MSTORE PUSH1 0x6 PUSH1 0x20 MSTORE PUSH1 0x40 SWAP1 KECCAK256 SLOAD SWAP2 SWAP1 PUSH2 0x1D72 JUMP JUMPDEST PUSH1 0x1 PUSH1 0x1 PUSH1 0xA0 SHL SUB DUP5 AND PUSH1 0x0 SWAP1 DUP2 MSTORE PUSH1 0x6 PUSH1 0x20 MSTORE PUSH1 0x40 SWAP1 KECCAK256 SSTORE PUSH1 0xB SLOAD PUSH2 0x1F0B SWAP1 DUP3 PUSH2 0x1E1C JUMP JUMPDEST PUSH1 0xB SSTORE PUSH1 0x40 MLOAD DUP2 DUP2 MSTORE PUSH1 0x0 SWAP1 PUSH1 0x1 PUSH1 0x1 PUSH1 0xA0 SHL SUB DUP6 AND SWAP1 PUSH1 0x0 DUP1 MLOAD PUSH1 0x20 PUSH2 0x36EB DUP4 CODECOPY DUP2 MLOAD SWAP2 MSTORE SWAP1 PUSH1 0x20 ADD PUSH2 0x1B07 JUMP JUMPDEST PUSH1 0x1 PUSH1 0x1 PUSH1 0xA0 SHL SUB DUP3 AND PUSH2 0x1F90 JUMPI PUSH1 0x40 MLOAD PUSH3 0x461BCD PUSH1 0xE5 SHL DUP2 MSTORE PUSH1 0x20 PUSH1 0x4 DUP3 ADD MSTORE PUSH1 0x1F PUSH1 0x24 DUP3 ADD MSTORE PUSH32 0x42455032303A206D696E7420746F20746865207A65726F206164647265737300 PUSH1 0x44 DUP3 ADD MSTORE PUSH1 0x64 ADD PUSH2 0xCE9 JUMP JUMPDEST PUSH1 0x10 SLOAD PUSH1 0x0 SWAP1 PUSH2 0x1FA4 SWAP1 PUSH1 0xFF AND PUSH1 0xA PUSH2 0x359D JUMP JUMPDEST PUSH2 0x1FAE SWAP1 DUP4 PUSH2 0x3534 JUMP JUMPDEST PUSH1 0xB SLOAD SWAP1 SWAP2 POP PUSH2 0x1FBE SWAP1 DUP3 PUSH2 0x1DC1 JUMP JUMPDEST PUSH1 0xB SSTORE PUSH1 0x1 PUSH1 0x1 PUSH1 0xA0 SHL SUB DUP4 AND PUSH1 0x0 SWAP1 DUP2 MSTORE PUSH1 0x6 PUSH1 0x20 MSTORE PUSH1 0x40 SWAP1 KECCAK256 SLOAD PUSH2 0x1FE4 SWAP1 DUP3 PUSH2 0x1DC1 JUMP JUMPDEST PUSH1 0x1 PUSH1 0x1 PUSH1 0xA0 SHL SUB DUP5 AND PUSH1 0x0 DUP2 DUP2 MSTORE PUSH1 0x6 PUSH1 0x20 MSTORE PUSH1 0x40 DUP1 DUP3 KECCAK256 SWAP4 SWAP1 SWAP4 SSTORE SWAP2 MLOAD SWAP1 SWAP2 SWAP1 PUSH1 0x0 DUP1 MLOAD PUSH1 0x20 PUSH2 0x36EB DUP4 CODECOPY DUP2 MLOAD SWAP2 MSTORE SWAP1 PUSH2 0x1B07 SWAP1 DUP6 DUP2 MSTORE PUSH1 0x20 ADD SWAP1 JUMP JUMPDEST PUSH1 0x10 DUP1 SLOAD PUSH1 0x1 PUSH1 0x1 PUSH1 0xF8 SHL SUB AND PUSH1 0x1 PUSH1 0xF8 SHL OR SWAP1 DUP2 SWAP1 SSTORE PUSH1 0x0 SWAP1 PUSH1 0x1 PUSH1 0x48 SHL DUP2 DIV PUSH1 0xFF SWAP1 DUP2 AND SWAP2 PUSH4 0x1000000 DUP2 DIV DUP3 AND SWAP2 PUSH2 0x2070 SWAP2 PUSH1 0x1 PUSH1 0x38 SHL DUP2 DIV DUP3 AND SWAP2 PUSH1 0x1 PUSH1 0x28 SHL SWAP1 SWAP2 DIV AND PUSH2 0x35A9 JUMP JUMPDEST PUSH2 0x207A SWAP2 SWAP1 PUSH2 0x35A9 JUMP JUMPDEST PUSH2 0x2084 SWAP2 SWAP1 PUSH2 0x35A9 JUMP JUMPDEST PUSH1 0x10 SLOAD SWAP1 SWAP2 POP PUSH1 0x0 SWAP1 DUP2 SWAP1 PUSH1 0x1 PUSH1 0x28 SHL SWAP1 DIV PUSH1 0xFF AND ISZERO PUSH2 0x20E3 JUMPI PUSH1 0x10 SLOAD PUSH2 0x20C5 SWAP1 PUSH1 0xFF PUSH1 0x1 PUSH1 0x28 SHL SWAP1 SWAP2 DIV DUP2 AND SWAP1 PUSH2 0x20BF SWAP1 DUP8 SWAP1 DUP8 AND PUSH2 0x19FA JUMP JUMPDEST SWAP1 PUSH2 0x19EE JUMP JUMPDEST PUSH1 0x3 SLOAD SWAP1 SWAP3 POP PUSH2 0x20E0 SWAP1 ADDRESS SWAP1 PUSH1 0x1 PUSH1 0x1 PUSH1 0xA0 SHL SUB AND DUP5 PUSH2 0x26B3 JUMP JUMPDEST POP DUP1 JUMPDEST PUSH1 0x10 SLOAD PUSH1 0x1 PUSH1 0x38 SHL SWAP1 DIV PUSH1 0xFF AND ISZERO PUSH2 0x2145 JUMPI PUSH1 0x10 SLOAD PUSH2 0x2116 SWAP1 PUSH1 0xFF PUSH1 0x1 PUSH1 0x38 SHL SWAP1 SWAP2 DIV DUP2 AND SWAP1 PUSH2 0x20BF SWAP1 DUP8 SWAP1 DUP8 AND PUSH2 0x19FA JUMP JUMPDEST SWAP2 POP PUSH2 0x2138 ADDRESS PUSH1 0x10 PUSH1 0xB SWAP1 SLOAD SWAP1 PUSH2 0x100 EXP SWAP1 DIV PUSH1 0x1 PUSH1 0x1 PUSH1 0xA0 SHL SUB AND DUP5 PUSH2 0x26B3 JUMP JUMPDEST PUSH2 0x2142 DUP3 DUP3 PUSH2 0x358A JUMP JUMPDEST SWAP1 POP JUMPDEST PUSH1 0x10 SLOAD PUSH1 0x1 PUSH1 0x48 SHL SWAP1 DIV PUSH1 0xFF AND ISZERO PUSH2 0x2190 JUMPI PUSH1 0x10 SLOAD PUSH2 0x2178 SWAP1 PUSH1 0xFF PUSH1 0x1 PUSH1 0x48 SHL SWAP1 SWAP2 DIV DUP2 AND SWAP1 PUSH2 0x20BF SWAP1 DUP8 SWAP1 DUP8 AND PUSH2 0x19FA JUMP JUMPDEST SWAP2 POP PUSH2 0x2183 DUP3 PUSH2 0x2807 JUMP JUMPDEST PUSH2 0x218D DUP3 DUP3 PUSH2 0x358A JUMP JUMPDEST SWAP1 POP JUMPDEST PUSH1 0x10 SLOAD PUSH4 0x1000000 SWAP1 DIV PUSH1 0xFF AND ISZERO PUSH2 0x2233 JUMPI PUSH2 0x21AC DUP5 DUP3 PUSH2 0x1E1C JUMP JUMPDEST SWAP4 POP PUSH1 0x0 PUSH2 0x21BB DUP6 PUSH1 0x2 PUSH2 0x19FA JUMP JUMPDEST SWAP1 POP PUSH1 0x0 PUSH2 0x21C9 DUP7 DUP4 PUSH2 0x1E1C JUMP JUMPDEST SWAP1 POP SELFBALANCE PUSH2 0x21D5 DUP4 PUSH2 0x2807 JUMP JUMPDEST PUSH1 0x0 PUSH2 0x21E1 SELFBALANCE DUP4 PUSH2 0x1E1C JUMP JUMPDEST SWAP1 POP PUSH2 0x21ED DUP4 DUP3 PUSH2 0x29D2 JUMP JUMPDEST PUSH1 0x40 DUP1 MLOAD DUP6 DUP2 MSTORE PUSH1 0x20 DUP2 ADD DUP4 SWAP1 MSTORE SWAP1 DUP2 ADD DUP5 SWAP1 MSTORE PUSH32 0x17BBFB9A6069321B6DED73BD96327C9E6B7212A5CD51FF219CD61370ACAFB561 SWAP1 PUSH1 0x60 ADD PUSH1 0x40 MLOAD DUP1 SWAP2 SUB SWAP1 LOG1 POP POP POP POP JUMPDEST POP POP PUSH1 0x10 DUP1 SLOAD PUSH1 0x1 PUSH1 0x1 PUSH1 0xF8 SHL SUB AND SWAP1 SSTORE POP POP JUMP JUMPDEST PUSH1 0x10 DUP1 SLOAD PUSH1 0x1 PUSH1 0x1 PUSH1 0xF8 SHL SUB AND PUSH1 0x1 PUSH1 0xF8 SHL OR SWAP1 SSTORE DUP1 ISZERO PUSH2 0x226C JUMPI PUSH2 0x226C DUP2 PUSH2 0x2ADC JUMP JUMPDEST POP PUSH1 0x10 DUP1 SLOAD PUSH1 0x1 PUSH1 0x1 PUSH1 0xF8 SHL SUB AND SWAP1 SSTORE JUMP JUMPDEST DUP1 PUSH2 0x228B JUMPI PUSH2 0x228B PUSH2 0x2C72 JUMP JUMPDEST PUSH1 0x1 PUSH1 0x1 PUSH1 0xA0 SHL SUB DUP5 AND PUSH1 0x0 SWAP1 DUP2 MSTORE PUSH1 0x9 PUSH1 0x20 MSTORE PUSH1 0x40 SWAP1 KECCAK256 SLOAD PUSH1 0xFF AND DUP1 ISZERO PUSH2 0x22CC JUMPI POP PUSH1 0x1 PUSH1 0x1 PUSH1 0xA0 SHL SUB DUP4 AND PUSH1 0x0 SWAP1 DUP2 MSTORE PUSH1 0x9 PUSH1 0x20 MSTORE PUSH1 0x40 SWAP1 KECCAK256 SLOAD PUSH1 0xFF AND ISZERO JUMPDEST ISZERO PUSH2 0x22E1 JUMPI PUSH2 0x22DC DUP5 DUP5 DUP5 PUSH2 0x2DAE JUMP JUMPDEST PUSH2 0x23DF JUMP JUMPDEST PUSH1 0x1 PUSH1 0x1 PUSH1 0xA0 SHL SUB DUP5 AND PUSH1 0x0 SWAP1 DUP2 MSTORE PUSH1 0x9 PUSH1 0x20 MSTORE PUSH1 0x40 SWAP1 KECCAK256 SLOAD PUSH1 0xFF AND ISZERO DUP1 ISZERO PUSH2 0x2322 JUMPI POP PUSH1 0x1 PUSH1 0x1 PUSH1 0xA0 SHL SUB DUP4 AND PUSH1 0x0 SWAP1 DUP2 MSTORE PUSH1 0x9 PUSH1 0x20 MSTORE PUSH1 0x40 SWAP1 KECCAK256 SLOAD PUSH1 0xFF AND JUMPDEST ISZERO PUSH2 0x2332 JUMPI PUSH2 0x22DC DUP5 DUP5 DUP5 PUSH2 0x2EC2 JUMP JUMPDEST PUSH1 0x1 PUSH1 0x1 PUSH1 0xA0 SHL SUB DUP5 AND PUSH1 0x0 SWAP1 DUP2 MSTORE PUSH1 0x9 PUSH1 0x20 MSTORE PUSH1 0x40 SWAP1 KECCAK256 SLOAD PUSH1 0xFF AND ISZERO DUP1 ISZERO PUSH2 0x2374 JUMPI POP PUSH1 0x1 PUSH1 0x1 PUSH1 0xA0 SHL SUB DUP4 AND PUSH1 0x0 SWAP1 DUP2 MSTORE PUSH1 0x9 PUSH1 0x20 MSTORE PUSH1 0x40 SWAP1 KECCAK256 SLOAD PUSH1 0xFF AND ISZERO JUMPDEST ISZERO PUSH2 0x2384 JUMPI PUSH2 0x22DC DUP5 DUP5 DUP5 PUSH2 0x2F6B JUMP JUMPDEST PUSH1 0x1 PUSH1 0x1 PUSH1 0xA0 SHL SUB DUP5 AND PUSH1 0x0 SWAP1 DUP2 MSTORE PUSH1 0x9 PUSH1 0x20 MSTORE PUSH1 0x40 SWAP1 KECCAK256 SLOAD PUSH1 0xFF AND DUP1 ISZERO PUSH2 0x23C4 JUMPI POP PUSH1 0x1 PUSH1 0x1 PUSH1 0xA0 SHL SUB DUP4 AND PUSH1 0x0 SWAP1 DUP2 MSTORE PUSH1 0x9 PUSH1 0x20 MSTORE PUSH1 0x40 SWAP1 KECCAK256 SLOAD PUSH1 0xFF AND JUMPDEST ISZERO PUSH2 0x23D4 JUMPI PUSH2 0x22DC DUP5 DUP5 DUP5 PUSH2 0x2FAF JUMP JUMPDEST PUSH2 0x23DF DUP5 DUP5 DUP5 PUSH2 0x2F6B JUMP JUMPDEST DUP1 PUSH2 0x2499 JUMPI PUSH1 0x10 DUP1 SLOAD PUSH1 0xFF PUSH1 0x48 SHL NOT PUSH8 0xFF00FF0000000000 NOT PUSH4 0xFF00FF00 NOT DUP4 AND PUSH4 0xFF000000 NOT PUSH2 0x100 PUSH3 0x10000 DUP7 DIV PUSH1 0xFF SWAP1 DUP2 AND SWAP2 SWAP1 SWAP2 MUL SWAP2 DUP3 AND SWAP3 SWAP1 SWAP3 OR PUSH5 0x100000000 PUSH2 0xFF00 NOT SWAP1 SWAP7 AND SWAP1 SWAP2 OR SWAP5 SWAP1 SWAP5 DIV DUP2 AND PUSH4 0x1000000 MUL SWAP4 SWAP1 SWAP4 OR SWAP1 DUP2 AND PUSH1 0xFF PUSH1 0x38 SHL NOT PUSH7 0x1000000000000 DUP4 DIV DUP6 AND PUSH1 0x1 PUSH1 0x28 SHL MUL SWAP1 DUP2 AND SWAP2 SWAP1 SWAP2 OR PUSH1 0x1 PUSH1 0x40 SHL PUSH6 0xFF0000000000 NOT SWAP1 SWAP4 AND SWAP1 SWAP2 OR SWAP2 SWAP1 SWAP2 DIV DUP4 AND PUSH1 0x1 PUSH1 0x38 SHL MUL OR SWAP1 DUP2 AND PUSH1 0x1 PUSH1 0x50 SHL SWAP1 SWAP2 DIV SWAP1 SWAP2 AND PUSH1 0x1 PUSH1 0x48 SHL MUL OR SWAP1 SSTORE JUMPDEST POP POP POP POP JUMP JUMPDEST PUSH1 0xC SLOAD PUSH1 0xB SLOAD PUSH1 0x0 SWAP2 DUP3 SWAP2 DUP3 JUMPDEST PUSH1 0xA SLOAD DUP2 LT ISZERO PUSH2 0x25F1 JUMPI DUP3 PUSH1 0x5 PUSH1 0x0 PUSH1 0xA DUP5 DUP2 SLOAD DUP2 LT PUSH2 0x24CE JUMPI PUSH2 0x24CE PUSH2 0x33D3 JUMP JUMPDEST PUSH1 0x0 SWAP2 DUP3 MSTORE PUSH1 0x20 DUP1 DUP4 KECCAK256 SWAP1 SWAP2 ADD SLOAD PUSH1 0x1 PUSH1 0x1 PUSH1 0xA0 SHL SUB AND DUP4 MSTORE DUP3 ADD SWAP3 SWAP1 SWAP3 MSTORE PUSH1 0x40 ADD SWAP1 KECCAK256 SLOAD GT DUP1 PUSH2 0x2539 JUMPI POP DUP2 PUSH1 0x6 PUSH1 0x0 PUSH1 0xA DUP5 DUP2 SLOAD DUP2 LT PUSH2 0x2512 JUMPI PUSH2 0x2512 PUSH2 0x33D3 JUMP JUMPDEST PUSH1 0x0 SWAP2 DUP3 MSTORE PUSH1 0x20 DUP1 DUP4 KECCAK256 SWAP1 SWAP2 ADD SLOAD PUSH1 0x1 PUSH1 0x1 PUSH1 0xA0 SHL SUB AND DUP4 MSTORE DUP3 ADD SWAP3 SWAP1 SWAP3 MSTORE PUSH1 0x40 ADD SWAP1 KECCAK256 SLOAD GT JUMPDEST ISZERO PUSH2 0x254F JUMPI PUSH1 0xC SLOAD PUSH1 0xB SLOAD SWAP5 POP SWAP5 POP POP POP POP SWAP1 SWAP2 JUMP JUMPDEST PUSH2 0x2595 PUSH1 0x5 PUSH1 0x0 PUSH1 0xA DUP5 DUP2 SLOAD DUP2 LT PUSH2 0x2569 JUMPI PUSH2 0x2569 PUSH2 0x33D3 JUMP JUMPDEST PUSH1 0x0 SWAP2 DUP3 MSTORE PUSH1 0x20 DUP1 DUP4 KECCAK256 SWAP1 SWAP2 ADD SLOAD PUSH1 0x1 PUSH1 0x1 PUSH1 0xA0 SHL SUB AND DUP4 MSTORE DUP3 ADD SWAP3 SWAP1 SWAP3 MSTORE PUSH1 0x40 ADD SWAP1 KECCAK256 SLOAD DUP5 SWAP1 PUSH2 0x1E1C JUMP JUMPDEST SWAP3 POP PUSH2 0x25DD PUSH1 0x6 PUSH1 0x0 PUSH1 0xA DUP5 DUP2 SLOAD DUP2 LT PUSH2 0x25B1 JUMPI PUSH2 0x25B1 PUSH2 0x33D3 JUMP JUMPDEST PUSH1 0x0 SWAP2 DUP3 MSTORE PUSH1 0x20 DUP1 DUP4 KECCAK256 SWAP1 SWAP2 ADD SLOAD PUSH1 0x1 PUSH1 0x1 PUSH1 0xA0 SHL SUB AND DUP4 MSTORE DUP3 ADD SWAP3 SWAP1 SWAP3 MSTORE PUSH1 0x40 ADD SWAP1 KECCAK256 SLOAD DUP4 SWAP1 PUSH2 0x1E1C JUMP JUMPDEST SWAP2 POP DUP1 PUSH2 0x25E9 DUP2 PUSH2 0x3428 JUMP JUMPDEST SWAP2 POP POP PUSH2 0x24AC JUMP JUMPDEST POP PUSH1 0xB SLOAD PUSH1 0xC SLOAD PUSH2 0x2601 SWAP2 PUSH2 0x19FA JUMP JUMPDEST DUP3 LT ISZERO PUSH2 0x2618 JUMPI PUSH1 0xC SLOAD PUSH1 0xB SLOAD SWAP4 POP SWAP4 POP POP POP SWAP1 SWAP2 JUMP JUMPDEST SWAP1 SWAP4 SWAP1 SWAP3 POP SWAP1 POP JUMP JUMPDEST PUSH1 0x0 DUP1 PUSH1 0x0 DUP1 PUSH2 0x2630 DUP6 PUSH2 0x3022 JUMP JUMPDEST SWAP1 POP PUSH1 0x0 PUSH2 0x263D DUP7 PUSH2 0x3042 JUMP JUMPDEST SWAP1 POP PUSH1 0x0 PUSH2 0x2655 DUP3 PUSH2 0x264F DUP10 DUP7 PUSH2 0x1E1C JUMP JUMPDEST SWAP1 PUSH2 0x1E1C JUMP JUMPDEST SWAP8 SWAP3 SWAP7 POP SWAP1 SWAP5 POP SWAP1 SWAP3 POP POP POP JUMP JUMPDEST PUSH1 0x0 DUP1 DUP1 DUP1 PUSH2 0x2672 DUP9 DUP7 PUSH2 0x19EE JUMP JUMPDEST SWAP1 POP PUSH1 0x0 PUSH2 0x2680 DUP9 DUP8 PUSH2 0x19EE JUMP JUMPDEST SWAP1 POP PUSH1 0x0 PUSH2 0x268E DUP9 DUP9 PUSH2 0x19EE JUMP JUMPDEST SWAP1 POP PUSH1 0x0 PUSH2 0x26A0 DUP3 PUSH2 0x264F DUP7 DUP7 PUSH2 0x1E1C JUMP JUMPDEST SWAP4 SWAP12 SWAP4 SWAP11 POP SWAP2 SWAP9 POP SWAP2 SWAP7 POP POP POP POP POP POP POP JUMP JUMPDEST PUSH1 0x1 PUSH1 0x1 PUSH1 0xA0 SHL SUB DUP4 AND PUSH1 0x0 SWAP1 DUP2 MSTORE PUSH1 0x5 PUSH1 0x20 MSTORE PUSH1 0x40 SWAP1 KECCAK256 SLOAD PUSH2 0x26D6 SWAP1 DUP3 PUSH2 0x1E1C JUMP JUMPDEST PUSH1 0x1 PUSH1 0x1 PUSH1 0xA0 SHL SUB DUP1 DUP6 AND PUSH1 0x0 SWAP1 DUP2 MSTORE PUSH1 0x5 PUSH1 0x20 MSTORE PUSH1 0x40 DUP1 DUP3 KECCAK256 SWAP4 SWAP1 SWAP4 SSTORE SWAP1 DUP5 AND DUP2 MSTORE KECCAK256 SLOAD PUSH2 0x2705 SWAP1 DUP3 PUSH2 0x1DC1 JUMP JUMPDEST PUSH1 0x1 PUSH1 0x1 PUSH1 0xA0 SHL SUB DUP1 DUP5 AND PUSH1 0x0 SWAP1 DUP2 MSTORE PUSH1 0x5 PUSH1 0x20 SWAP1 DUP2 MSTORE PUSH1 0x40 DUP1 DUP4 KECCAK256 SWAP5 SWAP1 SWAP5 SSTORE SWAP2 DUP7 AND DUP2 MSTORE PUSH1 0x9 SWAP1 SWAP2 MSTORE KECCAK256 SLOAD PUSH1 0xFF AND ISZERO PUSH2 0x2776 JUMPI PUSH1 0x1 PUSH1 0x1 PUSH1 0xA0 SHL SUB DUP4 AND PUSH1 0x0 SWAP1 DUP2 MSTORE PUSH1 0x6 PUSH1 0x20 MSTORE PUSH1 0x40 SWAP1 KECCAK256 SLOAD PUSH2 0x275C SWAP1 DUP3 PUSH2 0x1E1C JUMP JUMPDEST PUSH1 0x1 PUSH1 0x1 PUSH1 0xA0 SHL SUB DUP5 AND PUSH1 0x0 SWAP1 DUP2 MSTORE PUSH1 0x6 PUSH1 0x20 MSTORE PUSH1 0x40 SWAP1 KECCAK256 SSTORE JUMPDEST PUSH1 0x1 PUSH1 0x1 PUSH1 0xA0 SHL SUB DUP3 AND PUSH1 0x0 SWAP1 DUP2 MSTORE PUSH1 0x9 PUSH1 0x20 MSTORE PUSH1 0x40 SWAP1 KECCAK256 SLOAD PUSH1 0xFF AND ISZERO PUSH2 0x27D4 JUMPI PUSH1 0x1 PUSH1 0x1 PUSH1 0xA0 SHL SUB DUP3 AND PUSH1 0x0 SWAP1 DUP2 MSTORE PUSH1 0x6 PUSH1 0x20 MSTORE PUSH1 0x40 SWAP1 KECCAK256 SLOAD PUSH2 0x27BA SWAP1 DUP3 PUSH2 0x1DC1 JUMP JUMPDEST PUSH1 0x1 PUSH1 0x1 PUSH1 0xA0 SHL SUB DUP4 AND PUSH1 0x0 SWAP1 DUP2 MSTORE PUSH1 0x6 PUSH1 0x20 MSTORE PUSH1 0x40 SWAP1 KECCAK256 SSTORE JUMPDEST DUP2 PUSH1 0x1 PUSH1 0x1 PUSH1 0xA0 SHL SUB AND DUP4 PUSH1 0x1 PUSH1 0x1 PUSH1 0xA0 SHL SUB AND PUSH1 0x0 DUP1 MLOAD PUSH1 0x20 PUSH2 0x36EB DUP4 CODECOPY DUP2 MLOAD SWAP2 MSTORE DUP4 PUSH1 0x40 MLOAD PUSH2 0x1B07 SWAP2 DUP2 MSTORE PUSH1 0x20 ADD SWAP1 JUMP JUMPDEST PUSH1 0x40 DUP1 MLOAD PUSH1 0x2 DUP1 DUP3 MSTORE PUSH1 0x60 DUP3 ADD DUP4 MSTORE PUSH1 0x0 SWAP3 PUSH1 0x20 DUP4 ADD SWAP1 DUP1 CALLDATASIZE DUP4 CALLDATACOPY ADD SWAP1 POP POP SWAP1 POP ADDRESS DUP2 PUSH1 0x0 DUP2 MLOAD DUP2 LT PUSH2 0x283C JUMPI PUSH2 0x283C PUSH2 0x33D3 JUMP JUMPDEST PUSH1 0x20 MUL PUSH1 0x20 ADD ADD SWAP1 PUSH1 0x1 PUSH1 0x1 PUSH1 0xA0 SHL SUB AND SWAP1 DUP2 PUSH1 0x1 PUSH1 0x1 PUSH1 0xA0 SHL SUB AND DUP2 MSTORE POP POP PUSH32 0x0 PUSH1 0x1 PUSH1 0x1 PUSH1 0xA0 SHL SUB AND PUSH4 0xAD5C4648 PUSH1 0x40 MLOAD DUP2 PUSH4 0xFFFFFFFF AND PUSH1 0xE0 SHL DUP2 MSTORE PUSH1 0x4 ADD PUSH1 0x20 PUSH1 0x40 MLOAD DUP1 DUP4 SUB DUP2 DUP7 GAS STATICCALL ISZERO DUP1 ISZERO PUSH2 0x28BA JUMPI RETURNDATASIZE PUSH1 0x0 DUP1 RETURNDATACOPY RETURNDATASIZE PUSH1 0x0 REVERT JUMPDEST POP POP POP POP PUSH1 0x40 MLOAD RETURNDATASIZE PUSH1 0x1F NOT PUSH1 0x1F DUP3 ADD AND DUP3 ADD DUP1 PUSH1 0x40 MSTORE POP DUP2 ADD SWAP1 PUSH2 0x28DE SWAP2 SWAP1 PUSH2 0x35C2 JUMP JUMPDEST DUP2 PUSH1 0x1 DUP2 MLOAD DUP2 LT PUSH2 0x28F1 JUMPI PUSH2 0x28F1 PUSH2 0x33D3 JUMP JUMPDEST PUSH1 0x20 MUL PUSH1 0x20 ADD ADD SWAP1 PUSH1 0x1 PUSH1 0x1 PUSH1 0xA0 SHL SUB AND SWAP1 DUP2 PUSH1 0x1 PUSH1 0x1 PUSH1 0xA0 SHL SUB AND DUP2 MSTORE POP POP PUSH2 0x293C ADDRESS PUSH32 0x0 DUP5 PUSH2 0x1A06 JUMP JUMPDEST PUSH1 0x1 PUSH1 0x1 PUSH1 0xA0 SHL SUB PUSH32 0x0 AND PUSH4 0x791AC947 DUP4 PUSH1 0x0 DUP5 ADDRESS PUSH2 0x297C TIMESTAMP PUSH2 0x12C PUSH2 0x1DC1 JUMP JUMPDEST PUSH1 0x40 MLOAD DUP7 PUSH4 0xFFFFFFFF AND PUSH1 0xE0 SHL DUP2 MSTORE PUSH1 0x4 ADD PUSH2 0x299C SWAP6 SWAP5 SWAP4 SWAP3 SWAP2 SWAP1 PUSH2 0x3623 JUMP JUMPDEST PUSH1 0x0 PUSH1 0x40 MLOAD DUP1 DUP4 SUB DUP2 PUSH1 0x0 DUP8 DUP1 EXTCODESIZE ISZERO DUP1 ISZERO PUSH2 0x29B6 JUMPI PUSH1 0x0 DUP1 REVERT JUMPDEST POP GAS CALL ISZERO DUP1 ISZERO PUSH2 0x29CA JUMPI RETURNDATASIZE PUSH1 0x0 DUP1 RETURNDATACOPY RETURNDATASIZE PUSH1 0x0 REVERT JUMPDEST POP POP POP POP POP POP JUMP JUMPDEST PUSH2 0x29FD ADDRESS PUSH32 0x0 DUP5 PUSH2 0x1A06 JUMP JUMPDEST PUSH1 0x3 SLOAD PUSH1 0x1 PUSH1 0x1 PUSH1 0xA0 SHL SUB PUSH32 0x0 DUP2 AND SWAP2 PUSH4 0xF305D719 SWAP2 DUP5 SWAP2 ADDRESS SWAP2 DUP8 SWAP2 PUSH1 0x0 SWAP2 DUP3 SWAP2 AND PUSH2 0x2A4A TIMESTAMP PUSH2 0x12C PUSH2 0x1DC1 JUMP JUMPDEST PUSH1 0x40 MLOAD PUSH1 0xE0 DUP10 SWAP1 SHL PUSH1 0x1 PUSH1 0x1 PUSH1 0xE0 SHL SUB NOT AND DUP2 MSTORE PUSH1 0x1 PUSH1 0x1 PUSH1 0xA0 SHL SUB SWAP7 DUP8 AND PUSH1 0x4 DUP3 ADD MSTORE PUSH1 0x24 DUP2 ADD SWAP6 SWAP1 SWAP6 MSTORE PUSH1 0x44 DUP6 ADD SWAP4 SWAP1 SWAP4 MSTORE PUSH1 0x64 DUP5 ADD SWAP2 SWAP1 SWAP2 MSTORE SWAP1 SWAP3 AND PUSH1 0x84 DUP3 ADD MSTORE PUSH1 0xA4 DUP2 ADD SWAP2 SWAP1 SWAP2 MSTORE PUSH1 0xC4 ADD PUSH1 0x60 PUSH1 0x40 MLOAD DUP1 DUP4 SUB DUP2 DUP6 DUP9 GAS CALL ISZERO DUP1 ISZERO PUSH2 0x2AB7 JUMPI RETURNDATASIZE PUSH1 0x0 DUP1 RETURNDATACOPY RETURNDATASIZE PUSH1 0x0 REVERT JUMPDEST POP POP POP POP POP PUSH1 0x40 MLOAD RETURNDATASIZE PUSH1 0x1F NOT PUSH1 0x1F DUP3 ADD AND DUP3 ADD DUP1 PUSH1 0x40 MSTORE POP DUP2 ADD SWAP1 PUSH2 0x1D6B SWAP2 SWAP1 PUSH2 0x365F JUMP JUMPDEST PUSH1 0x40 DUP1 MLOAD PUSH1 0x2 DUP1 DUP3 MSTORE PUSH1 0x60 DUP3 ADD DUP4 MSTORE PUSH1 0x0 SWAP3 PUSH1 0x20 DUP4 ADD SWAP1 DUP1 CALLDATASIZE DUP4 CALLDATACOPY ADD SWAP1 POP POP SWAP1 POP PUSH32 0x0 PUSH1 0x1 PUSH1 0x1 PUSH1 0xA0 SHL SUB AND PUSH4 0xAD5C4648 PUSH1 0x40 MLOAD DUP2 PUSH4 0xFFFFFFFF AND PUSH1 0xE0 SHL DUP2 MSTORE PUSH1 0x4 ADD PUSH1 0x20 PUSH1 0x40 MLOAD DUP1 DUP4 SUB DUP2 DUP7 GAS STATICCALL ISZERO DUP1 ISZERO PUSH2 0x2B5B JUMPI RETURNDATASIZE PUSH1 0x0 DUP1 RETURNDATACOPY RETURNDATASIZE PUSH1 0x0 REVERT JUMPDEST POP POP POP POP PUSH1 0x40 MLOAD RETURNDATASIZE PUSH1 0x1F NOT PUSH1 0x1F DUP3 ADD AND DUP3 ADD DUP1 PUSH1 0x40 MSTORE POP DUP2 ADD SWAP1 PUSH2 0x2B7F SWAP2 SWAP1 PUSH2 0x35C2 JUMP JUMPDEST DUP2 PUSH1 0x0 DUP2 MLOAD DUP2 LT PUSH2 0x2B92 JUMPI PUSH2 0x2B92 PUSH2 0x33D3 JUMP JUMPDEST PUSH1 0x20 MUL PUSH1 0x20 ADD ADD SWAP1 PUSH1 0x1 PUSH1 0x1 PUSH1 0xA0 SHL SUB AND SWAP1 DUP2 PUSH1 0x1 PUSH1 0x1 PUSH1 0xA0 SHL SUB AND DUP2 MSTORE POP POP ADDRESS DUP2 PUSH1 0x1 DUP2 MLOAD DUP2 LT PUSH2 0x2BC6 JUMPI PUSH2 0x2BC6 PUSH2 0x33D3 JUMP JUMPDEST PUSH1 0x1 PUSH1 0x1 PUSH1 0xA0 SHL SUB SWAP3 DUP4 AND PUSH1 0x20 SWAP2 DUP3 MUL SWAP3 SWAP1 SWAP3 ADD ADD MSTORE PUSH1 0x3 SLOAD PUSH32 0x0 DUP3 AND SWAP2 PUSH4 0xB6F9DE95 SWAP2 DUP6 SWAP2 PUSH1 0x0 SWAP2 DUP7 SWAP2 AND PUSH2 0x2C1D TIMESTAMP PUSH2 0x12C PUSH2 0x1DC1 JUMP JUMPDEST PUSH1 0x40 MLOAD DUP7 PUSH4 0xFFFFFFFF AND PUSH1 0xE0 SHL DUP2 MSTORE PUSH1 0x4 ADD PUSH2 0x2C3C SWAP5 SWAP4 SWAP3 SWAP2 SWAP1 PUSH2 0x368D JUMP JUMPDEST PUSH1 0x0 PUSH1 0x40 MLOAD DUP1 DUP4 SUB DUP2 DUP6 DUP9 DUP1 EXTCODESIZE ISZERO DUP1 ISZERO PUSH2 0x2C55 JUMPI PUSH1 0x0 DUP1 REVERT JUMPDEST POP GAS CALL ISZERO DUP1 ISZERO PUSH2 0x2C69 JUMPI RETURNDATASIZE PUSH1 0x0 DUP1 RETURNDATACOPY RETURNDATASIZE PUSH1 0x0 REVERT JUMPDEST POP POP POP POP POP POP POP JUMP JUMPDEST PUSH1 0x10 SLOAD PUSH2 0x100 SWAP1 DIV PUSH1 0xFF AND ISZERO DUP1 ISZERO PUSH2 0x2C94 JUMPI POP PUSH1 0x10 SLOAD PUSH4 0x1000000 SWAP1 DIV PUSH1 0xFF AND ISZERO JUMPDEST DUP1 ISZERO PUSH2 0x2CAA JUMPI POP PUSH1 0x10 SLOAD PUSH1 0x1 PUSH1 0x28 SHL SWAP1 DIV PUSH1 0xFF AND ISZERO JUMPDEST DUP1 ISZERO PUSH2 0x2CC0 JUMPI POP PUSH1 0x10 SLOAD PUSH1 0x1 PUSH1 0x38 SHL SWAP1 DIV PUSH1 0xFF AND ISZERO JUMPDEST DUP1 ISZERO PUSH2 0x2CD6 JUMPI POP PUSH1 0x10 SLOAD PUSH1 0x1 PUSH1 0x48 SHL SWAP1 DIV PUSH1 0xFF AND ISZERO JUMPDEST ISZERO PUSH2 0x2CDD JUMPI JUMP JUMPDEST PUSH1 0x10 DUP1 SLOAD PUSH11 0xFFFF00FF00FF00FF00FF00 NOT PUSH9 0xFF00FF000000000000 NOT PUSH5 0xFF00FF0000 NOT DUP4 AND PUSH5 0xFF00000000 NOT PUSH2 0x100 DUP6 DIV PUSH1 0xFF SWAP1 DUP2 AND PUSH3 0x10000 MUL SWAP2 DUP3 AND SWAP3 SWAP1 SWAP3 OR PUSH4 0x1000000 PUSH3 0xFF0000 NOT SWAP1 SWAP7 AND SWAP1 SWAP2 OR SWAP5 SWAP1 SWAP5 DIV DUP2 AND PUSH5 0x100000000 MUL SWAP4 SWAP1 SWAP4 OR SWAP1 DUP2 AND PUSH9 0xFF0000000000000000 NOT PUSH1 0x1 PUSH1 0x28 SHL DUP4 DIV DUP6 AND PUSH7 0x1000000000000 MUL SWAP1 DUP2 AND SWAP2 SWAP1 SWAP2 OR PUSH1 0x1 PUSH1 0x38 SHL PUSH7 0xFF000000000000 NOT SWAP1 SWAP4 AND SWAP1 SWAP2 OR SWAP2 SWAP1 SWAP2 DIV DUP4 AND PUSH1 0x1 PUSH1 0x40 SHL MUL OR SWAP1 DUP2 AND PUSH1 0x1 PUSH1 0x48 SHL SWAP1 SWAP2 DIV SWAP1 SWAP2 AND PUSH1 0x1 PUSH1 0x50 SHL MUL PUSH10 0xFF00FF00FF00FF00FF00 NOT AND OR SWAP1 SSTORE JUMP JUMPDEST PUSH1 0x0 DUP1 PUSH1 0x0 DUP1 PUSH1 0x0 DUP1 PUSH2 0x2DC0 DUP8 PUSH2 0x1DCD JUMP JUMPDEST PUSH1 0x1 PUSH1 0x1 PUSH1 0xA0 SHL SUB DUP16 AND PUSH1 0x0 SWAP1 DUP2 MSTORE PUSH1 0x6 PUSH1 0x20 MSTORE PUSH1 0x40 SWAP1 KECCAK256 SLOAD SWAP6 SWAP12 POP SWAP4 SWAP10 POP SWAP2 SWAP8 POP SWAP6 POP SWAP4 POP SWAP2 POP PUSH2 0x2DF2 SWAP1 DUP9 PUSH2 0x1E1C JUMP JUMPDEST PUSH1 0x1 PUSH1 0x1 PUSH1 0xA0 SHL SUB DUP11 AND PUSH1 0x0 SWAP1 DUP2 MSTORE PUSH1 0x6 PUSH1 0x20 SWAP1 DUP2 MSTORE PUSH1 0x40 DUP1 DUP4 KECCAK256 SWAP4 SWAP1 SWAP4 SSTORE PUSH1 0x5 SWAP1 MSTORE KECCAK256 SLOAD PUSH2 0x2E21 SWAP1 DUP8 PUSH2 0x1E1C JUMP JUMPDEST PUSH1 0x1 PUSH1 0x1 PUSH1 0xA0 SHL SUB DUP1 DUP12 AND PUSH1 0x0 SWAP1 DUP2 MSTORE PUSH1 0x5 PUSH1 0x20 MSTORE PUSH1 0x40 DUP1 DUP3 KECCAK256 SWAP4 SWAP1 SWAP4 SSTORE SWAP1 DUP11 AND DUP2 MSTORE KECCAK256 SLOAD PUSH2 0x2E50 SWAP1 DUP7 PUSH2 0x1DC1 JUMP JUMPDEST PUSH1 0x1 PUSH1 0x1 PUSH1 0xA0 SHL SUB DUP10 AND PUSH1 0x0 SWAP1 DUP2 MSTORE PUSH1 0x5 PUSH1 0x20 MSTORE PUSH1 0x40 SWAP1 KECCAK256 SSTORE PUSH2 0x2E72 DUP2 PUSH2 0x30A3 JUMP JUMPDEST PUSH2 0x2E7C DUP5 DUP4 PUSH2 0x312B JUMP JUMPDEST DUP8 PUSH1 0x1 PUSH1 0x1 PUSH1 0xA0 SHL SUB AND DUP10 PUSH1 0x1 PUSH1 0x1 PUSH1 0xA0 SHL SUB AND PUSH1 0x0 DUP1 MLOAD PUSH1 0x20 PUSH2 0x36EB DUP4 CODECOPY DUP2 MLOAD SWAP2 MSTORE DUP6 PUSH1 0x40 MLOAD PUSH2 0x2EAF SWAP2 DUP2 MSTORE PUSH1 0x20 ADD SWAP1 JUMP JUMPDEST PUSH1 0x40 MLOAD DUP1 SWAP2 SUB SWAP1 LOG3 POP POP POP POP POP POP POP POP POP JUMP JUMPDEST PUSH1 0x0 DUP1 PUSH1 0x0 DUP1 PUSH1 0x0 DUP1 PUSH2 0x2ED4 DUP8 PUSH2 0x1DCD JUMP JUMPDEST PUSH1 0x1 PUSH1 0x1 PUSH1 0xA0 SHL SUB DUP16 AND PUSH1 0x0 SWAP1 DUP2 MSTORE PUSH1 0x5 PUSH1 0x20 MSTORE PUSH1 0x40 SWAP1 KECCAK256 SLOAD SWAP6 SWAP12 POP SWAP4 SWAP10 POP SWAP2 SWAP8 POP SWAP6 POP SWAP4 POP SWAP2 POP PUSH2 0x2F06 SWAP1 DUP8 PUSH2 0x1E1C JUMP JUMPDEST PUSH1 0x1 PUSH1 0x1 PUSH1 0xA0 SHL SUB DUP1 DUP12 AND PUSH1 0x0 SWAP1 DUP2 MSTORE PUSH1 0x5 PUSH1 0x20 SWAP1 DUP2 MSTORE PUSH1 0x40 DUP1 DUP4 KECCAK256 SWAP5 SWAP1 SWAP5 SSTORE SWAP2 DUP12 AND DUP2 MSTORE PUSH1 0x6 SWAP1 SWAP2 MSTORE KECCAK256 SLOAD PUSH2 0x2F3C SWAP1 DUP5 PUSH2 0x1DC1 JUMP JUMPDEST PUSH1 0x1 PUSH1 0x1 PUSH1 0xA0 SHL SUB DUP10 AND PUSH1 0x0 SWAP1 DUP2 MSTORE PUSH1 0x6 PUSH1 0x20 SWAP1 DUP2 MSTORE PUSH1 0x40 DUP1 DUP4 KECCAK256 SWAP4 SWAP1 SWAP4 SSTORE PUSH1 0x5 SWAP1 MSTORE KECCAK256 SLOAD PUSH2 0x2E50 SWAP1 DUP7 PUSH2 0x1DC1 JUMP JUMPDEST PUSH1 0x0 DUP1 PUSH1 0x0 DUP1 PUSH1 0x0 DUP1 PUSH2 0x2F7D DUP8 PUSH2 0x1DCD JUMP JUMPDEST PUSH1 0x1 PUSH1 0x1 PUSH1 0xA0 SHL SUB DUP16 AND PUSH1 0x0 SWAP1 DUP2 MSTORE PUSH1 0x5 PUSH1 0x20 MSTORE PUSH1 0x40 SWAP1 KECCAK256 SLOAD SWAP6 SWAP12 POP SWAP4 SWAP10 POP SWAP2 SWAP8 POP SWAP6 POP SWAP4 POP SWAP2 POP PUSH2 0x2E21 SWAP1 DUP8 PUSH2 0x1E1C JUMP JUMPDEST PUSH1 0x0 DUP1 PUSH1 0x0 DUP1 PUSH1 0x0 DUP1 PUSH2 0x2FC1 DUP8 PUSH2 0x1DCD JUMP JUMPDEST PUSH1 0x1 PUSH1 0x1 PUSH1 0xA0 SHL SUB DUP16 AND PUSH1 0x0 SWAP1 DUP2 MSTORE PUSH1 0x6 PUSH1 0x20 MSTORE PUSH1 0x40 SWAP1 KECCAK256 SLOAD SWAP6 SWAP12 POP SWAP4 SWAP10 POP SWAP2 SWAP8 POP SWAP6 POP SWAP4 POP SWAP2 POP PUSH2 0x2FF3 SWAP1 DUP9 PUSH2 0x1E1C JUMP JUMPDEST PUSH1 0x1 PUSH1 0x1 PUSH1 0xA0 SHL SUB DUP11 AND PUSH1 0x0 SWAP1 DUP2 MSTORE PUSH1 0x6 PUSH1 0x20 SWAP1 DUP2 MSTORE PUSH1 0x40 DUP1 DUP4 KECCAK256 SWAP4 SWAP1 SWAP4 SSTORE PUSH1 0x5 SWAP1 MSTORE KECCAK256 SLOAD PUSH2 0x2F06 SWAP1 DUP8 PUSH2 0x1E1C JUMP JUMPDEST PUSH1 0x10 SLOAD PUSH1 0x0 SWAP1 PUSH2 0xC2A SWAP1 PUSH1 0x64 SWAP1 PUSH2 0x1D07 SWAP1 DUP6 SWAP1 PUSH2 0x100 SWAP1 DIV PUSH1 0xFF AND PUSH2 0x19EE JUMP JUMPDEST PUSH1 0x10 SLOAD PUSH1 0x0 SWAP1 PUSH2 0xC2A SWAP1 PUSH1 0x64 SWAP1 PUSH2 0x1D07 SWAP1 PUSH1 0xFF PUSH1 0x1 PUSH1 0x48 SHL DUP3 DIV DUP2 AND SWAP2 PUSH1 0x1 PUSH1 0x38 SHL DUP2 DIV DUP3 AND SWAP2 PUSH2 0x3085 SWAP2 PUSH1 0x1 PUSH1 0x28 SHL DUP2 DIV DUP3 AND SWAP2 PUSH4 0x1000000 SWAP1 SWAP2 DIV AND PUSH2 0x35A9 JUMP JUMPDEST PUSH2 0x308F SWAP2 SWAP1 PUSH2 0x35A9 JUMP JUMPDEST PUSH2 0x3099 SWAP2 SWAP1 PUSH2 0x35A9 JUMP JUMPDEST DUP6 SWAP1 PUSH1 0xFF AND PUSH2 0x19EE JUMP JUMPDEST PUSH1 0x0 PUSH2 0x30AD PUSH2 0x1D9E JUMP JUMPDEST SWAP1 POP PUSH1 0x0 PUSH2 0x30BB DUP4 DUP4 PUSH2 0x19EE JUMP JUMPDEST ADDRESS PUSH1 0x0 SWAP1 DUP2 MSTORE PUSH1 0x5 PUSH1 0x20 MSTORE PUSH1 0x40 SWAP1 KECCAK256 SLOAD SWAP1 SWAP2 POP PUSH2 0x30D8 SWAP1 DUP3 PUSH2 0x1DC1 JUMP JUMPDEST ADDRESS PUSH1 0x0 SWAP1 DUP2 MSTORE PUSH1 0x5 PUSH1 0x20 SWAP1 DUP2 MSTORE PUSH1 0x40 DUP1 DUP4 KECCAK256 SWAP4 SWAP1 SWAP4 SSTORE PUSH1 0x9 SWAP1 MSTORE KECCAK256 SLOAD PUSH1 0xFF AND ISZERO PUSH2 0x1616 JUMPI ADDRESS PUSH1 0x0 SWAP1 DUP2 MSTORE PUSH1 0x6 PUSH1 0x20 MSTORE PUSH1 0x40 SWAP1 KECCAK256 SLOAD PUSH2 0x3116 SWAP1 DUP5 PUSH2 0x1DC1 JUMP JUMPDEST ADDRESS PUSH1 0x0 SWAP1 DUP2 MSTORE PUSH1 0x6 PUSH1 0x20 MSTORE PUSH1 0x40 SWAP1 KECCAK256 SSTORE POP POP POP JUMP JUMPDEST PUSH1 0xC SLOAD PUSH2 0x3138 SWAP1 DUP4 PUSH2 0x1E1C JUMP JUMPDEST PUSH1 0xC SSTORE PUSH1 0xD SLOAD PUSH2 0x3148 SWAP1 DUP3 PUSH2 0x1DC1 JUMP JUMPDEST PUSH1 0xD SSTORE POP POP JUMP JUMPDEST PUSH1 0x0 PUSH1 0x20 DUP1 DUP4 MSTORE DUP4 MLOAD DUP1 DUP3 DUP6 ADD MSTORE PUSH1 0x0 JUMPDEST DUP2 DUP2 LT ISZERO PUSH2 0x317C JUMPI DUP6 DUP2 ADD DUP4 ADD MLOAD DUP6 DUP3 ADD PUSH1 0x40 ADD MSTORE DUP3 ADD PUSH2 0x3160 JUMP JUMPDEST POP PUSH1 0x0 PUSH1 0x40 DUP3 DUP7 ADD ADD MSTORE PUSH1 0x40 PUSH1 0x1F NOT PUSH1 0x1F DUP4 ADD AND DUP6 ADD ADD SWAP3 POP POP POP SWAP3 SWAP2 POP POP JUMP JUMPDEST PUSH1 0x1 PUSH1 0x1 PUSH1 0xA0 SHL SUB DUP2 AND DUP2 EQ PUSH2 0x11FB JUMPI PUSH1 0x0 DUP1 REVERT JUMPDEST PUSH1 0x0 DUP1 PUSH1 0x40 DUP4 DUP6 SUB SLT ISZERO PUSH2 0x31C5 JUMPI PUSH1 0x0 DUP1 REVERT JUMPDEST DUP3 CALLDATALOAD PUSH2 0x31D0 DUP2 PUSH2 0x319D JUMP JUMPDEST SWAP5 PUSH1 0x20 SWAP4 SWAP1 SWAP4 ADD CALLDATALOAD SWAP4 POP POP POP JUMP JUMPDEST PUSH1 0x0 DUP1 PUSH1 0x0 PUSH1 0x60 DUP5 DUP7 SUB SLT ISZERO PUSH2 0x31F3 JUMPI PUSH1 0x0 DUP1 REVERT JUMPDEST DUP4 CALLDATALOAD PUSH2 0x31FE DUP2 PUSH2 0x319D JUMP JUMPDEST SWAP3 POP PUSH1 0x20 DUP5 ADD CALLDATALOAD PUSH2 0x320E DUP2 PUSH2 0x319D JUMP JUMPDEST SWAP3 SWAP6 SWAP3 SWAP5 POP POP POP PUSH1 0x40 SWAP2 SWAP1 SWAP2 ADD CALLDATALOAD SWAP1 JUMP JUMPDEST PUSH1 0x0 PUSH1 0x20 DUP3 DUP5 SUB SLT ISZERO PUSH2 0x3231 JUMPI PUSH1 0x0 DUP1 REVERT JUMPDEST POP CALLDATALOAD SWAP2 SWAP1 POP JUMP JUMPDEST PUSH1 0x0 PUSH1 0x20 DUP3 DUP5 SUB SLT ISZERO PUSH2 0x324A JUMPI PUSH1 0x0 DUP1 REVERT JUMPDEST DUP2 CALLDATALOAD PUSH2 0xD08 DUP2 PUSH2 0x319D JUMP JUMPDEST DUP1 ISZERO ISZERO DUP2 EQ PUSH2 0x11FB JUMPI PUSH1 0x0 DUP1 REVERT JUMPDEST PUSH1 0x0 DUP1 PUSH1 0x40 DUP4 DUP6 SUB SLT ISZERO PUSH2 0x3276 JUMPI PUSH1 0x0 DUP1 REVERT JUMPDEST DUP3 CALLDATALOAD SWAP2 POP PUSH1 0x20 DUP4 ADD CALLDATALOAD PUSH2 0x3288 DUP2 PUSH2 0x3255 JUMP JUMPDEST DUP1 SWAP2 POP POP SWAP3 POP SWAP3 SWAP1 POP JUMP JUMPDEST PUSH1 0x0 PUSH1 0x20 DUP3 DUP5 SUB SLT ISZERO PUSH2 0x32A5 JUMPI PUSH1 0x0 DUP1 REVERT JUMPDEST DUP2 CALLDATALOAD PUSH2 0xD08 DUP2 PUSH2 0x3255 JUMP JUMPDEST PUSH1 0x0 DUP1 PUSH1 0x40 DUP4 DUP6 SUB SLT ISZERO PUSH2 0x32C3 JUMPI PUSH1 0x0 DUP1 REVERT JUMPDEST DUP3 CALLDATALOAD PUSH2 0x32CE DUP2 PUSH2 0x319D JUMP JUMPDEST SWAP2 POP PUSH1 0x20 DUP4 ADD CALLDATALOAD PUSH2 0x3288 DUP2 PUSH2 0x319D JUMP JUMPDEST DUP1 CALLDATALOAD PUSH1 0xFF DUP2 AND DUP2 EQ PUSH2 0x1011 JUMPI PUSH1 0x0 DUP1 REVERT JUMPDEST PUSH1 0x0 DUP1 PUSH1 0x0 DUP1 PUSH1 0x0 PUSH1 0xA0 DUP7 DUP9 SUB SLT ISZERO PUSH2 0x3307 JUMPI PUSH1 0x0 DUP1 REVERT JUMPDEST PUSH2 0x3310 DUP7 PUSH2 0x32DE JUMP JUMPDEST SWAP5 POP PUSH2 0x331E PUSH1 0x20 DUP8 ADD PUSH2 0x32DE JUMP JUMPDEST SWAP4 POP PUSH2 0x332C PUSH1 0x40 DUP8 ADD PUSH2 0x32DE JUMP JUMPDEST SWAP3 POP PUSH2 0x333A PUSH1 0x60 DUP8 ADD PUSH2 0x32DE JUMP JUMPDEST SWAP2 POP PUSH2 0x3348 PUSH1 0x80 DUP8 ADD PUSH2 0x32DE JUMP JUMPDEST SWAP1 POP SWAP3 SWAP6 POP SWAP3 SWAP6 SWAP1 SWAP4 POP JUMP JUMPDEST PUSH1 0x1 DUP2 DUP2 SHR SWAP1 DUP3 AND DUP1 PUSH2 0x3368 JUMPI PUSH1 0x7F DUP3 AND SWAP2 POP JUMPDEST PUSH1 0x20 DUP3 LT DUP2 SUB PUSH2 0x3388 JUMPI PUSH4 0x4E487B71 PUSH1 0xE0 SHL PUSH1 0x0 MSTORE PUSH1 0x22 PUSH1 0x4 MSTORE PUSH1 0x24 PUSH1 0x0 REVERT JUMPDEST POP SWAP2 SWAP1 POP JUMP JUMPDEST PUSH1 0x20 DUP1 DUP3 MSTORE PUSH1 0x25 SWAP1 DUP3 ADD MSTORE PUSH32 0x45524332304F776E61626C653A2063616C6C6572206973206E6F742074686520 PUSH1 0x40 DUP3 ADD MSTORE PUSH5 0x37BBB732B9 PUSH1 0xD9 SHL PUSH1 0x60 DUP3 ADD MSTORE PUSH1 0x80 ADD SWAP1 JUMP JUMPDEST PUSH4 0x4E487B71 PUSH1 0xE0 SHL PUSH1 0x0 MSTORE PUSH1 0x32 PUSH1 0x4 MSTORE PUSH1 0x24 PUSH1 0x0 REVERT JUMPDEST PUSH4 0x4E487B71 PUSH1 0xE0 SHL PUSH1 0x0 MSTORE PUSH1 0x11 PUSH1 0x4 MSTORE PUSH1 0x24 PUSH1 0x0 REVERT JUMPDEST DUP2 DUP2 SUB DUP2 DUP2 GT ISZERO PUSH2 0xC2A JUMPI PUSH2 0xC2A PUSH2 0x33E9 JUMP JUMPDEST PUSH4 0x4E487B71 PUSH1 0xE0 SHL PUSH1 0x0 MSTORE PUSH1 0x31 PUSH1 0x4 MSTORE PUSH1 0x24 PUSH1 0x0 REVERT JUMPDEST PUSH1 0x0 PUSH1 0x1 DUP3 ADD PUSH2 0x343A JUMPI PUSH2 0x343A PUSH2 0x33E9 JUMP JUMPDEST POP PUSH1 0x1 ADD SWAP1 JUMP JUMPDEST PUSH1 0x1 DUP2 DUP2 JUMPDEST DUP1 DUP6 GT ISZERO PUSH2 0x347C JUMPI DUP2 PUSH1 0x0 NOT DIV DUP3 GT ISZERO PUSH2 0x3462 JUMPI PUSH2 0x3462 PUSH2 0x33E9 JUMP JUMPDEST DUP1 DUP6 AND ISZERO PUSH2 0x346F JUMPI SWAP2 DUP2 MUL SWAP2 JUMPDEST SWAP4 DUP5 SHR SWAP4 SWAP1 DUP1 MUL SWAP1 PUSH2 0x3446 JUMP JUMPDEST POP SWAP3 POP SWAP3 SWAP1 POP JUMP JUMPDEST PUSH1 0x0 DUP3 PUSH2 0x3493 JUMPI POP PUSH1 0x1 PUSH2 0xC2A JUMP JUMPDEST DUP2 PUSH2 0x34A0 JUMPI POP PUSH1 0x0 PUSH2 0xC2A JUMP JUMPDEST DUP2 PUSH1 0x1 DUP2 EQ PUSH2 0x34B6 JUMPI PUSH1 0x2 DUP2 EQ PUSH2 0x34C0 JUMPI PUSH2 0x34DC JUMP JUMPDEST PUSH1 0x1 SWAP2 POP POP PUSH2 0xC2A JUMP JUMPDEST PUSH1 0xFF DUP5 GT ISZERO PUSH2 0x34D1 JUMPI PUSH2 0x34D1 PUSH2 0x33E9 JUMP JUMPDEST POP POP PUSH1 0x1 DUP3 SHL PUSH2 0xC2A JUMP JUMPDEST POP PUSH1 0x20 DUP4 LT PUSH2 0x133 DUP4 LT AND PUSH1 0x4E DUP5 LT PUSH1 0xB DUP5 LT AND OR ISZERO PUSH2 0x34FF JUMPI POP DUP2 DUP2 EXP PUSH2 0xC2A JUMP JUMPDEST PUSH2 0x3509 DUP4 DUP4 PUSH2 0x3441 JUMP JUMPDEST DUP1 PUSH1 0x0 NOT DIV DUP3 GT ISZERO PUSH2 0x351D JUMPI PUSH2 0x351D PUSH2 0x33E9 JUMP JUMPDEST MUL SWAP4 SWAP3 POP POP POP JUMP JUMPDEST PUSH1 0x0 PUSH2 0xD08 PUSH1 0xFF DUP5 AND DUP4 PUSH2 0x3484 JUMP JUMPDEST DUP1 DUP3 MUL DUP2 ISZERO DUP3 DUP3 DIV DUP5 EQ OR PUSH2 0xC2A JUMPI PUSH2 0xC2A PUSH2 0x33E9 JUMP JUMPDEST PUSH1 0x0 PUSH1 0x20 DUP3 DUP5 SUB SLT ISZERO PUSH2 0x355D JUMPI PUSH1 0x0 DUP1 REVERT JUMPDEST DUP2 MLOAD PUSH2 0xD08 DUP2 PUSH2 0x3255 JUMP JUMPDEST PUSH1 0x0 DUP3 PUSH2 0x3585 JUMPI PUSH4 0x4E487B71 PUSH1 0xE0 SHL PUSH1 0x0 MSTORE PUSH1 0x12 PUSH1 0x4 MSTORE PUSH1 0x24 PUSH1 0x0 REVERT JUMPDEST POP DIV SWAP1 JUMP JUMPDEST DUP1 DUP3 ADD DUP1 DUP3 GT ISZERO PUSH2 0xC2A JUMPI PUSH2 0xC2A PUSH2 0x33E9 JUMP JUMPDEST PUSH1 0x0 PUSH2 0xD08 DUP4 DUP4 PUSH2 0x3484 JUMP JUMPDEST PUSH1 0xFF DUP2 DUP2 AND DUP4 DUP3 AND ADD SWAP1 DUP2 GT ISZERO PUSH2 0xC2A JUMPI PUSH2 0xC2A PUSH2 0x33E9 JUMP JUMPDEST PUSH1 0x0 PUSH1 0x20 DUP3 DUP5 SUB SLT ISZERO PUSH2 0x35D4 JUMPI PUSH1 0x0 DUP1 REVERT JUMPDEST DUP2 MLOAD PUSH2 0xD08 DUP2 PUSH2 0x319D JUMP JUMPDEST PUSH1 0x0 DUP2 MLOAD DUP1 DUP5 MSTORE PUSH1 0x20 DUP1 DUP6 ADD SWAP5 POP DUP1 DUP5 ADD PUSH1 0x0 JUMPDEST DUP4 DUP2 LT ISZERO PUSH2 0x3618 JUMPI DUP2 MLOAD PUSH1 0x1 PUSH1 0x1 PUSH1 0xA0 SHL SUB AND DUP8 MSTORE SWAP6 DUP3 ADD SWAP6 SWAP1 DUP3 ADD SWAP1 PUSH1 0x1 ADD PUSH2 0x35F3 JUMP JUMPDEST POP SWAP5 SWAP6 SWAP5 POP POP POP POP POP JUMP JUMPDEST DUP6 DUP2 MSTORE DUP5 PUSH1 0x20 DUP3 ADD MSTORE PUSH1 0xA0 PUSH1 0x40 DUP3 ADD MSTORE PUSH1 0x0 PUSH2 0x3642 PUSH1 0xA0 DUP4 ADD DUP7 PUSH2 0x35DF JUMP JUMPDEST PUSH1 0x1 PUSH1 0x1 PUSH1 0xA0 SHL SUB SWAP5 SWAP1 SWAP5 AND PUSH1 0x60 DUP4 ADD MSTORE POP PUSH1 0x80 ADD MSTORE SWAP4 SWAP3 POP POP POP JUMP JUMPDEST PUSH1 0x0 DUP1 PUSH1 0x0 PUSH1 0x60 DUP5 DUP7 SUB SLT ISZERO PUSH2 0x3674 JUMPI PUSH1 0x0 DUP1 REVERT JUMPDEST DUP4 MLOAD SWAP3 POP PUSH1 0x20 DUP5 ADD MLOAD SWAP2 POP PUSH1 0x40 DUP5 ADD MLOAD SWAP1 POP SWAP3 POP SWAP3 POP SWAP3 JUMP JUMPDEST DUP5 DUP2 MSTORE PUSH1 0x80 PUSH1 0x20 DUP3 ADD MSTORE PUSH1 0x0 PUSH2 0x36A6 PUSH1 0x80 DUP4 ADD DUP7 PUSH2 0x35DF JUMP JUMPDEST PUSH1 0x1 PUSH1 0x1 PUSH1 0xA0 SHL SUB SWAP5 SWAP1 SWAP5 AND PUSH1 0x40 DUP4 ADD MSTORE POP PUSH1 0x60 ADD MSTORE SWAP3 SWAP2 POP POP JUMP INVALID GASLIMIT MSTORE NUMBER ORIGIN ADDRESS GASPRICE KECCAK256 PUSH21 0x72616E7366657220616D6F756E7420657863656564 PUSH20 0x20616C6C6F77616E6365DDF252AD1BE2C89B69C2 0xB0 PUSH9 0xFC378DAA952BA7F163 0xC4 LOG1 AND 0x28 CREATE2 GAS 0x4D CREATE2 0x23 0xB3 0xEF TIMESTAMP GASLIMIT POP ORIGIN ADDRESS GASPRICE KECCAK256 PUSH3 0x75726E KECCAK256 PUSH2 0x6D6F PUSH22 0x6E7420657863656564732062616C616E636545524332 ADDRESS GASPRICE KECCAK256 PUSH5 0x6563726561 PUSH20 0x656420616C6C6F77616E63652062656C6F77207A PUSH6 0x726FA2646970 PUSH7 0x73582212200E07 0xD8 DIV EXP ADDMOD 0xDF 0xF 0xE3 CODECOPY PUSH9 0xB8CB57EEC06FB0A380 0xA8 PC 0xDD RETURNDATACOPY 0x2B SWAP4 DUP16 DUP4 0xA5 ADD MULMOD ISZERO PUSH5 0x736F6C6343 STOP ADDMOD SLT STOP CALLER "
		},
		"gasEstimates": {
			"creation": {
				"codeDepositCost": "2843000",
				"executionCost": "infinite",
				"totalCost": "infinite"
			},
			"external": {
				"_GENERATOR()": "infinite",
				"_VERSION()": "infinite",
				"_burnFee()": "2419",
				"_buybackFee()": "2443",
				"_liquidityFee()": "2393",
				"_name()": "infinite",
				"_symbol()": "infinite",
				"_tTotal()": "2363",
				"_taxFee()": "2393",
				"_walletFee()": "2441",
				"allowance(address,address)": "infinite",
				"approve(address,uint256)": "24684",
				"balanceOf(address)": "infinite",
				"burn(uint256)": "infinite",
				"buyBackUpperLimitAmount()": "2359",
				"createdByMetacrypt()": "309",
				"decimals()": "2420",
				"decreaseAllowance(address,uint256)": "infinite",
				"deliver(uint256)": "infinite",
				"excludeFromFee(address)": "26856",
				"excludeFromReward(address)": "infinite",
				"feeWallet()": "2442",
				"generator()": "infinite",
				"getIdentifier()": "infinite",
				"includeInFee(address)": "26804",
				"includeInReward(address)": "infinite",
				"increaseAllowance(address,uint256)": "infinite",
				"isExcludedFromFee(address)": "2632",
				"isExcludedFromReward(address)": "2677",
				"maxBurnFee()": "2443",
				"maxBuybackFee()": "2399",
				"maxLiqFee()": "2420",
				"maxTaxFee()": "2397",
				"maxWalletFee()": "2442",
				"minMxTxPercentage()": "2398",
				"minMxWalletPercentage()": "2421",
				"mint(uint256)": "infinite",
				"name()": "infinite",
				"numTokensSellToAddToLiquidity()": "2384",
				"owner()": "2399",
				"pcsV2Pair()": "infinite",
				"pcsV2Router()": "infinite",
				"recoverToken(address,uint256)": "infinite",
				"reflectionFromToken(uint256,bool)": "infinite",
				"renounceOwnership()": "30233",
				"setAllFeePercent(uint8,uint8,uint8,uint8,uint8)": "infinite",
				"setBuybackUpperLimit(uint256)": "infinite",
				"setFeeWallet(address)": "infinite",
				"setSwapAndLiquifyEnabled(bool)": "27855",
				"swapAndLiquifyEnabled()": "2400",
				"symbol()": "infinite",
				"tokenFromReflection(uint256)": "infinite",
				"totalFees()": "2395",
				"totalSupply()": "2383",
				"transfer(address,uint256)": "infinite",
				"transferFrom(address,address,uint256)": "infinite",
				"transferOwnership(address)": "30504",
				"version()": "infinite"
			},
			"internal": {
				"_approve(address,address,uint256)": "infinite",
				"_burn(address,uint256)": "infinite",
				"_burnFrom(address,uint256)": "infinite",
				"_getCurrentSupply()": "infinite",
				"_getRValues(uint256,uint256,uint256,uint256)": "infinite",
				"_getRate()": "infinite",
				"_getTValues(uint256)": "infinite",
				"_getValues(uint256)": "infinite",
				"_mint(address,uint256)": "infinite",
				"_reflectFee(uint256,uint256)": "infinite",
				"_takeLiquidity(uint256)": "infinite",
				"_tokenTransfer(address,address,uint256,bool)": "infinite",
				"_tokenTransferNoFee(address,address,uint256)": "infinite",
				"_transfer(address,address,uint256)": "infinite",
				"_transferBothExcluded(address,address,uint256)": "infinite",
				"_transferFromExcluded(address,address,uint256)": "infinite",
				"_transferStandard(address,address,uint256)": "infinite",
				"_transferToExcluded(address,address,uint256)": "infinite",
				"addLiquidity(uint256,uint256)": "infinite",
				"buyBackTokens(uint256)": "infinite",
				"calculateLiquidityFee(uint256)": "infinite",
				"calculateTaxFee(uint256)": "infinite",
				"removeAllFee()": "35306",
				"restoreAllFee()": "infinite",
				"swapAndLiquify(uint256)": "infinite",
				"swapBNBForTokens(uint256)": "infinite",
				"swapTokensForBNB(uint256)": "infinite"
			}
		},
		"methodIdentifiers": {
			"_GENERATOR()": "34b1a50c",
			"_VERSION()": "49b0db14",
			"_burnFee()": "c0b0fda2",
			"_buybackFee()": "19de79ab",
			"_liquidityFee()": "6bc87c3a",
			"_name()": "d28d8852",
			"_symbol()": "b09f1266",
			"_tTotal()": "af465a27",
			"_taxFee()": "3b124fe7",
			"_walletFee()": "54ce6578",
			"allowance(address,address)": "dd62ed3e",
			"approve(address,uint256)": "095ea7b3",
			"balanceOf(address)": "70a08231",
			"burn(uint256)": "42966c68",
			"buyBackUpperLimitAmount()": "bdc653ef",
			"createdByMetacrypt()": "c2e7d95c",
			"decimals()": "313ce567",
			"decreaseAllowance(address,uint256)": "a457c2d7",
			"deliver(uint256)": "3bd5d173",
			"excludeFromFee(address)": "437823ec",
			"excludeFromReward(address)": "52390c02",
			"feeWallet()": "f25f4b56",
			"generator()": "7afa1eed",
			"getIdentifier()": "aa23e03d",
			"includeInFee(address)": "ea2f0b37",
			"includeInReward(address)": "3685d419",
			"increaseAllowance(address,uint256)": "39509351",
			"isExcludedFromFee(address)": "5342acb4",
			"isExcludedFromReward(address)": "88f82020",
			"maxBurnFee()": "3c81385c",
			"maxBuybackFee()": "15fa749a",
			"maxLiqFee()": "430ca090",
			"maxTaxFee()": "c7992f9a",
			"maxWalletFee()": "51330a19",
			"minMxTxPercentage()": "324f8dbf",
			"minMxWalletPercentage()": "70690b11",
			"mint(uint256)": "a0712d68",
			"name()": "06fdde03",
			"numTokensSellToAddToLiquidity()": "d12a7688",
			"owner()": "8da5cb5b",
			"pcsV2Pair()": "52143290",
			"pcsV2Router()": "2d6abf87",
			"recoverToken(address,uint256)": "b29a8140",
			"reflectionFromToken(uint256,bool)": "4549b039",
			"renounceOwnership()": "715018a6",
			"setAllFeePercent(uint8,uint8,uint8,uint8,uint8)": "f6a3c9a9",
			"setBuybackUpperLimit(uint256)": "82d2a4bb",
			"setFeeWallet(address)": "90d49b9d",
			"setSwapAndLiquifyEnabled(bool)": "c49b9a80",
			"swapAndLiquifyEnabled()": "4a74bb02",
			"symbol()": "95d89b41",
			"tokenFromReflection(uint256)": "2d838119",
			"totalFees()": "13114a9d",
			"totalSupply()": "18160ddd",
			"transfer(address,uint256)": "a9059cbb",
			"transferFrom(address,address,uint256)": "23b872dd",
			"transferOwnership(address)": "f2fde38b",
			"version()": "54fd4d50"
		}
	},
	"abi": [
		{
			"inputs": [
				{
					"internalType": "address",
					"name": "__tjToken_target",
					"type": "address"
				},
				{
					"internalType": "string",
					"name": "__tjToken_name",
					"type": "string"
				},
				{
					"internalType": "string",
					"name": "__tjToken_symbol",
					"type": "string"
				},
				{
					"internalType": "uint8",
					"name": "__tjToken_decimals",
					"type": "uint8"
				},
				{
					"internalType": "uint256",
					"name": "__tjToken_initial",
					"type": "uint256"
				},
				{
					"internalType": "address",
					"name": "__tjToken_router",
					"type": "address"
				},
				{
					"internalType": "uint8",
					"name": "__tjToken_tax_reflection",
					"type": "uint8"
				},
				{
					"internalType": "uint8",
					"name": "__tjToken_tax_wallet",
					"type": "uint8"
				},
				{
					"internalType": "uint8",
					"name": "__tjToken_tax_burn",
					"type": "uint8"
				},
				{
					"internalType": "uint8",
					"name": "__tjToken_tax_liquidity",
					"type": "uint8"
				},
				{
					"internalType": "uint8",
					"name": "__tjToken_tax_buyback",
					"type": "uint8"
				}
			],
			"stateMutability": "payable",
			"type": "constructor"
		},
		{
			"anonymous": false,
			"inputs": [
				{
					"indexed": true,
					"internalType": "address",
					"name": "owner",
					"type": "address"
				},
				{
					"indexed": true,
					"internalType": "address",
					"name": "spender",
					"type": "address"
				},
				{
					"indexed": false,
					"internalType": "uint256",
					"name": "value",
					"type": "uint256"
				}
			],
			"name": "Approval",
			"type": "event"
		},
		{
			"anonymous": false,
			"inputs": [
				{
					"indexed": true,
					"internalType": "address",
					"name": "previousOwner",
					"type": "address"
				},
				{
					"indexed": true,
					"internalType": "address",
					"name": "newOwner",
					"type": "address"
				}
			],
			"name": "OwnershipTransferred",
			"type": "event"
		},
		{
			"anonymous": false,
			"inputs": [
				{
					"indexed": false,
					"internalType": "uint256",
					"name": "tokensSwapped",
					"type": "uint256"
				},
				{
					"indexed": false,
					"internalType": "uint256",
					"name": "ethReceived",
					"type": "uint256"
				},
				{
					"indexed": false,
					"internalType": "uint256",
					"name": "tokensIntoLiqudity",
					"type": "uint256"
				}
			],
			"name": "SwapAndLiquify",
			"type": "event"
		},
		{
			"anonymous": false,
			"inputs": [
				{
					"indexed": false,
					"internalType": "bool",
					"name": "enabled",
					"type": "bool"
				}
			],
			"name": "SwapAndLiquifyEnabledUpdated",
			"type": "event"
		},
		{
			"anonymous": false,
			"inputs": [
				{
					"indexed": true,
					"internalType": "address",
					"name": "from",
					"type": "address"
				},
				{
					"indexed": true,
					"internalType": "address",
					"name": "to",
					"type": "address"
				},
				{
					"indexed": false,
					"internalType": "uint256",
					"name": "value",
					"type": "uint256"
				}
			],
			"name": "Transfer",
			"type": "event"
		},
		{
			"inputs": [],
			"name": "_GENERATOR",
			"outputs": [
				{
					"internalType": "string",
					"name": "",
					"type": "string"
				}
			],
			"stateMutability": "view",
			"type": "function"
		},
		{
			"inputs": [],
			"name": "_VERSION",
			"outputs": [
				{
					"internalType": "string",
					"name": "",
					"type": "string"
				}
			],
			"stateMutability": "view",
			"type": "function"
		},
		{
			"inputs": [],
			"name": "_burnFee",
			"outputs": [
				{
					"internalType": "uint8",
					"name": "",
					"type": "uint8"
				}
			],
			"stateMutability": "view",
			"type": "function"
		},
		{
			"inputs": [],
			"name": "_buybackFee",
			"outputs": [
				{
					"internalType": "uint8",
					"name": "",
					"type": "uint8"
				}
			],
			"stateMutability": "view",
			"type": "function"
		},
		{
			"inputs": [],
			"name": "_liquidityFee",
			"outputs": [
				{
					"internalType": "uint8",
					"name": "",
					"type": "uint8"
				}
			],
			"stateMutability": "view",
			"type": "function"
		},
		{
			"inputs": [],
			"name": "_name",
			"outputs": [
				{
					"internalType": "string",
					"name": "",
					"type": "string"
				}
			],
			"stateMutability": "view",
			"type": "function"
		},
		{
			"inputs": [],
			"name": "_symbol",
			"outputs": [
				{
					"internalType": "string",
					"name": "",
					"type": "string"
				}
			],
			"stateMutability": "view",
			"type": "function"
		},
		{
			"inputs": [],
			"name": "_tTotal",
			"outputs": [
				{
					"internalType": "uint256",
					"name": "",
					"type": "uint256"
				}
			],
			"stateMutability": "view",
			"type": "function"
		},
		{
			"inputs": [],
			"name": "_taxFee",
			"outputs": [
				{
					"internalType": "uint8",
					"name": "",
					"type": "uint8"
				}
			],
			"stateMutability": "view",
			"type": "function"
		},
		{
			"inputs": [],
			"name": "_walletFee",
			"outputs": [
				{
					"internalType": "uint8",
					"name": "",
					"type": "uint8"
				}
			],
			"stateMutability": "view",
			"type": "function"
		},
		{
			"inputs": [
				{
					"internalType": "address",
					"name": "owner",
					"type": "address"
				},
				{
					"internalType": "address",
					"name": "spender",
					"type": "address"
				}
			],
			"name": "allowance",
			"outputs": [
				{
					"internalType": "uint256",
					"name": "",
					"type": "uint256"
				}
			],
			"stateMutability": "view",
			"type": "function"
		},
		{
			"inputs": [
				{
					"internalType": "address",
					"name": "spender",
					"type": "address"
				},
				{
					"internalType": "uint256",
					"name": "amount",
					"type": "uint256"
				}
			],
			"name": "approve",
			"outputs": [
				{
					"internalType": "bool",
					"name": "",
					"type": "bool"
				}
			],
			"stateMutability": "nonpayable",
			"type": "function"
		},
		{
			"inputs": [
				{
					"internalType": "address",
					"name": "account",
					"type": "address"
				}
			],
			"name": "balanceOf",
			"outputs": [
				{
					"internalType": "uint256",
					"name": "",
					"type": "uint256"
				}
			],
			"stateMutability": "view",
			"type": "function"
		},
		{
			"inputs": [
				{
					"internalType": "uint256",
					"name": "amount",
					"type": "uint256"
				}
			],
			"name": "burn",
			"outputs": [
				{
					"internalType": "bool",
					"name": "",
					"type": "bool"
				}
			],
			"stateMutability": "nonpayable",
			"type": "function"
		},
		{
			"inputs": [],
			"name": "buyBackUpperLimitAmount",
			"outputs": [
				{
					"internalType": "uint256",
					"name": "",
					"type": "uint256"
				}
			],
			"stateMutability": "view",
			"type": "function"
		},
		{
			"inputs": [],
			"name": "createdByMetacrypt",
			"outputs": [
				{
					"internalType": "bool",
					"name": "",
					"type": "bool"
				}
			],
			"stateMutability": "pure",
			"type": "function"
		},
		{
			"inputs": [],
			"name": "decimals",
			"outputs": [
				{
					"internalType": "uint8",
					"name": "",
					"type": "uint8"
				}
			],
			"stateMutability": "view",
			"type": "function"
		},
		{
			"inputs": [
				{
					"internalType": "address",
					"name": "spender",
					"type": "address"
				},
				{
					"internalType": "uint256",
					"name": "subtractedValue",
					"type": "uint256"
				}
			],
			"name": "decreaseAllowance",
			"outputs": [
				{
					"internalType": "bool",
					"name": "",
					"type": "bool"
				}
			],
			"stateMutability": "nonpayable",
			"type": "function"
		},
		{
			"inputs": [
				{
					"internalType": "uint256",
					"name": "tAmount",
					"type": "uint256"
				}
			],
			"name": "deliver",
			"outputs": [],
			"stateMutability": "nonpayable",
			"type": "function"
		},
		{
			"inputs": [
				{
					"internalType": "address",
					"name": "account",
					"type": "address"
				}
			],
			"name": "excludeFromFee",
			"outputs": [],
			"stateMutability": "nonpayable",
			"type": "function"
		},
		{
			"inputs": [
				{
					"internalType": "address",
					"name": "account",
					"type": "address"
				}
			],
			"name": "excludeFromReward",
			"outputs": [],
			"stateMutability": "nonpayable",
			"type": "function"
		},
		{
			"inputs": [],
			"name": "feeWallet",
			"outputs": [
				{
					"internalType": "address payable",
					"name": "",
					"type": "address"
				}
			],
			"stateMutability": "view",
			"type": "function"
		},
		{
			"inputs": [],
			"name": "generator",
			"outputs": [
				{
					"internalType": "string",
					"name": "",
					"type": "string"
				}
			],
			"stateMutability": "pure",
			"type": "function"
		},
		{
			"inputs": [],
			"name": "getIdentifier",
			"outputs": [
				{
					"internalType": "string",
					"name": "",
					"type": "string"
				}
			],
			"stateMutability": "view",
			"type": "function"
		},
		{
			"inputs": [
				{
					"internalType": "address",
					"name": "account",
					"type": "address"
				}
			],
			"name": "includeInFee",
			"outputs": [],
			"stateMutability": "nonpayable",
			"type": "function"
		},
		{
			"inputs": [
				{
					"internalType": "address",
					"name": "account",
					"type": "address"
				}
			],
			"name": "includeInReward",
			"outputs": [],
			"stateMutability": "nonpayable",
			"type": "function"
		},
		{
			"inputs": [
				{
					"internalType": "address",
					"name": "spender",
					"type": "address"
				},
				{
					"internalType": "uint256",
					"name": "addedValue",
					"type": "uint256"
				}
			],
			"name": "increaseAllowance",
			"outputs": [
				{
					"internalType": "bool",
					"name": "",
					"type": "bool"
				}
			],
			"stateMutability": "nonpayable",
			"type": "function"
		},
		{
			"inputs": [
				{
					"internalType": "address",
					"name": "account",
					"type": "address"
				}
			],
			"name": "isExcludedFromFee",
			"outputs": [
				{
					"internalType": "bool",
					"name": "",
					"type": "bool"
				}
			],
			"stateMutability": "view",
			"type": "function"
		},
		{
			"inputs": [
				{
					"internalType": "address",
					"name": "account",
					"type": "address"
				}
			],
			"name": "isExcludedFromReward",
			"outputs": [
				{
					"internalType": "bool",
					"name": "",
					"type": "bool"
				}
			],
			"stateMutability": "view",
			"type": "function"
		},
		{
			"inputs": [],
			"name": "maxBurnFee",
			"outputs": [
				{
					"internalType": "uint8",
					"name": "",
					"type": "uint8"
				}
			],
			"stateMutability": "view",
			"type": "function"
		},
		{
			"inputs": [],
			"name": "maxBuybackFee",
			"outputs": [
				{
					"internalType": "uint8",
					"name": "",
					"type": "uint8"
				}
			],
			"stateMutability": "view",
			"type": "function"
		},
		{
			"inputs": [],
			"name": "maxLiqFee",
			"outputs": [
				{
					"internalType": "uint8",
					"name": "",
					"type": "uint8"
				}
			],
			"stateMutability": "view",
			"type": "function"
		},
		{
			"inputs": [],
			"name": "maxTaxFee",
			"outputs": [
				{
					"internalType": "uint8",
					"name": "",
					"type": "uint8"
				}
			],
			"stateMutability": "view",
			"type": "function"
		},
		{
			"inputs": [],
			"name": "maxWalletFee",
			"outputs": [
				{
					"internalType": "uint8",
					"name": "",
					"type": "uint8"
				}
			],
			"stateMutability": "view",
			"type": "function"
		},
		{
			"inputs": [],
			"name": "minMxTxPercentage",
			"outputs": [
				{
					"internalType": "uint8",
					"name": "",
					"type": "uint8"
				}
			],
			"stateMutability": "view",
			"type": "function"
		},
		{
			"inputs": [],
			"name": "minMxWalletPercentage",
			"outputs": [
				{
					"internalType": "uint8",
					"name": "",
					"type": "uint8"
				}
			],
			"stateMutability": "view",
			"type": "function"
		},
		{
			"inputs": [
				{
					"internalType": "uint256",
					"name": "amount",
					"type": "uint256"
				}
			],
			"name": "mint",
			"outputs": [
				{
					"internalType": "bool",
					"name": "",
					"type": "bool"
				}
			],
			"stateMutability": "nonpayable",
			"type": "function"
		},
		{
			"inputs": [],
			"name": "name",
			"outputs": [
				{
					"internalType": "string",
					"name": "",
					"type": "string"
				}
			],
			"stateMutability": "view",
			"type": "function"
		},
		{
			"inputs": [],
			"name": "numTokensSellToAddToLiquidity",
			"outputs": [
				{
					"internalType": "uint256",
					"name": "",
					"type": "uint256"
				}
			],
			"stateMutability": "view",
			"type": "function"
		},
		{
			"inputs": [],
			"name": "owner",
			"outputs": [
				{
					"internalType": "address",
					"name": "",
					"type": "address"
				}
			],
			"stateMutability": "view",
			"type": "function"
		},
		{
			"inputs": [],
			"name": "pcsV2Pair",
			"outputs": [
				{
					"internalType": "address",
					"name": "",
					"type": "address"
				}
			],
			"stateMutability": "view",
			"type": "function"
		},
		{
			"inputs": [],
			"name": "pcsV2Router",
			"outputs": [
				{
					"internalType": "contract IUniswapV2Router02",
					"name": "",
					"type": "address"
				}
			],
			"stateMutability": "view",
			"type": "function"
		},
		{
			"inputs": [
				{
					"internalType": "address",
					"name": "tokenAddress",
					"type": "address"
				},
				{
					"internalType": "uint256",
					"name": "tokenAmount",
					"type": "uint256"
				}
			],
			"name": "recoverToken",
			"outputs": [],
			"stateMutability": "nonpayable",
			"type": "function"
		},
		{
			"inputs": [
				{
					"internalType": "uint256",
					"name": "tAmount",
					"type": "uint256"
				},
				{
					"internalType": "bool",
					"name": "deductTransferFee",
					"type": "bool"
				}
			],
			"name": "reflectionFromToken",
			"outputs": [
				{
					"internalType": "uint256",
					"name": "",
					"type": "uint256"
				}
			],
			"stateMutability": "view",
			"type": "function"
		},
		{
			"inputs": [],
			"name": "renounceOwnership",
			"outputs": [],
			"stateMutability": "nonpayable",
			"type": "function"
		},
		{
			"inputs": [
				{
					"internalType": "uint8",
					"name": "taxFee",
					"type": "uint8"
				},
				{
					"internalType": "uint8",
					"name": "liquidityFee",
					"type": "uint8"
				},
				{
					"internalType": "uint8",
					"name": "burnFee",
					"type": "uint8"
				},
				{
					"internalType": "uint8",
					"name": "walletFee",
					"type": "uint8"
				},
				{
					"internalType": "uint8",
					"name": "buybackFee",
					"type": "uint8"
				}
			],
			"name": "setAllFeePercent",
			"outputs": [],
			"stateMutability": "nonpayable",
			"type": "function"
		},
		{
			"inputs": [
				{
					"internalType": "uint256",
					"name": "buyBackLimit",
					"type": "uint256"
				}
			],
			"name": "setBuybackUpperLimit",
			"outputs": [],
			"stateMutability": "nonpayable",
			"type": "function"
		},
		{
			"inputs": [
				{
					"internalType": "address payable",
					"name": "newFeeWallet",
					"type": "address"
				}
			],
			"name": "setFeeWallet",
			"outputs": [],
			"stateMutability": "nonpayable",
			"type": "function"
		},
		{
			"inputs": [
				{
					"internalType": "bool",
					"name": "_enabled",
					"type": "bool"
				}
			],
			"name": "setSwapAndLiquifyEnabled",
			"outputs": [],
			"stateMutability": "nonpayable",
			"type": "function"
		},
		{
			"inputs": [],
			"name": "swapAndLiquifyEnabled",
			"outputs": [
				{
					"internalType": "bool",
					"name": "",
					"type": "bool"
				}
			],
			"stateMutability": "view",
			"type": "function"
		},
		{
			"inputs": [],
			"name": "symbol",
			"outputs": [
				{
					"internalType": "string",
					"name": "",
					"type": "string"
				}
			],
			"stateMutability": "view",
			"type": "function"
		},
		{
			"inputs": [
				{
					"internalType": "uint256",
					"name": "rAmount",
					"type": "uint256"
				}
			],
			"name": "tokenFromReflection",
			"outputs": [
				{
					"internalType": "uint256",
					"name": "",
					"type": "uint256"
				}
			],
			"stateMutability": "view",
			"type": "function"
		},
		{
			"inputs": [],
			"name": "totalFees",
			"outputs": [
				{
					"internalType": "uint256",
					"name": "",
					"type": "uint256"
				}
			],
			"stateMutability": "view",
			"type": "function"
		},
		{
			"inputs": [],
			"name": "totalSupply",
			"outputs": [
				{
					"internalType": "uint256",
					"name": "",
					"type": "uint256"
				}
			],
			"stateMutability": "view",
			"type": "function"
		},
		{
			"inputs": [
				{
					"internalType": "address",
					"name": "recipient",
					"type": "address"
				},
				{
					"internalType": "uint256",
					"name": "amount",
					"type": "uint256"
				}
			],
			"name": "transfer",
			"outputs": [
				{
					"internalType": "bool",
					"name": "",
					"type": "bool"
				}
			],
			"stateMutability": "nonpayable",
			"type": "function"
		},
		{
			"inputs": [
				{
					"internalType": "address",
					"name": "sender",
					"type": "address"
				},
				{
					"internalType": "address",
					"name": "recipient",
					"type": "address"
				},
				{
					"internalType": "uint256",
					"name": "amount",
					"type": "uint256"
				}
			],
			"name": "transferFrom",
			"outputs": [
				{
					"internalType": "bool",
					"name": "",
					"type": "bool"
				}
			],
			"stateMutability": "nonpayable",
			"type": "function"
		},
		{
			"inputs": [
				{
					"internalType": "address",
					"name": "newOwner",
					"type": "address"
				}
			],
			"name": "transferOwnership",
			"outputs": [],
			"stateMutability": "nonpayable",
			"type": "function"
		},
		{
			"inputs": [],
			"name": "version",
			"outputs": [
				{
					"internalType": "string",
					"name": "",
					"type": "string"
				}
			],
			"stateMutability": "pure",
			"type": "function"
		},
		{
			"stateMutability": "payable",
			"type": "receive"
		}
	]
}